{
  "_format": "hh-sol-artifact-1",
  "contractName": "FinCubeDAO",
  "sourceName": "contracts/FincubeDAO.sol",
  "abi": [
    {
      "inputs": [
        {
          "internalType": "address",
          "name": "target",
          "type": "address"
        }
      ],
      "name": "AddressEmptyCode",
      "type": "error"
    },
    {
      "inputs": [
        {
          "internalType": "address",
          "name": "implementation",
          "type": "address"
        }
      ],
      "name": "ERC1967InvalidImplementation",
      "type": "error"
    },
    {
      "inputs": [],
      "name": "ERC1967NonPayable",
      "type": "error"
    },
    {
      "inputs": [],
      "name": "FailedInnerCall",
      "type": "error"
    },
    {
      "inputs": [],
      "name": "InvalidInitialization",
      "type": "error"
    },
    {
      "inputs": [],
      "name": "NotInitializing",
      "type": "error"
    },
    {
      "inputs": [
        {
          "internalType": "address",
          "name": "owner",
          "type": "address"
        }
      ],
      "name": "OwnableInvalidOwner",
      "type": "error"
    },
    {
      "inputs": [
        {
          "internalType": "address",
          "name": "account",
          "type": "address"
        }
      ],
      "name": "OwnableUnauthorizedAccount",
      "type": "error"
    },
    {
      "inputs": [],
      "name": "UUPSUnauthorizedCallContext",
      "type": "error"
    },
    {
      "inputs": [
        {
          "internalType": "bytes32",
          "name": "slot",
          "type": "bytes32"
        }
      ],
      "name": "UUPSUnsupportedProxiableUUID",
      "type": "error"
    },
    {
      "anonymous": false,
      "inputs": [
        {
          "indexed": false,
          "internalType": "uint64",
          "name": "version",
          "type": "uint64"
        }
      ],
      "name": "Initialized",
      "type": "event"
    },
    {
      "anonymous": false,
      "inputs": [
        {
          "indexed": true,
          "internalType": "address",
          "name": "member",
          "type": "address"
        }
      ],
      "name": "MemberApproved",
      "type": "event"
    },
    {
      "anonymous": false,
      "inputs": [
        {
          "indexed": true,
          "internalType": "address",
          "name": "_newMember",
          "type": "address"
        },
        {
          "indexed": false,
          "internalType": "string",
          "name": "_memberURI",
          "type": "string"
        }
      ],
      "name": "MemberRegistered",
      "type": "event"
    },
    {
      "anonymous": false,
      "inputs": [
        {
          "indexed": true,
          "internalType": "address",
          "name": "previousOwner",
          "type": "address"
        },
        {
          "indexed": true,
          "internalType": "address",
          "name": "newOwner",
          "type": "address"
        }
      ],
      "name": "OwnershipTransferred",
      "type": "event"
    },
    {
      "anonymous": false,
      "inputs": [
        {
          "indexed": true,
          "internalType": "enum FinCubeDAO.ProposalType",
          "name": "proposalType",
          "type": "uint8"
        },
        {
          "indexed": true,
          "internalType": "uint256",
          "name": "proposalId",
          "type": "uint256"
        },
        {
          "indexed": false,
          "internalType": "bytes",
          "name": "data",
          "type": "bytes"
        }
      ],
      "name": "ProposalAdded",
      "type": "event"
    },
    {
      "anonymous": false,
      "inputs": [
        {
          "indexed": true,
          "internalType": "uint256",
          "name": "proposalId",
          "type": "uint256"
        }
      ],
      "name": "ProposalCanceled",
      "type": "event"
    },
    {
      "anonymous": false,
      "inputs": [
        {
          "indexed": false,
          "internalType": "uint256",
          "name": "proposalId",
          "type": "uint256"
        },
        {
          "indexed": false,
          "internalType": "address",
          "name": "proposer",
          "type": "address"
        },
        {
          "indexed": false,
          "internalType": "address[]",
          "name": "targets",
          "type": "address[]"
        },
        {
          "indexed": false,
          "internalType": "uint256[]",
          "name": "values",
          "type": "uint256[]"
        },
        {
          "indexed": false,
          "internalType": "string[]",
          "name": "signatures",
          "type": "string[]"
        },
        {
          "indexed": false,
          "internalType": "bytes[]",
          "name": "calldatas",
          "type": "bytes[]"
        },
        {
          "indexed": false,
          "internalType": "uint256",
          "name": "voteStart",
          "type": "uint256"
        },
        {
          "indexed": false,
          "internalType": "uint256",
          "name": "voteEnd",
          "type": "uint256"
        },
        {
          "indexed": false,
          "internalType": "string",
          "name": "description",
          "type": "string"
        }
      ],
      "name": "ProposalCreated",
      "type": "event"
    },
    {
      "anonymous": false,
      "inputs": [
        {
          "indexed": true,
          "internalType": "uint256",
          "name": "proposalId",
          "type": "uint256"
        }
      ],
      "name": "ProposalExecuted",
      "type": "event"
    },
    {
      "anonymous": false,
      "inputs": [
        {
          "indexed": true,
          "internalType": "address",
          "name": "implementation",
          "type": "address"
        }
      ],
      "name": "Upgraded",
      "type": "event"
    },
    {
      "anonymous": false,
      "inputs": [
        {
          "indexed": true,
          "internalType": "address",
          "name": "voter",
          "type": "address"
        },
        {
          "indexed": false,
          "internalType": "uint256",
          "name": "proposalId",
          "type": "uint256"
        },
        {
          "indexed": false,
          "internalType": "uint8",
          "name": "support",
          "type": "uint8"
        },
        {
          "indexed": false,
          "internalType": "uint256",
          "name": "weight",
          "type": "uint256"
        },
        {
          "indexed": false,
          "internalType": "string",
          "name": "reason",
          "type": "string"
        }
      ],
      "name": "VoteCast",
      "type": "event"
    },
    {
      "inputs": [],
      "name": "UPGRADE_INTERFACE_VERSION",
      "outputs": [
        {
          "internalType": "string",
          "name": "",
          "type": "string"
        }
      ],
      "stateMutability": "view",
      "type": "function"
    },
    {
      "inputs": [
        {
          "internalType": "uint256",
          "name": "proposalId",
          "type": "uint256"
        }
      ],
      "name": "cancelProposal",
      "outputs": [],
      "stateMutability": "nonpayable",
      "type": "function"
    },
    {
      "inputs": [
        {
          "internalType": "uint256",
          "name": "proposalId",
          "type": "uint256"
        },
        {
          "internalType": "bool",
          "name": "support",
          "type": "bool"
        }
      ],
      "name": "castVote",
      "outputs": [],
      "stateMutability": "nonpayable",
      "type": "function"
    },
    {
      "inputs": [
        {
          "internalType": "address",
          "name": "_member",
          "type": "address"
        }
      ],
      "name": "checkIsMemberApproved",
      "outputs": [
        {
          "internalType": "bool",
          "name": "",
          "type": "bool"
        }
      ],
      "stateMutability": "view",
      "type": "function"
    },
    {
      "inputs": [],
      "name": "daoURI",
      "outputs": [
        {
          "internalType": "string",
          "name": "",
          "type": "string"
        }
      ],
      "stateMutability": "view",
      "type": "function"
    },
    {
      "inputs": [
        {
          "internalType": "uint256",
          "name": "proposalId",
          "type": "uint256"
        }
      ],
      "name": "executeProposal",
      "outputs": [],
      "stateMutability": "nonpayable",
      "type": "function"
    },
    {
      "inputs": [],
      "name": "getOngoingProposals",
      "outputs": [
        {
          "components": [
            {
              "internalType": "bool",
              "name": "executed",
              "type": "bool"
            },
            {
              "internalType": "bool",
              "name": "canceled",
              "type": "bool"
            },
            {
              "internalType": "address",
              "name": "proposer",
              "type": "address"
            },
            {
              "internalType": "bytes",
              "name": "data",
              "type": "bytes"
            },
            {
              "internalType": "address",
              "name": "target",
              "type": "address"
            },
            {
              "internalType": "uint48",
              "name": "voteStart",
              "type": "uint48"
            },
            {
              "internalType": "uint48",
              "name": "voteDuration",
              "type": "uint48"
            },
            {
              "internalType": "uint256",
              "name": "yesvotes",
              "type": "uint256"
            },
            {
              "internalType": "uint256",
              "name": "novotes",
              "type": "uint256"
            },
            {
              "internalType": "string",
              "name": "proposalURI",
              "type": "string"
            }
          ],
          "internalType": "struct FinCubeDAO.Proposal[]",
          "name": "",
          "type": "tuple[]"
        }
      ],
      "stateMutability": "view",
      "type": "function"
    },
    {
      "inputs": [],
      "name": "getOngoingProposalsCount",
      "outputs": [
        {
          "internalType": "uint256",
          "name": "ongoingCount",
          "type": "uint256"
        }
      ],
      "stateMutability": "view",
      "type": "function"
    },
    {
      "inputs": [
        {
          "internalType": "uint256",
          "name": "cursor",
          "type": "uint256"
        },
        {
          "internalType": "uint256",
          "name": "howMany",
          "type": "uint256"
        }
      ],
      "name": "getProposalsByPage",
      "outputs": [
        {
          "components": [
            {
              "internalType": "bool",
              "name": "executed",
              "type": "bool"
            },
            {
              "internalType": "bool",
              "name": "canceled",
              "type": "bool"
            },
            {
              "internalType": "address",
              "name": "proposer",
              "type": "address"
            },
            {
              "internalType": "bytes",
              "name": "data",
              "type": "bytes"
            },
            {
              "internalType": "address",
              "name": "target",
              "type": "address"
            },
            {
              "internalType": "uint48",
              "name": "voteStart",
              "type": "uint48"
            },
            {
              "internalType": "uint48",
              "name": "voteDuration",
              "type": "uint48"
            },
            {
              "internalType": "uint256",
              "name": "yesvotes",
              "type": "uint256"
            },
            {
              "internalType": "uint256",
              "name": "novotes",
              "type": "uint256"
            },
            {
              "internalType": "string",
              "name": "proposalURI",
              "type": "string"
            }
          ],
          "internalType": "struct FinCubeDAO.Proposal[]",
          "name": "paginateProposals",
          "type": "tuple[]"
        },
        {
          "internalType": "uint256",
          "name": "newCursor",
          "type": "uint256"
        }
      ],
      "stateMutability": "view",
      "type": "function"
    },
    {
      "inputs": [],
      "name": "getVotingDelay",
      "outputs": [
        {
          "internalType": "uint256",
          "name": "",
          "type": "uint256"
        }
      ],
      "stateMutability": "view",
      "type": "function"
    },
    {
      "inputs": [],
      "name": "getVotingPeriod",
      "outputs": [
        {
          "internalType": "uint256",
          "name": "",
          "type": "uint256"
        }
      ],
      "stateMutability": "view",
      "type": "function"
    },
    {
      "inputs": [
        {
          "internalType": "string",
          "name": "_daoURI",
          "type": "string"
        },
        {
          "internalType": "string",
          "name": "_ownerURI",
          "type": "string"
        }
      ],
      "name": "initialize",
      "outputs": [],
      "stateMutability": "nonpayable",
      "type": "function"
    },
    {
      "inputs": [
        {
          "internalType": "address",
          "name": "_newMember",
          "type": "address"
        },
        {
          "internalType": "string",
          "name": "description",
          "type": "string"
        }
      ],
      "name": "newMemberApprovalProposal",
      "outputs": [],
      "stateMutability": "nonpayable",
      "type": "function"
    },
    {
      "inputs": [],
      "name": "owner",
      "outputs": [
        {
          "internalType": "address",
          "name": "",
          "type": "address"
        }
      ],
      "stateMutability": "view",
      "type": "function"
    },
    {
      "inputs": [],
      "name": "proposalThreshold",
      "outputs": [
        {
          "internalType": "uint256",
          "name": "threshold",
          "type": "uint256"
        }
      ],
      "stateMutability": "view",
      "type": "function"
    },
    {
      "inputs": [
        {
          "internalType": "address[]",
          "name": "targets",
          "type": "address[]"
        },
        {
          "internalType": "uint256[]",
          "name": "values",
          "type": "uint256[]"
        },
        {
          "internalType": "bytes[]",
          "name": "calldatas",
          "type": "bytes[]"
        },
        {
          "internalType": "string",
          "name": "description",
          "type": "string"
        }
      ],
      "name": "propose",
      "outputs": [
        {
          "internalType": "uint256",
          "name": "proposalId",
          "type": "uint256"
        }
      ],
      "stateMutability": "nonpayable",
      "type": "function"
    },
    {
      "inputs": [],
      "name": "proxiableUUID",
      "outputs": [
        {
          "internalType": "bytes32",
          "name": "",
          "type": "bytes32"
        }
      ],
      "stateMutability": "view",
      "type": "function"
    },
    {
      "inputs": [
        {
          "internalType": "address",
          "name": "_newMember",
          "type": "address"
        },
        {
          "internalType": "string",
          "name": "_memberURI",
          "type": "string"
        }
      ],
      "name": "registerMember",
      "outputs": [],
      "stateMutability": "nonpayable",
      "type": "function"
    },
    {
      "inputs": [],
      "name": "renounceOwnership",
      "outputs": [],
      "stateMutability": "nonpayable",
      "type": "function"
    },
    {
      "inputs": [
        {
          "internalType": "uint256",
          "name": "_votingDelay",
          "type": "uint256"
        }
      ],
      "name": "setVotingDelay",
      "outputs": [],
      "stateMutability": "nonpayable",
      "type": "function"
    },
    {
      "inputs": [
        {
          "internalType": "uint256",
          "name": "_votingPeriod",
          "type": "uint256"
        }
      ],
      "name": "setVotingPeriod",
      "outputs": [],
      "stateMutability": "nonpayable",
      "type": "function"
    },
    {
      "inputs": [
        {
          "internalType": "address",
          "name": "newOwner",
          "type": "address"
        }
      ],
      "name": "transferOwnership",
      "outputs": [],
      "stateMutability": "nonpayable",
      "type": "function"
    },
    {
      "inputs": [
        {
          "internalType": "address",
          "name": "newImplementation",
          "type": "address"
        },
        {
          "internalType": "bytes",
          "name": "data",
          "type": "bytes"
        }
      ],
      "name": "upgradeToAndCall",
      "outputs": [],
      "stateMutability": "payable",
      "type": "function"
    },
    {
      "inputs": [],
      "name": "votingDelay",
      "outputs": [
        {
          "internalType": "uint256",
          "name": "",
          "type": "uint256"
        }
      ],
      "stateMutability": "view",
      "type": "function"
    },
    {
      "inputs": [],
      "name": "votingPeriod",
      "outputs": [
        {
          "internalType": "uint256",
          "name": "",
          "type": "uint256"
        }
      ],
      "stateMutability": "view",
      "type": "function"
    }
  ],
  "bytecode": "0x60a06040523060805234801561001457600080fd5b5060805161327961003e6000396000818161225b01528181612284015261240701526132796000f3fe6080604052600436106101965760003560e01c80637034731b116100e1578063ad3cb1cc1161008a578063cfbc02d411610064578063cfbc02d41461044f578063e0a8f6f51461047f578063ea0217cf1461049f578063f2fde38b146104bf57600080fd5b8063ad3cb1cc146103cf578063afe666f614610418578063b58131b01461043a57600080fd5b80637d5e81e2116100bb5780637d5e81e2146103535780638da5cb5b14610373578063a2b170b0146103ba57600080fd5b80637034731b146102fc57806370b0f6601461031e578063715018a61461033e57600080fd5b80633932abb1116101435780634f1ef2861161011d5780634f1ef286146102a657806352d1902d146102b95780635643a8b8146102ce57600080fd5b80633932abb11461025b5780633ecc6a43146102715780634cd88b761461028657600080fd5b80630da85852116101745780630da858521461020657806315373e3d1461022657806327f5884b1461024657600080fd5b806302a251a31461019b5780630aa5adfc146101c45780630d61b519146101e6575b600080fd5b3480156101a757600080fd5b506101b160045481565b6040519081526020015b60405180910390f35b3480156101d057600080fd5b506101e46101df3660046128bd565b6104df565b005b3480156101f257600080fd5b506101e461020136600461290b565b6105f6565b34801561021257600080fd5b506101e46102213660046128bd565b6109a1565b34801561023257600080fd5b506101e4610241366004612924565b610dc9565b34801561025257600080fd5b506101b1611078565b34801561026757600080fd5b506101b160035481565b34801561027d57600080fd5b506004546101b1565b34801561029257600080fd5b506101e46102a1366004612959565b61112c565b6101e46102b43660046128bd565b6112cf565b3480156102c557600080fd5b506101b16112ea565b3480156102da57600080fd5b506102ee6102e93660046129b3565b611319565b6040516101bb929190612b2d565b34801561030857600080fd5b506103116115fc565b6040516101bb9190612b4f565b34801561032a57600080fd5b506101e461033936600461290b565b61168a565b34801561034a57600080fd5b506101e4611697565b34801561035f57600080fd5b506101b161036e366004612c71565b6116ab565b34801561037f57600080fd5b507f9016d09d72d40fdae2fd8ceac6b6234c7706214fd39c1cd1e609a0528c199300546040516001600160a01b0390911681526020016101bb565b3480156103c657600080fd5b506003546101b1565b3480156103db57600080fd5b506103116040518060400160405280600581526020017f352e302e3000000000000000000000000000000000000000000000000000000081525081565b34801561042457600080fd5b5061042d611ae9565b6040516101bb9190612d7a565b34801561044657600080fd5b506101b1611e30565b34801561045b57600080fd5b5061046f61046a366004612d8d565b611e52565b60405190151581526020016101bb565b34801561048b57600080fd5b506101e461049a36600461290b565b611f3b565b3480156104ab57600080fd5b506101e46104ba36600461290b565b612116565b3480156104cb57600080fd5b506101e46104da366004612d8d565b612123565b6001600160a01b038216600090815260056020526040812060010180548492919061050990612da8565b9050111561055e5760405162461bcd60e51b815260206004820152601060248201527f416c72656164792061206d656d6265720000000000000000000000000000000060448201526064015b60405180910390fd5b604080518082018252600080825260208083018681526001600160a01b038816835260059091529290208151815460ff191690151517815591519091829160018201906105ab9082612e2a565b50905050836001600160a01b03167f3b09349069a59bcde8c2609afc86c80b77c81085ac8cd8662981621f7ea3574b846040516105e89190612b4f565b60405180910390a250505050565b60008181526006602052604090206002810154600160a01b900465ffffffffffff164211801561063857506002810154600160d01b900465ffffffffffff1642105b156106855760405162461bcd60e51b815260206004820152601560248201527f566f74696e67207374696c6c20676f696e67206f6e00000000000000000000006044820152606401610555565b805460ff1615801561069e57508054610100900460ff16155b6106f85760405162461bcd60e51b815260206004820152602560248201527f50726f706f73616c20616c7265616479206578656375746564206f722063616e60448201526418d95b195960da1b6064820152608401610555565b6001610702611e30565b61070c9190612f00565b8160030154116107845760405162461bcd60e51b815260206004820152602360248201527f50726f706f73616c20646f65736e27742068617665206d616a6f72697479207660448201527f6f746500000000000000000000000000000000000000000000000000000000006064820152608401610555565b60008281526008602052604081205460ff1660018111156107a7576107a7612f13565b036108855761084b6108468260010180546107c190612da8565b80601f01602080910402602001604051908101604052809291908181526020018280546107ed90612da8565b801561083a5780601f1061080f5761010080835404028352916020019161083a565b820191906000526020600020905b81548152906001019060200180831161081d57829003601f168201915b50505050506014015190565b61217a565b805460ff1916600117815560405182907f712ae1383f79ac853f8d882153778e0260ef8f03b504e2866e0593e04d2b291f90600090a25050565b600160008381526008602052604090205460ff1660018111156108aa576108aa612f13565b0361099d5760028101546040516000916001600160a01b0316906108d2906001850190612f29565b6000604051808303816000865af19150503d806000811461090f576040519150601f19603f3d011682016040523d82523d6000602084013e610914565b606091505b50509050806109655760405162461bcd60e51b815260206004820152601960248201527f50726f706f73616c20657865637574696f6e206661696c6564000000000000006044820152606401610555565b815460ff1916600117825560405183907f712ae1383f79ac853f8d882153778e0260ef8f03b504e2866e0593e04d2b291f90600090a2505b5050565b33600081815260056020526040812060010180546109be90612da8565b9050116109fc5760405162461bcd60e51b815260206004820152600c60248201526b2737ba10309036b2b6b132b960a11b6044820152606401610555565b6001600160a01b03811660009081526005602052604090205460ff161515600114610a5f5760405162461bcd60e51b815260206004820152601360248201527213595b58995c881b9bdd08185c1c1c9bdd9959606a1b6044820152606401610555565b6001600160a01b0383166000908152600560205260408120600101805485929190610a8990612da8565b905011610ad85760405162461bcd60e51b815260206004820152601660248201527f4e6f7420616e206578697374696e67206d656d626572000000000000000000006044820152606401610555565b600060035411610b2a5760405162461bcd60e51b815260206004820152601760248201527f566f74696e672064656c6179206973206e6f74207365740000000000000000006044820152606401610555565b600060045411610b7c5760405162461bcd60e51b815260206004820152601860248201527f566f74696e6720706572696f64206973206e6f742073657400000000000000006044820152606401610555565b426000610b8860035490565b610b929083612f9f565b90506000610b9f60045490565b610ba99083612f9f565b6040805160608a901b6bffffffffffffffffffffffff191660208083019190915282518083036014018152610174830184526000603484018181526054850182815233607487019081526094870185815261dead60b489015265ffffffffffff808d1660d48a01528a1660f4890152610114880185905261013488018590526101549097018f905260018054855260069096529690922081518154935197516001600160a01b0316620100000275ffffffffffffffffffffffffffffffffffffffff0000199815156101000261ff00199215159290921661ffff1990951694909417179690961691909117855592519495509391929190820190610cad9082612e2a565b50608082015160028201805460a085015160c08601516001600160a01b039094167fffffffffffff000000000000000000000000000000000000000000000000000090921691909117600160a01b65ffffffffffff928316021779ffffffffffffffffffffffffffffffffffffffffffffffffffff16600160d01b919093160291909117905560e0820151600382015561010082015160048201556101208201516005820190610d5d9082612e2a565b505060018054600090815260086020526040808220805460ff1916905591549151919250907fa7111a86c2f98a3baf7875ce595b4575567bb709a32769f65176d6e1cbed526e90610daf908590612b4f565b60405180910390a350506001805481019055505050505050565b3360008181526005602052604081206001018054610de690612da8565b905011610e245760405162461bcd60e51b815260206004820152600c60248201526b2737ba10309036b2b6b132b960a11b6044820152606401610555565b6001600160a01b03811660009081526005602052604090205460ff161515600114610e875760405162461bcd60e51b815260206004820152601360248201527213595b58995c881b9bdd08185c1c1c9bdd9959606a1b6044820152606401610555565b600083815260076020908152604080832060069092529091206002810154600160a01b900465ffffffffffff1642118015610ed457506002810154600160d01b900465ffffffffffff1642105b610f465760405162461bcd60e51b815260206004820152602260248201527f566f74696e67206973206e6f7420616c6c6f776564206174207468697320746960448201527f6d650000000000000000000000000000000000000000000000000000000000006064820152608401610555565b3360009081526020839052604090205460ff16158015610f78575033600090815260018301602052604090205460ff16155b610fc45760405162461bcd60e51b815260206004820152601f60248201527f416c726561647920766f74656420666f7220746869732070726f706f73616c006044820152606401610555565b8315610ff7576003810180546001908101909155336000908152602084905260409020805460ff19169091179055611021565b600481018054600190810190915533600090815283820160205260409020805460ff191690911790555b337fb8e138887d0aa13bab447e82de9d5c1777041ecd21ca36ba824ff1e6c07ddda48686611050576000611053565b60015b6000856005016040516110699493929190612fc5565b60405180910390a25050505050565b60015460009042825b828110156111265760008181526006602052604090205460ff161580156110bc5750600081815260066020526040902054610100900460ff16155b80156110e75750600081815260066020526040902060020154600160a01b900465ffffffffffff1682115b80156111125750600081815260066020526040902060020154600160d01b900465ffffffffffff1682105b1561111e576001909301925b600101611081565b50505090565b7ff0c57e16840df040f15088dc2f81fe391c3923bec73e23a9662efc9c229c6a00805468010000000000000000810460ff16159067ffffffffffffffff166000811580156111775750825b905060008267ffffffffffffffff1660011480156111945750303b155b9050811580156111a2575080155b156111d9576040517ff92ee8a900000000000000000000000000000000000000000000000000000000815260040160405180910390fd5b845467ffffffffffffffff19166001178555831561120d57845468ff00000000000000001916680100000000000000001785555b61121633612237565b61121e612248565b604080518082018252602080820189815260018084523360009081526005909352939091208251815460ff1916901515178155905191928392908201906112659082612e2a565b505060016000555060026112798982612e2a565b505083156112c657845468ff000000000000000019168555604051600181527fc7f505b2f371ae2175ee4913f4499e1f2633a7b5936321eed1cdaeb6115181d29060200160405180910390a15b50505050505050565b6112d7612250565b6112e082612307565b61099d828261230f565b60006112f46123fc565b507f360894a13ba1a3210667c828492db98dca3e2076cc3735a920a3ca505d382bbc90565b606060008267ffffffffffffffff81111561133657611336612806565b6040519080825280602002602001820160405280156113b757816020015b60408051610140810182526000808252602080830182905292820181905260608083018190526080830182905260a0830182905260c0830182905260e0830182905261010083019190915261012082015282526000199092019101816113545790505b50805190925083906113ca908690612f00565b8111156113e1578483516113de9190612f00565b90505b60005b818110156115e457600660006113fa8389613069565b81526020808201929092526040908101600020815161014081018352815460ff80821615158352610100820416151594820194909452620100009093046001600160a01b03169183019190915260018101805460608401919061145c90612da8565b80601f016020809104026020016040519081016040528092919081815260200182805461148890612da8565b80156114d55780601f106114aa576101008083540402835291602001916114d5565b820191906000526020600020905b8154815290600101906020018083116114b857829003601f168201915b505050918352505060028201546001600160a01b038116602083015265ffffffffffff600160a01b820481166040840152600160d01b90910416606082015260038201546080820152600482015460a082015260058201805460c09092019161153d90612da8565b80601f016020809104026020016040519081016040528092919081815260200182805461156990612da8565b80156115b65780601f1061158b576101008083540402835291602001916115b6565b820191906000526020600020905b81548152906001019060200180831161159957829003601f168201915b5050505050815250508482815181106115d1576115d161307c565b60209081029190910101526001016113e4565b50826115f08287613069565b92509250509250929050565b6002805461160990612da8565b80601f016020809104026020016040519081016040528092919081815260200182805461163590612da8565b80156116825780601f1061165757610100808354040283529160200191611682565b820191906000526020600020905b81548152906001019060200180831161166557829003601f168201915b505050505081565b611692612445565b600355565b61169f612445565b6116a960006124b9565b565b33600081815260056020526040812060010180549192918391906116ce90612da8565b90501161170c5760405162461bcd60e51b815260206004820152600c60248201526b2737ba10309036b2b6b132b960a11b6044820152606401610555565b6001600160a01b03811660009081526005602052604090205460ff16151560011461176f5760405162461bcd60e51b815260206004820152601360248201527213595b58995c881b9bdd08185c1c1c9bdd9959606a1b6044820152606401610555565b6000600354116117c15760405162461bcd60e51b815260206004820152601760248201527f566f74696e672064656c6179206973206e6f74207365740000000000000000006044820152606401610555565b6000600454116118135760405162461bcd60e51b815260206004820152601860248201527f566f74696e6720706572696f64206973206e6f742073657400000000000000006044820152606401610555565b42600061181f60035490565b6118299083612f9f565b9050600061183660045490565b6118409083612f9f565b90506001549450604051806101400160405280600015158152602001600015158152602001336001600160a01b03168152602001886000815181106118875761188761307c565b602002602001015181526020018a6000815181106118a7576118a761307c565b6020908102919091018101516001600160a01b03908116835265ffffffffffff868116848401528516604080850191909152600060608086018290526080860182905260a09095018c9052600180548252600685529082902086518154958801519388015161ffff1990961690151561ff00191617610100931515939093029290921775ffffffffffffffffffffffffffffffffffffffff0000191662010000949093169390930291909117815591830151908201906119679082612e2a565b50608082015160028201805460a085015160c08601516001600160a01b039094167fffffffffffff000000000000000000000000000000000000000000000000000090921691909117600160a01b65ffffffffffff928316021779ffffffffffffffffffffffffffffffffffffffffffffffffffff16600160d01b919093160291909117905560e0820151600382015561010082015160048201556101208201516005820190611a179082612e2a565b5050600180546000908152600860205260408120805460ff19168317905581548a519093507fa7111a86c2f98a3baf7875ce595b4575567bb709a32769f65176d6e1cbed526e918b91611a6c57611a6c61307c565b6020026020010151604051611a819190612b4f565b60405180910390a360607f7d84a6263ae0d98d3329bd7b46bb4e8d6f98cd35a7adb45c274c8b7fd5ebd5e0600154338c8c858d89898f604051611acc99989796959493929190613115565b60405180910390a150506001805481019055505050949350505050565b60606000611af5611078565b905060008167ffffffffffffffff811115611b1257611b12612806565b604051908082528060200260200182016040528015611b9357816020015b60408051610140810182526000808252602080830182905292820181905260608083018190526080830182905260a0830182905260c0830182905260e083018290526101008301919091526101208201528252600019909201910181611b305790505b509050426000805b600154811015611e265760008181526006602052604090205460ff16158015611bd85750600081815260066020526040902054610100900460ff16155b8015611c035750600081815260066020526040902060020154600160a01b900465ffffffffffff1683115b8015611c2e5750600081815260066020526040902060020154600160d01b900465ffffffffffff1683105b15611e1e57600081815260066020908152604091829020825161014081018452815460ff80821615158352610100820416151593820193909352620100009092046001600160a01b031692820192909252600182018054919291606084019190611c9790612da8565b80601f0160208091040260200160405190810160405280929190818152602001828054611cc390612da8565b8015611d105780601f10611ce557610100808354040283529160200191611d10565b820191906000526020600020905b815481529060010190602001808311611cf357829003601f168201915b505050918352505060028201546001600160a01b038116602083015265ffffffffffff600160a01b820481166040840152600160d01b90910416606082015260038201546080820152600482015460a082015260058201805460c090920191611d7890612da8565b80601f0160208091040260200160405190810160405280929190818152602001828054611da490612da8565b8015611df15780601f10611dc657610100808354040283529160200191611df1565b820191906000526020600020905b815481529060010190602001808311611dd457829003601f168201915b505050505081525050848381518110611e0c57611e0c61307c565b60209081029190910101526001909101905b600101611b9b565b5091949350505050565b600060026000546001611e439190613069565b611e4d91906131ec565b905090565b3360008181526005602052604081206001018054919291839190611e7590612da8565b905011611eb35760405162461bcd60e51b815260206004820152600c60248201526b2737ba10309036b2b6b132b960a11b6044820152606401610555565b6001600160a01b03811660009081526005602052604090205460ff161515600114611f165760405162461bcd60e51b815260206004820152601360248201527213595b58995c881b9bdd08185c1c1c9bdd9959606a1b6044820152606401610555565b6001600160a01b03831660009081526005602052604090205460ff1691505b50919050565b3360008181526005602052604081206001018054611f5890612da8565b905011611f965760405162461bcd60e51b815260206004820152600c60248201526b2737ba10309036b2b6b132b960a11b6044820152606401610555565b6001600160a01b03811660009081526005602052604090205460ff161515600114611ff95760405162461bcd60e51b815260206004820152601360248201527213595b58995c881b9bdd08185c1c1c9bdd9959606a1b6044820152606401610555565b600082815260066020526040902080546201000090046001600160a01b031633146120665760405162461bcd60e51b815260206004820181905260248201527f4e6f207065726d697373696f6e20746f2063616e63656c2070726f706f73616c6044820152606401610555565b805460ff1615801561207f57508054610100900460ff16155b6120d95760405162461bcd60e51b815260206004820152602560248201527f50726f706f73616c20616c7265616479206578656375746564206f722063616e60448201526418d95b195960da1b6064820152608401610555565b805461ff00191661010017815560405183907f789cf55be980739dad1d0699b93b58e806b51c9d96619bfa8fe0a28abaa7b30c90600090a2505050565b61211e612445565b600455565b61212b612445565b6001600160a01b03811661216e576040517f1e4fbdf700000000000000000000000000000000000000000000000000000000815260006004820152602401610555565b612177816124b9565b50565b6001600160a01b03811660009081526005602052604090205460ff16156121e35760405162461bcd60e51b815260206004820152601760248201527f4d656d62657220616c726561647920617070726f7665640000000000000000006044820152606401610555565b6001600160a01b038116600081815260056020526040808220805460ff191660019081179091558254018255517f3da74045128fff0396b39203f81bcedcbcf28586f0f97fb0f41ceb5521566a159190a250565b61223f612537565b6121778161259e565b6116a9612537565b306001600160a01b037f00000000000000000000000000000000000000000000000000000000000000001614806122e957507f00000000000000000000000000000000000000000000000000000000000000006001600160a01b03166122dd7f360894a13ba1a3210667c828492db98dca3e2076cc3735a920a3ca505d382bbc546001600160a01b031690565b6001600160a01b031614155b156116a95760405163703e46dd60e11b815260040160405180910390fd5b612177612445565b816001600160a01b03166352d1902d6040518163ffffffff1660e01b8152600401602060405180830381865afa925050508015612369575060408051601f3d908101601f191682019092526123669181019061320e565b60015b61239157604051634c9c8ce360e01b81526001600160a01b0383166004820152602401610555565b7f360894a13ba1a3210667c828492db98dca3e2076cc3735a920a3ca505d382bbc81146123ed576040517faa1d49a400000000000000000000000000000000000000000000000000000000815260048101829052602401610555565b6123f783836125a6565b505050565b306001600160a01b037f000000000000000000000000000000000000000000000000000000000000000016146116a95760405163703e46dd60e11b815260040160405180910390fd5b336124777f9016d09d72d40fdae2fd8ceac6b6234c7706214fd39c1cd1e609a0528c199300546001600160a01b031690565b6001600160a01b0316146116a9576040517f118cdaa7000000000000000000000000000000000000000000000000000000008152336004820152602401610555565b7f9016d09d72d40fdae2fd8ceac6b6234c7706214fd39c1cd1e609a0528c199300805473ffffffffffffffffffffffffffffffffffffffff1981166001600160a01b03848116918217845560405192169182907f8be0079c531659141344cd1fd0a4f28419497f9722a3daafe3b4186f6b6457e090600090a3505050565b7ff0c57e16840df040f15088dc2f81fe391c3923bec73e23a9662efc9c229c6a005468010000000000000000900460ff166116a9576040517fd7e6bcf800000000000000000000000000000000000000000000000000000000815260040160405180910390fd5b61212b612537565b6125af826125fc565b6040516001600160a01b038316907fbc7cd75a20ee27fd9adebab32041f755214dbc6bffa90cc0225b39da2e5c2d3b90600090a28051156125f4576123f78282612680565b61099d6126f8565b806001600160a01b03163b60000361263257604051634c9c8ce360e01b81526001600160a01b0382166004820152602401610555565b7f360894a13ba1a3210667c828492db98dca3e2076cc3735a920a3ca505d382bbc805473ffffffffffffffffffffffffffffffffffffffff19166001600160a01b0392909216919091179055565b6060600080846001600160a01b03168460405161269d9190613227565b600060405180830381855af49150503d80600081146126d8576040519150601f19603f3d011682016040523d82523d6000602084013e6126dd565b606091505b50915091506126ed858383612730565b925050505b92915050565b34156116a9576040517fb398979f00000000000000000000000000000000000000000000000000000000815260040160405180910390fd5b60608261274557612740826127a8565b6127a1565b815115801561275c57506001600160a01b0384163b155b1561279e576040517f9996b3150000000000000000000000000000000000000000000000000000000081526001600160a01b0385166004820152602401610555565b50805b9392505050565b8051156127b85780518082602001fd5b6040517f1425ea4200000000000000000000000000000000000000000000000000000000815260040160405180910390fd5b80356001600160a01b038116811461280157600080fd5b919050565b634e487b7160e01b600052604160045260246000fd5b604051601f8201601f1916810167ffffffffffffffff8111828210171561284557612845612806565b604052919050565b600082601f83011261285e57600080fd5b813567ffffffffffffffff81111561287857612878612806565b61288b601f8201601f191660200161281c565b8181528460208386010111156128a057600080fd5b816020850160208301376000918101602001919091529392505050565b600080604083850312156128d057600080fd5b6128d9836127ea565b9150602083013567ffffffffffffffff8111156128f557600080fd5b6129018582860161284d565b9150509250929050565b60006020828403121561291d57600080fd5b5035919050565b6000806040838503121561293757600080fd5b823591506020830135801515811461294e57600080fd5b809150509250929050565b6000806040838503121561296c57600080fd5b823567ffffffffffffffff8082111561298457600080fd5b6129908683870161284d565b935060208501359150808211156129a657600080fd5b506129018582860161284d565b600080604083850312156129c657600080fd5b50508035926020909101359150565b60005b838110156129f05781810151838201526020016129d8565b50506000910152565b60008151808452612a118160208601602086016129d5565b601f01601f19169290920160200192915050565b600081518084526020808501808196508360051b8101915082860160005b85811015612b205782840389528151805115158552858101511515868601526040808201516001600160a01b0316908601526060808201516101408288018190529190612a92838901826129f9565b92505050608080830151612ab0828901826001600160a01b03169052565b505060a08281015165ffffffffffff811688830152505060c08281015165ffffffffffff811688830152505060e0828101519087015261010080830151908701526101209182015186820392870192909252612b0c81836129f9565b9a87019a9550505090840190600101612a43565b5091979650505050505050565b604081526000612b406040830185612a25565b90508260208301529392505050565b6020815260006127a160208301846129f9565b600067ffffffffffffffff821115612b7c57612b7c612806565b5060051b60200190565b600082601f830112612b9757600080fd5b81356020612bac612ba783612b62565b61281c565b82815260059290921b84018101918181019086841115612bcb57600080fd5b8286015b84811015612be65780358352918301918301612bcf565b509695505050505050565b600082601f830112612c0257600080fd5b81356020612c12612ba783612b62565b82815260059290921b84018101918181019086841115612c3157600080fd5b8286015b84811015612be657803567ffffffffffffffff811115612c555760008081fd5b612c638986838b010161284d565b845250918301918301612c35565b60008060008060808587031215612c8757600080fd5b843567ffffffffffffffff80821115612c9f57600080fd5b818701915087601f830112612cb357600080fd5b81356020612cc3612ba783612b62565b82815260059290921b8401810191818101908b841115612ce257600080fd5b948201945b83861015612d0757612cf8866127ea565b82529482019490820190612ce7565b98505088013592505080821115612d1d57600080fd5b612d2988838901612b86565b94506040870135915080821115612d3f57600080fd5b612d4b88838901612bf1565b93506060870135915080821115612d6157600080fd5b50612d6e8782880161284d565b91505092959194509250565b6020815260006127a16020830184612a25565b600060208284031215612d9f57600080fd5b6127a1826127ea565b600181811c90821680612dbc57607f821691505b602082108103611f3557634e487b7160e01b600052602260045260246000fd5b601f8211156123f757600081815260208120601f850160051c81016020861015612e035750805b601f850160051c820191505b81811015612e2257828155600101612e0f565b505050505050565b815167ffffffffffffffff811115612e4457612e44612806565b612e5881612e528454612da8565b84612ddc565b602080601f831160018114612e8d5760008415612e755750858301515b600019600386901b1c1916600185901b178555612e22565b600085815260208120601f198616915b82811015612ebc57888601518255948401946001909101908401612e9d565b5085821015612eda5787850151600019600388901b60f8161c191681555b5050505050600190811b01905550565b634e487b7160e01b600052601160045260246000fd5b818103818111156126f2576126f2612eea565b634e487b7160e01b600052602160045260246000fd5b6000808354612f3781612da8565b60018281168015612f4f5760018114612f6457612f93565b60ff1984168752821515830287019450612f93565b8760005260208060002060005b85811015612f8a5781548a820152908401908201612f71565b50505082870194505b50929695505050505050565b65ffffffffffff818116838216019080821115612fbe57612fbe612eea565b5092915050565b8481526000602060ff8616818401528460408401526080606084015260008454612fee81612da8565b80608087015260a0600180841660008114613010576001811461302a57613058565b60ff1985168984015283151560051b890183019550613058565b896000528660002060005b858110156130505781548b8201860152908301908801613035565b8a0184019650505b50939b9a5050505050505050505050565b808201808211156126f2576126f2612eea565b634e487b7160e01b600052603260045260246000fd5b600081518084526020808501945080840160005b838110156130c2578151875295820195908201906001016130a6565b509495945050505050565b600081518084526020808501808196508360051b8101915082860160005b85811015612b205782840389526131038483516129f9565b988501989350908401906001016130eb565b60006101208083018c845260206001600160a01b03808e16828701528360408701528293508c5180845261014087019450828e01935060005b8181101561316c57845183168652948301949383019360010161314e565b50505050508281036060840152613183818a613092565b9050828103608084015261319781896130cd565b905082810360a08401526131ab81886130cd565b65ffffffffffff871660c0850152905065ffffffffffff851660e08401528281036101008401526131dc81856129f9565b9c9b505050505050505050505050565b60008261320957634e487b7160e01b600052601260045260246000fd5b500490565b60006020828403121561322057600080fd5b5051919050565b600082516132398184602087016129d5565b919091019291505056fea264697066735822122066f9c1f9fe0e7fd1518f74abadfb024fcb4d60e9ea0bfb925322a6c365c7adda64736f6c63430008140033",
  "linkReferences": {},
  "deployedLinkReferences": {}
}