{
  "_format": "hh-sol-artifact-1",
  "contractName": "FinCubeDAO",
  "sourceName": "contracts/FincubeDAO.sol",
  "abi": [
    {
      "inputs": [
        {
          "internalType": "address",
          "name": "target",
          "type": "address"
        }
      ],
      "name": "AddressEmptyCode",
      "type": "error"
    },
    {
      "inputs": [
        {
          "internalType": "address",
          "name": "implementation",
          "type": "address"
        }
      ],
      "name": "ERC1967InvalidImplementation",
      "type": "error"
    },
    {
      "inputs": [],
      "name": "ERC1967NonPayable",
      "type": "error"
    },
    {
      "inputs": [],
      "name": "FailedInnerCall",
      "type": "error"
    },
    {
      "inputs": [],
      "name": "InvalidInitialization",
      "type": "error"
    },
    {
      "inputs": [],
      "name": "NotInitializing",
      "type": "error"
    },
    {
      "inputs": [
        {
          "internalType": "address",
          "name": "owner",
          "type": "address"
        }
      ],
      "name": "OwnableInvalidOwner",
      "type": "error"
    },
    {
      "inputs": [
        {
          "internalType": "address",
          "name": "account",
          "type": "address"
        }
      ],
      "name": "OwnableUnauthorizedAccount",
      "type": "error"
    },
    {
      "inputs": [],
      "name": "UUPSUnauthorizedCallContext",
      "type": "error"
    },
    {
      "inputs": [
        {
          "internalType": "bytes32",
          "name": "slot",
          "type": "bytes32"
        }
      ],
      "name": "UUPSUnsupportedProxiableUUID",
      "type": "error"
    },
    {
      "anonymous": false,
      "inputs": [
        {
          "indexed": false,
          "internalType": "uint64",
          "name": "version",
          "type": "uint64"
        }
      ],
      "name": "Initialized",
      "type": "event"
    },
    {
      "anonymous": false,
      "inputs": [
        {
          "indexed": true,
          "internalType": "address",
          "name": "member",
          "type": "address"
        }
      ],
      "name": "MemberApproved",
      "type": "event"
    },
    {
      "anonymous": false,
      "inputs": [
        {
          "indexed": true,
          "internalType": "address",
          "name": "_newMember",
          "type": "address"
        },
        {
          "indexed": false,
          "internalType": "string",
          "name": "_memberURI",
          "type": "string"
        }
      ],
      "name": "MemberRegistered",
      "type": "event"
    },
    {
      "anonymous": false,
      "inputs": [
        {
          "indexed": true,
          "internalType": "address",
          "name": "previousOwner",
          "type": "address"
        },
        {
          "indexed": true,
          "internalType": "address",
          "name": "newOwner",
          "type": "address"
        }
      ],
      "name": "OwnershipTransferred",
      "type": "event"
    },
    {
      "anonymous": false,
      "inputs": [
        {
          "indexed": true,
          "internalType": "enum FinCubeDAO.ProposalType",
          "name": "proposalType",
          "type": "uint8"
        },
        {
          "indexed": true,
          "internalType": "uint256",
          "name": "proposalId",
          "type": "uint256"
        },
        {
          "indexed": false,
          "internalType": "bytes",
          "name": "data",
          "type": "bytes"
        }
      ],
      "name": "ProposalAdded",
      "type": "event"
    },
    {
      "anonymous": false,
      "inputs": [
        {
          "indexed": true,
          "internalType": "uint256",
          "name": "proposalId",
          "type": "uint256"
        }
      ],
      "name": "ProposalCanceled",
      "type": "event"
    },
    {
      "anonymous": false,
      "inputs": [
        {
          "indexed": false,
          "internalType": "uint256",
          "name": "proposalId",
          "type": "uint256"
        },
        {
          "indexed": false,
          "internalType": "address",
          "name": "proposer",
          "type": "address"
        },
        {
          "indexed": false,
          "internalType": "address[]",
          "name": "targets",
          "type": "address[]"
        },
        {
          "indexed": false,
          "internalType": "uint256[]",
          "name": "values",
          "type": "uint256[]"
        },
        {
          "indexed": false,
          "internalType": "string[]",
          "name": "signatures",
          "type": "string[]"
        },
        {
          "indexed": false,
          "internalType": "bytes[]",
          "name": "calldatas",
          "type": "bytes[]"
        },
        {
          "indexed": false,
          "internalType": "uint256",
          "name": "voteStart",
          "type": "uint256"
        },
        {
          "indexed": false,
          "internalType": "uint256",
          "name": "voteEnd",
          "type": "uint256"
        },
        {
          "indexed": false,
          "internalType": "string",
          "name": "description",
          "type": "string"
        }
      ],
      "name": "ProposalCreated",
      "type": "event"
    },
    {
      "anonymous": false,
      "inputs": [
        {
          "indexed": true,
          "internalType": "uint256",
          "name": "proposalId",
          "type": "uint256"
        }
      ],
      "name": "ProposalExecuted",
      "type": "event"
    },
    {
      "anonymous": false,
      "inputs": [
        {
          "indexed": true,
          "internalType": "address",
          "name": "implementation",
          "type": "address"
        }
      ],
      "name": "Upgraded",
      "type": "event"
    },
    {
      "anonymous": false,
      "inputs": [
        {
          "indexed": true,
          "internalType": "address",
          "name": "voter",
          "type": "address"
        },
        {
          "indexed": false,
          "internalType": "uint256",
          "name": "proposalId",
          "type": "uint256"
        },
        {
          "indexed": false,
          "internalType": "uint8",
          "name": "support",
          "type": "uint8"
        },
        {
          "indexed": false,
          "internalType": "uint256",
          "name": "weight",
          "type": "uint256"
        },
        {
          "indexed": false,
          "internalType": "string",
          "name": "reason",
          "type": "string"
        }
      ],
      "name": "VoteCast",
      "type": "event"
    },
    {
      "inputs": [],
      "name": "UPGRADE_INTERFACE_VERSION",
      "outputs": [
        {
          "internalType": "string",
          "name": "",
          "type": "string"
        }
      ],
      "stateMutability": "view",
      "type": "function"
    },
    {
      "inputs": [
        {
          "internalType": "uint256",
          "name": "proposalId",
          "type": "uint256"
        }
      ],
      "name": "cancelProposal",
      "outputs": [],
      "stateMutability": "nonpayable",
      "type": "function"
    },
    {
      "inputs": [
        {
          "internalType": "uint256",
          "name": "proposalId",
          "type": "uint256"
        },
        {
          "internalType": "bool",
          "name": "support",
          "type": "bool"
        }
      ],
      "name": "castVote",
      "outputs": [],
      "stateMutability": "nonpayable",
      "type": "function"
    },
    {
      "inputs": [
        {
          "internalType": "address",
          "name": "_member",
          "type": "address"
        }
      ],
      "name": "checkIsMemberApproved",
      "outputs": [
        {
          "internalType": "bool",
          "name": "",
          "type": "bool"
        }
      ],
      "stateMutability": "view",
      "type": "function"
    },
    {
      "inputs": [],
      "name": "daoURI",
      "outputs": [
        {
          "internalType": "string",
          "name": "",
          "type": "string"
        }
      ],
      "stateMutability": "view",
      "type": "function"
    },
    {
      "inputs": [
        {
          "internalType": "uint256",
          "name": "proposalId",
          "type": "uint256"
        }
      ],
      "name": "executeProposal",
      "outputs": [],
      "stateMutability": "nonpayable",
      "type": "function"
    },
    {
      "inputs": [],
      "name": "getOngoingProposals",
      "outputs": [
        {
          "components": [
            {
              "internalType": "bool",
              "name": "executed",
              "type": "bool"
            },
            {
              "internalType": "bool",
              "name": "canceled",
              "type": "bool"
            },
            {
              "internalType": "address",
              "name": "proposer",
              "type": "address"
            },
            {
              "internalType": "bytes",
              "name": "data",
              "type": "bytes"
            },
            {
              "internalType": "address",
              "name": "target",
              "type": "address"
            },
            {
              "internalType": "uint48",
              "name": "voteStart",
              "type": "uint48"
            },
            {
              "internalType": "uint48",
              "name": "voteDuration",
              "type": "uint48"
            },
            {
              "internalType": "uint256",
              "name": "yesvotes",
              "type": "uint256"
            },
            {
              "internalType": "uint256",
              "name": "novotes",
              "type": "uint256"
            },
            {
              "internalType": "string",
              "name": "proposalURI",
              "type": "string"
            },
            {
              "internalType": "uint256",
              "name": "proposalId",
              "type": "uint256"
            }
          ],
          "internalType": "struct FinCubeDAO.Proposal[]",
          "name": "",
          "type": "tuple[]"
        }
      ],
      "stateMutability": "view",
      "type": "function"
    },
    {
      "inputs": [
        {
          "internalType": "uint256",
          "name": "proposalId",
          "type": "uint256"
        }
      ],
      "name": "getProposalsById",
      "outputs": [
        {
          "components": [
            {
              "internalType": "bool",
              "name": "executed",
              "type": "bool"
            },
            {
              "internalType": "bool",
              "name": "canceled",
              "type": "bool"
            },
            {
              "internalType": "address",
              "name": "proposer",
              "type": "address"
            },
            {
              "internalType": "bytes",
              "name": "data",
              "type": "bytes"
            },
            {
              "internalType": "address",
              "name": "target",
              "type": "address"
            },
            {
              "internalType": "uint48",
              "name": "voteStart",
              "type": "uint48"
            },
            {
              "internalType": "uint48",
              "name": "voteDuration",
              "type": "uint48"
            },
            {
              "internalType": "uint256",
              "name": "yesvotes",
              "type": "uint256"
            },
            {
              "internalType": "uint256",
              "name": "novotes",
              "type": "uint256"
            },
            {
              "internalType": "string",
              "name": "proposalURI",
              "type": "string"
            },
            {
              "internalType": "uint256",
              "name": "proposalId",
              "type": "uint256"
            }
          ],
          "internalType": "struct FinCubeDAO.Proposal",
          "name": "proposal",
          "type": "tuple"
        }
      ],
      "stateMutability": "view",
      "type": "function"
    },
    {
      "inputs": [
        {
          "internalType": "uint256",
          "name": "cursor",
          "type": "uint256"
        },
        {
          "internalType": "uint256",
          "name": "howMany",
          "type": "uint256"
        }
      ],
      "name": "getProposalsByPage",
      "outputs": [
        {
          "components": [
            {
              "internalType": "bool",
              "name": "executed",
              "type": "bool"
            },
            {
              "internalType": "bool",
              "name": "canceled",
              "type": "bool"
            },
            {
              "internalType": "address",
              "name": "proposer",
              "type": "address"
            },
            {
              "internalType": "bytes",
              "name": "data",
              "type": "bytes"
            },
            {
              "internalType": "address",
              "name": "target",
              "type": "address"
            },
            {
              "internalType": "uint48",
              "name": "voteStart",
              "type": "uint48"
            },
            {
              "internalType": "uint48",
              "name": "voteDuration",
              "type": "uint48"
            },
            {
              "internalType": "uint256",
              "name": "yesvotes",
              "type": "uint256"
            },
            {
              "internalType": "uint256",
              "name": "novotes",
              "type": "uint256"
            },
            {
              "internalType": "string",
              "name": "proposalURI",
              "type": "string"
            },
            {
              "internalType": "uint256",
              "name": "proposalId",
              "type": "uint256"
            }
          ],
          "internalType": "struct FinCubeDAO.Proposal[]",
          "name": "paginateProposals",
          "type": "tuple[]"
        },
        {
          "internalType": "uint256",
          "name": "newCursor",
          "type": "uint256"
        }
      ],
      "stateMutability": "view",
      "type": "function"
    },
    {
      "inputs": [
        {
          "internalType": "enum FinCubeDAO.ProposalType",
          "name": "proposalTypeFilter",
          "type": "uint8"
        }
      ],
      "name": "getProposalsByType",
      "outputs": [
        {
          "components": [
            {
              "internalType": "bool",
              "name": "executed",
              "type": "bool"
            },
            {
              "internalType": "bool",
              "name": "canceled",
              "type": "bool"
            },
            {
              "internalType": "address",
              "name": "proposer",
              "type": "address"
            },
            {
              "internalType": "bytes",
              "name": "data",
              "type": "bytes"
            },
            {
              "internalType": "address",
              "name": "target",
              "type": "address"
            },
            {
              "internalType": "uint48",
              "name": "voteStart",
              "type": "uint48"
            },
            {
              "internalType": "uint48",
              "name": "voteDuration",
              "type": "uint48"
            },
            {
              "internalType": "uint256",
              "name": "yesvotes",
              "type": "uint256"
            },
            {
              "internalType": "uint256",
              "name": "novotes",
              "type": "uint256"
            },
            {
              "internalType": "string",
              "name": "proposalURI",
              "type": "string"
            },
            {
              "internalType": "uint256",
              "name": "proposalId",
              "type": "uint256"
            }
          ],
          "internalType": "struct FinCubeDAO.Proposal[]",
          "name": "proposalsByType",
          "type": "tuple[]"
        }
      ],
      "stateMutability": "view",
      "type": "function"
    },
    {
      "inputs": [
        {
          "internalType": "string",
          "name": "_daoURI",
          "type": "string"
        },
        {
          "internalType": "string",
          "name": "_ownerURI",
          "type": "string"
        }
      ],
      "name": "initialize",
      "outputs": [],
      "stateMutability": "nonpayable",
      "type": "function"
    },
    {
      "inputs": [],
      "name": "memberCount",
      "outputs": [
        {
          "internalType": "uint256",
          "name": "",
          "type": "uint256"
        }
      ],
      "stateMutability": "view",
      "type": "function"
    },
    {
      "inputs": [
        {
          "internalType": "address",
          "name": "_newMember",
          "type": "address"
        },
        {
          "internalType": "string",
          "name": "description",
          "type": "string"
        }
      ],
      "name": "newMemberApprovalProposal",
      "outputs": [],
      "stateMutability": "nonpayable",
      "type": "function"
    },
    {
      "inputs": [],
      "name": "owner",
      "outputs": [
        {
          "internalType": "address",
          "name": "",
          "type": "address"
        }
      ],
      "stateMutability": "view",
      "type": "function"
    },
    {
      "inputs": [],
      "name": "proposalCount",
      "outputs": [
        {
          "internalType": "uint256",
          "name": "",
          "type": "uint256"
        }
      ],
      "stateMutability": "view",
      "type": "function"
    },
    {
      "inputs": [],
      "name": "proposalThreshold",
      "outputs": [
        {
          "internalType": "uint256",
          "name": "threshold",
          "type": "uint256"
        }
      ],
      "stateMutability": "view",
      "type": "function"
    },
    {
      "inputs": [
        {
          "internalType": "address[]",
          "name": "targets",
          "type": "address[]"
        },
        {
          "internalType": "uint256[]",
          "name": "values",
          "type": "uint256[]"
        },
        {
          "internalType": "bytes[]",
          "name": "calldatas",
          "type": "bytes[]"
        },
        {
          "internalType": "string",
          "name": "description",
          "type": "string"
        }
      ],
      "name": "propose",
      "outputs": [
        {
          "internalType": "uint256",
          "name": "proposalId",
          "type": "uint256"
        }
      ],
      "stateMutability": "nonpayable",
      "type": "function"
    },
    {
      "inputs": [],
      "name": "proxiableUUID",
      "outputs": [
        {
          "internalType": "bytes32",
          "name": "",
          "type": "bytes32"
        }
      ],
      "stateMutability": "view",
      "type": "function"
    },
    {
      "inputs": [
        {
          "internalType": "address",
          "name": "_newMember",
          "type": "address"
        },
        {
          "internalType": "string",
          "name": "_memberURI",
          "type": "string"
        }
      ],
      "name": "registerMember",
      "outputs": [],
      "stateMutability": "nonpayable",
      "type": "function"
    },
    {
      "inputs": [],
      "name": "renounceOwnership",
      "outputs": [],
      "stateMutability": "nonpayable",
      "type": "function"
    },
    {
      "inputs": [],
      "name": "resetMembers",
      "outputs": [],
      "stateMutability": "nonpayable",
      "type": "function"
    },
    {
      "inputs": [
        {
          "internalType": "uint256",
          "name": "_votingDelay",
          "type": "uint256"
        }
      ],
      "name": "setVotingDelay",
      "outputs": [],
      "stateMutability": "nonpayable",
      "type": "function"
    },
    {
      "inputs": [
        {
          "internalType": "uint256",
          "name": "_votingPeriod",
          "type": "uint256"
        }
      ],
      "name": "setVotingPeriod",
      "outputs": [],
      "stateMutability": "nonpayable",
      "type": "function"
    },
    {
      "inputs": [
        {
          "internalType": "address",
          "name": "newOwner",
          "type": "address"
        }
      ],
      "name": "transferOwnership",
      "outputs": [],
      "stateMutability": "nonpayable",
      "type": "function"
    },
    {
      "inputs": [
        {
          "internalType": "address",
          "name": "newImplementation",
          "type": "address"
        },
        {
          "internalType": "bytes",
          "name": "data",
          "type": "bytes"
        }
      ],
      "name": "upgradeToAndCall",
      "outputs": [],
      "stateMutability": "payable",
      "type": "function"
    },
    {
      "inputs": [],
      "name": "votingDelay",
      "outputs": [
        {
          "internalType": "uint256",
          "name": "",
          "type": "uint256"
        }
      ],
      "stateMutability": "view",
      "type": "function"
    },
    {
      "inputs": [],
      "name": "votingPeriod",
      "outputs": [
        {
          "internalType": "uint256",
          "name": "",
          "type": "uint256"
        }
      ],
      "stateMutability": "view",
      "type": "function"
    }
  ],
  "bytecode": "0x60a06040523060805234801561001457600080fd5b50608051613b6261003e60003960008181612a4601528181612a6f0152612bf20152613b626000f3fe6080604052600436106101ac5760003560e01c806370b0f660116100ec578063b58131b01161008a578063e0a8f6f511610064578063e0a8f6f5146104b7578063ea0217cf146104d7578063f2fde38b146104f7578063ff4b048e1461051757600080fd5b8063b58131b01461045c578063cfbc02d414610471578063da35c664146104a157600080fd5b80638da5cb5b116100c65780638da5cb5b146103a257806398641e96146103e9578063ad3cb1cc146103fe578063afe666f61461044757600080fd5b806370b0f6601461034d578063715018a61461036d5780637d5e81e21461038257600080fd5b80633932abb11161015957806352d1902d1161013357806352d1902d146102bb57806353b50594146102d05780635643a8b8146102fd5780637034731b1461032b57600080fd5b80633932abb1146102725780634cd88b76146102885780634f1ef286146102a857600080fd5b80630da858521161018a5780630da858521461021c57806311aee3801461023c57806315373e3d1461025257600080fd5b806302a251a3146101b15780630aa5adfc146101da5780630d61b519146101fc575b600080fd5b3480156101bd57600080fd5b506101c760095481565b6040519081526020015b60405180910390f35b3480156101e657600080fd5b506101fa6101f53660046130f6565b610544565b005b34801561020857600080fd5b506101fa610217366004613144565b610656565b34801561022857600080fd5b506101fa6102373660046130f6565b610a01565b34801561024857600080fd5b506101c760005481565b34801561025e57600080fd5b506101fa61026d36600461315d565b610e68565b34801561027e57600080fd5b506101c760085481565b34801561029457600080fd5b506101fa6102a3366004613192565b611117565b6101fa6102b63660046130f6565b6112ba565b3480156102c757600080fd5b506101c76112d5565b3480156102dc57600080fd5b506102f06102eb3660046131ec565b611304565b6040516101d1919061339b565b34801561030957600080fd5b5061031d6103183660046133ae565b611733565b6040516101d19291906133d0565b34801561033757600080fd5b50610340611a25565b6040516101d191906133f2565b34801561035957600080fd5b506101fa610368366004613144565b611ab3565b34801561037957600080fd5b506101fa611ac0565b34801561038e57600080fd5b506101c761039d366004613514565b611ad4565b3480156103ae57600080fd5b507f9016d09d72d40fdae2fd8ceac6b6234c7706214fd39c1cd1e609a0528c199300546040516001600160a01b0390911681526020016101d1565b3480156103f557600080fd5b506101fa611f2d565b34801561040a57600080fd5b506103406040518060400160405280600581526020017f352e302e3000000000000000000000000000000000000000000000000000000081525081565b34801561045357600080fd5b506102f061204c565b34801561046857600080fd5b506101c761239a565b34801561047d57600080fd5b5061049161048c36600461361d565b6123bc565b60405190151581526020016101d1565b3480156104ad57600080fd5b506101c760015481565b3480156104c357600080fd5b506101fa6104d2366004613144565b6124a5565b3480156104e357600080fd5b506101fa6104f2366004613144565b612680565b34801561050357600080fd5b506101fa61051236600461361d565b61268d565b34801561052357600080fd5b50610537610532366004613144565b6126e4565b6040516101d19190613638565b6001600160a01b0382166000908152600460205260408120600101805461056a9061364b565b905011156105bf5760405162461bcd60e51b815260206004820152601060248201527f416c72656164792061206d656d6265720000000000000000000000000000000060448201526064015b60405180910390fd5b604080518082018252600080825260208083018581526001600160a01b038716835260049091529290208151815460ff1916901515178155915190918291600182019061060c90826136cd565b50905050826001600160a01b03167f3b09349069a59bcde8c2609afc86c80b77c81085ac8cd8662981621f7ea3574b8360405161064991906133f2565b60405180910390a2505050565b60008181526005602052604090206002810154600160a01b900465ffffffffffff164211801561069857506002810154600160d01b900465ffffffffffff1642105b156106e55760405162461bcd60e51b815260206004820152601560248201527f566f74696e67207374696c6c20676f696e67206f6e000000000000000000000060448201526064016105b6565b805460ff161580156106fe57508054610100900460ff16155b6107585760405162461bcd60e51b815260206004820152602560248201527f50726f706f73616c20616c7265616479206578656375746564206f722063616e60448201526418d95b195960da1b60648201526084016105b6565b600161076261239a565b61076c91906137a3565b8160030154116107e45760405162461bcd60e51b815260206004820152602360248201527f50726f706f73616c20646f65736e27742068617665206d616a6f72697479207660448201527f6f7465000000000000000000000000000000000000000000000000000000000060648201526084016105b6565b60008281526007602052604081205460ff166001811115610807576108076137b6565b036108e5576108ab6108a68260010180546108219061364b565b80601f016020809104026020016040519081016040528092919081815260200182805461084d9061364b565b801561089a5780601f1061086f5761010080835404028352916020019161089a565b820191906000526020600020905b81548152906001019060200180831161087d57829003601f168201915b50505050506014015190565b612965565b805460ff1916600117815560405182907f712ae1383f79ac853f8d882153778e0260ef8f03b504e2866e0593e04d2b291f90600090a25050565b600160008381526007602052604090205460ff16600181111561090a5761090a6137b6565b036109fd5760028101546040516000916001600160a01b0316906109329060018501906137cc565b6000604051808303816000865af19150503d806000811461096f576040519150601f19603f3d011682016040523d82523d6000602084013e610974565b606091505b50509050806109c55760405162461bcd60e51b815260206004820152601960248201527f50726f706f73616c20657865637574696f6e206661696c65640000000000000060448201526064016105b6565b815460ff1916600117825560405183907f712ae1383f79ac853f8d882153778e0260ef8f03b504e2866e0593e04d2b291f90600090a2505b5050565b3360008181526004602052604081206001018054610a1e9061364b565b905011610a5c5760405162461bcd60e51b815260206004820152600c60248201526b2737ba10309036b2b6b132b960a11b60448201526064016105b6565b6001600160a01b03811660009081526004602052604090205460ff161515600114610abf5760405162461bcd60e51b815260206004820152601360248201527213595b58995c881b9bdd08185c1c1c9bdd9959606a1b60448201526064016105b6565b6001600160a01b0383166000908152600460205260408120600101805485929190610ae99061364b565b905011610b385760405162461bcd60e51b815260206004820152601660248201527f4e6f7420616e206578697374696e67206d656d6265720000000000000000000060448201526064016105b6565b600060085411610b8a5760405162461bcd60e51b815260206004820152601760248201527f566f74696e672064656c6179206973206e6f742073657400000000000000000060448201526064016105b6565b600060095411610bdc5760405162461bcd60e51b815260206004820152601860248201527f566f74696e6720706572696f64206973206e6f7420736574000000000000000060448201526064016105b6565b6008544290600090610bee9083613842565b9050600060095482610c009190613842565b604080516bffffffffffffffffffffffff1960608b901b166020820152815160148183030181526034909101909152909150604051806101600160405280600015158152602001600015158152602001336001600160a01b0316815260200182815260200161dead6001600160a01b031681526020018465ffffffffffff1681526020018365ffffffffffff168152602001600081526020016000815260200188815260200160015481525060056000600154815260200190815260200160002060008201518160000160006101000a81548160ff02191690831515021790555060208201518160000160016101000a81548160ff02191690831515021790555060408201518160000160026101000a8154816001600160a01b0302191690836001600160a01b031602179055506060820151816001019081610d4391906136cd565b50608082015160028201805460a085015160c08601516001600160a01b039094167fffffffffffff000000000000000000000000000000000000000000000000000090921691909117600160a01b65ffffffffffff928316021779ffffffffffffffffffffffffffffffffffffffffffffffffffff16600160d01b919093160291909117905560e0820151600382015561010082015160048201556101208201516005820190610df390826136cd565b50610140919091015160069091015560018054600090815260076020526040808220805460ff19169055915491517fa7111a86c2f98a3baf7875ce595b4575567bb709a32769f65176d6e1cbed526e90610e4e9085906133f2565b60405180910390a350506001805481019055505050505050565b3360008181526004602052604081206001018054610e859061364b565b905011610ec35760405162461bcd60e51b815260206004820152600c60248201526b2737ba10309036b2b6b132b960a11b60448201526064016105b6565b6001600160a01b03811660009081526004602052604090205460ff161515600114610f265760405162461bcd60e51b815260206004820152601360248201527213595b58995c881b9bdd08185c1c1c9bdd9959606a1b60448201526064016105b6565b600083815260066020908152604080832060059092529091206002810154600160a01b900465ffffffffffff1642118015610f7357506002810154600160d01b900465ffffffffffff1642105b610fe55760405162461bcd60e51b815260206004820152602260248201527f566f74696e67206973206e6f7420616c6c6f776564206174207468697320746960448201527f6d6500000000000000000000000000000000000000000000000000000000000060648201526084016105b6565b3360009081526020839052604090205460ff16158015611017575033600090815260018301602052604090205460ff16155b6110635760405162461bcd60e51b815260206004820152601f60248201527f416c726561647920766f74656420666f7220746869732070726f706f73616c0060448201526064016105b6565b8315611096576003810180546001908101909155336000908152602084905260409020805460ff191690911790556110c0565b600481018054600190810190915533600090815283820160205260409020805460ff191690911790555b337fb8e138887d0aa13bab447e82de9d5c1777041ecd21ca36ba824ff1e6c07ddda486866110ef5760006110f2565b60015b6000856005016040516111089493929190613868565b60405180910390a25050505050565b7ff0c57e16840df040f15088dc2f81fe391c3923bec73e23a9662efc9c229c6a00805468010000000000000000810460ff16159067ffffffffffffffff166000811580156111625750825b905060008267ffffffffffffffff16600114801561117f5750303b155b90508115801561118d575080155b156111c4576040517ff92ee8a900000000000000000000000000000000000000000000000000000000815260040160405180910390fd5b845467ffffffffffffffff1916600117855583156111f857845468ff00000000000000001916680100000000000000001785555b61120133612a22565b611209612a33565b604080518082018252602080820189815260018084523360009081526004909352939091208251815460ff19169015151781559051919283929082019061125090826136cd565b5050600160005550600261126489826136cd565b505083156112b157845468ff000000000000000019168555604051600181527fc7f505b2f371ae2175ee4913f4499e1f2633a7b5936321eed1cdaeb6115181d29060200160405180910390a15b50505050505050565b6112c2612a3b565b6112cb82612af2565b6109fd8282612afa565b60006112df612be7565b507f360894a13ba1a3210667c828492db98dca3e2076cc3735a920a3ca505d382bbc90565b33600081815260046020526040812060010180546060939291906113279061364b565b9050116113655760405162461bcd60e51b815260206004820152600c60248201526b2737ba10309036b2b6b132b960a11b60448201526064016105b6565b6001600160a01b03811660009081526004602052604090205460ff1615156001146113c85760405162461bcd60e51b815260206004820152601360248201527213595b58995c881b9bdd08185c1c1c9bdd9959606a1b60448201526064016105b6565b6000805b600154811015611430578460018111156113e8576113e86137b6565b60008281526007602052604090205460ff16600181111561140b5761140b6137b6565b0361141e578161141a8161390c565b9250505b806114288161390c565b9150506113cc565b508067ffffffffffffffff81111561144a5761144a61303f565b6040519080825280602002602001820160405280156114d057816020015b60408051610160810182526000808252602080830182905292820181905260608083018190526080830182905260a0830182905260c0830182905260e08301829052610100830182905261012083015261014082015282526000199092019101816114685790505b5092506000805b60015481101561172a578560018111156114f3576114f36137b6565b60008281526007602052604090205460ff166001811115611516576115166137b6565b0361171857600081815260056020908152604091829020825161016081018452815460ff80821615158352610100820416151593820193909352620100009092046001600160a01b03169282019290925260018201805491929160608401919061157f9061364b565b80601f01602080910402602001604051908101604052809291908181526020018280546115ab9061364b565b80156115f85780601f106115cd576101008083540402835291602001916115f8565b820191906000526020600020905b8154815290600101906020018083116115db57829003601f168201915b505050918352505060028201546001600160a01b038116602083015265ffffffffffff600160a01b820481166040840152600160d01b90910416606082015260038201546080820152600482015460a082015260058201805460c0909201916116609061364b565b80601f016020809104026020016040519081016040528092919081815260200182805461168c9061364b565b80156116d95780601f106116ae576101008083540402835291602001916116d9565b820191906000526020600020905b8154815290600101906020018083116116bc57829003601f168201915b505050505081526020016006820154815250508583815181106116fe576116fe613925565b602002602001018190525081806117149061390c565b9250505b806117228161390c565b9150506114d7565b50505050919050565b606060008267ffffffffffffffff8111156117505761175061303f565b6040519080825280602002602001820160405280156117d657816020015b60408051610160810182526000808252602080830182905292820181905260608083018190526080830182905260a0830182905260c0830182905260e083018290526101008301829052610120830152610140820152825260001990920191018161176e5790505b50805190925083906117e99086906137a3565b811115611800578483516117fd91906137a3565b90505b60005b81811015611a0d5760056000611819838961393b565b81526020808201929092526040908101600020815161016081018352815460ff80821615158352610100820416151594820194909452620100009093046001600160a01b03169183019190915260018101805460608401919061187b9061364b565b80601f01602080910402602001604051908101604052809291908181526020018280546118a79061364b565b80156118f45780601f106118c9576101008083540402835291602001916118f4565b820191906000526020600020905b8154815290600101906020018083116118d757829003601f168201915b505050918352505060028201546001600160a01b038116602083015265ffffffffffff600160a01b820481166040840152600160d01b90910416606082015260038201546080820152600482015460a082015260058201805460c09092019161195c9061364b565b80601f01602080910402602001604051908101604052809291908181526020018280546119889061364b565b80156119d55780601f106119aa576101008083540402835291602001916119d5565b820191906000526020600020905b8154815290600101906020018083116119b857829003601f168201915b505050505081526020016006820154815250508482815181106119fa576119fa613925565b6020908102919091010152600101611803565b5082611a19828761393b565b92509250509250929050565b60028054611a329061364b565b80601f0160208091040260200160405190810160405280929190818152602001828054611a5e9061364b565b8015611aab5780601f10611a8057610100808354040283529160200191611aab565b820191906000526020600020905b815481529060010190602001808311611a8e57829003601f168201915b505050505081565b611abb612c30565b600855565b611ac8612c30565b611ad26000612ca4565b565b3360008181526004602052604081206001018054919291839190611af79061364b565b905011611b355760405162461bcd60e51b815260206004820152600c60248201526b2737ba10309036b2b6b132b960a11b60448201526064016105b6565b6001600160a01b03811660009081526004602052604090205460ff161515600114611b985760405162461bcd60e51b815260206004820152601360248201527213595b58995c881b9bdd08185c1c1c9bdd9959606a1b60448201526064016105b6565b600060085411611bea5760405162461bcd60e51b815260206004820152601760248201527f566f74696e672064656c6179206973206e6f742073657400000000000000000060448201526064016105b6565b600060095411611c3c5760405162461bcd60e51b815260206004820152601860248201527f566f74696e6720706572696f64206973206e6f7420736574000000000000000060448201526064016105b6565b6008544290600090611c4e9083613842565b9050600060095482611c609190613842565b90506001549450604051806101600160405280600015158152602001600015158152602001336001600160a01b0316815260200188600081518110611ca757611ca7613925565b602002602001015181526020018a600081518110611cc757611cc7613925565b6020908102919091018101516001600160a01b03908116835265ffffffffffff868116848401528516604080850191909152600060608086018290526080860182905260a086018d90526001805460c0909701879052958252600585529082902086518154958801519388015161ffff1990961690151561ff0019161761010093151593909302929092177fffffffffffffffffffff0000000000000000000000000000000000000000ffff16620100009490931693909302919091178155908301519091820190611d9990826136cd565b50608082015160028201805460a085015160c08601516001600160a01b039094167fffffffffffff000000000000000000000000000000000000000000000000000090921691909117600160a01b65ffffffffffff928316021779ffffffffffffffffffffffffffffffffffffffffffffffffffff16600160d01b919093160291909117905560e0820151600382015561010082015160048201556101208201516005820190611e4990826136cd565b506101409190910151600690910155600180546000908152600760205260409020805460ff19168280021790555060018054907fa7111a86c2f98a3baf7875ce595b4575567bb709a32769f65176d6e1cbed526e89600081518110611eb057611eb0613925565b6020026020010151604051611ec591906133f2565b60405180910390a360607f7d84a6263ae0d98d3329bd7b46bb4e8d6f98cd35a7adb45c274c8b7fd5ebd5e0600154338c8c858d89898f604051611f10999897969594939291906139d1565b60405180910390a150506001805481019055505050949350505050565b611f35612c30565b600354805b80156120435760006003611f4f6001846137a3565b81548110611f5f57611f5f613925565b6000918252602090912001546001600160a01b03169050611fa77f9016d09d72d40fdae2fd8ceac6b6234c7706214fd39c1cd1e609a0528c199300546001600160a01b031690565b6001600160a01b0316816001600160a01b031614612030576001600160a01b0381166000908152600460205260408120805460ff1916815590611fed6001830182612fd5565b5050600380548061200057612000613aa8565b6000828152602090208101600019908101805473ffffffffffffffffffffffffffffffffffffffff191690550190555b508061203b81613abe565b915050611f3a565b50506001600055565b60015460609060008167ffffffffffffffff81111561206d5761206d61303f565b6040519080825280602002602001820160405280156120f357816020015b60408051610160810182526000808252602080830182905292820181905260608083018190526080830182905260a0830182905260c0830182905260e083018290526101008301829052610120830152610140820152825260001990920191018161208b5790505b509050426000805b6001548110156123905760008181526005602052604090205460ff161580156121385750600081815260056020526040902054610100900460ff16155b80156121635750600081815260056020526040902060020154600160a01b900465ffffffffffff1683115b801561218e5750600081815260056020526040902060020154600160d01b900465ffffffffffff1683105b1561238857600081815260056020908152604091829020825161016081018452815460ff80821615158352610100820416151593820193909352620100009092046001600160a01b0316928201929092526001820180549192916060840191906121f79061364b565b80601f01602080910402602001604051908101604052809291908181526020018280546122239061364b565b80156122705780601f1061224557610100808354040283529160200191612270565b820191906000526020600020905b81548152906001019060200180831161225357829003601f168201915b505050918352505060028201546001600160a01b038116602083015265ffffffffffff600160a01b820481166040840152600160d01b90910416606082015260038201546080820152600482015460a082015260058201805460c0909201916122d89061364b565b80601f01602080910402602001604051908101604052809291908181526020018280546123049061364b565b80156123515780601f1061232657610100808354040283529160200191612351565b820191906000526020600020905b81548152906001019060200180831161233457829003601f168201915b5050505050815260200160068201548152505084838151811061237657612376613925565b60209081029190910101526001909101905b6001016120fb565b5091949350505050565b6000600260005460016123ad919061393b565b6123b79190613ad5565b905090565b33600081815260046020526040812060010180549192918391906123df9061364b565b90501161241d5760405162461bcd60e51b815260206004820152600c60248201526b2737ba10309036b2b6b132b960a11b60448201526064016105b6565b6001600160a01b03811660009081526004602052604090205460ff1615156001146124805760405162461bcd60e51b815260206004820152601360248201527213595b58995c881b9bdd08185c1c1c9bdd9959606a1b60448201526064016105b6565b6001600160a01b03831660009081526004602052604090205460ff1691505b50919050565b33600081815260046020526040812060010180546124c29061364b565b9050116125005760405162461bcd60e51b815260206004820152600c60248201526b2737ba10309036b2b6b132b960a11b60448201526064016105b6565b6001600160a01b03811660009081526004602052604090205460ff1615156001146125635760405162461bcd60e51b815260206004820152601360248201527213595b58995c881b9bdd08185c1c1c9bdd9959606a1b60448201526064016105b6565b600082815260056020526040902080546201000090046001600160a01b031633146125d05760405162461bcd60e51b815260206004820181905260248201527f4e6f207065726d697373696f6e20746f2063616e63656c2070726f706f73616c60448201526064016105b6565b805460ff161580156125e957508054610100900460ff16155b6126435760405162461bcd60e51b815260206004820152602560248201527f50726f706f73616c20616c7265616479206578656375746564206f722063616e60448201526418d95b195960da1b60648201526084016105b6565b805461ff00191661010017815560405183907f789cf55be980739dad1d0699b93b58e806b51c9d96619bfa8fe0a28abaa7b30c90600090a2505050565b612688612c30565b600955565b612695612c30565b6001600160a01b0381166126d8576040517f1e4fbdf7000000000000000000000000000000000000000000000000000000008152600060048201526024016105b6565b6126e181612ca4565b50565b604080516101608101825260008082526020820181905291810182905260608082018190526080820183905260a0820183905260c0820183905260e082018390526101008201839052610120820152610140810191909152600154821061278d5760405162461bcd60e51b815260206004820152601360248201527f496e76616c69642070726f706f73616c2049440000000000000000000000000060448201526064016105b6565b600082815260056020908152604091829020825161016081018452815460ff80821615158352610100820416151593820193909352620100009092046001600160a01b0316928201929092526001820180549192916060840191906127f19061364b565b80601f016020809104026020016040519081016040528092919081815260200182805461281d9061364b565b801561286a5780601f1061283f5761010080835404028352916020019161286a565b820191906000526020600020905b81548152906001019060200180831161284d57829003601f168201915b505050918352505060028201546001600160a01b038116602083015265ffffffffffff600160a01b820481166040840152600160d01b90910416606082015260038201546080820152600482015460a082015260058201805460c0909201916128d29061364b565b80601f01602080910402602001604051908101604052809291908181526020018280546128fe9061364b565b801561294b5780601f106129205761010080835404028352916020019161294b565b820191906000526020600020905b81548152906001019060200180831161292e57829003601f168201915b505050505081526020016006820154815250509050919050565b6001600160a01b03811660009081526004602052604090205460ff16156129ce5760405162461bcd60e51b815260206004820152601760248201527f4d656d62657220616c726561647920617070726f76656400000000000000000060448201526064016105b6565b6001600160a01b038116600081815260046020526040808220805460ff191660019081179091558254018255517f3da74045128fff0396b39203f81bcedcbcf28586f0f97fb0f41ceb5521566a159190a250565b612a2a612d22565b6126e181612d89565b611ad2612d22565b306001600160a01b037f0000000000000000000000000000000000000000000000000000000000000000161480612ad457507f00000000000000000000000000000000000000000000000000000000000000006001600160a01b0316612ac87f360894a13ba1a3210667c828492db98dca3e2076cc3735a920a3ca505d382bbc546001600160a01b031690565b6001600160a01b031614155b15611ad25760405163703e46dd60e11b815260040160405180910390fd5b6126e1612c30565b816001600160a01b03166352d1902d6040518163ffffffff1660e01b8152600401602060405180830381865afa925050508015612b54575060408051601f3d908101601f19168201909252612b5191810190613af7565b60015b612b7c57604051634c9c8ce360e01b81526001600160a01b03831660048201526024016105b6565b7f360894a13ba1a3210667c828492db98dca3e2076cc3735a920a3ca505d382bbc8114612bd8576040517faa1d49a4000000000000000000000000000000000000000000000000000000008152600481018290526024016105b6565b612be28383612d91565b505050565b306001600160a01b037f00000000000000000000000000000000000000000000000000000000000000001614611ad25760405163703e46dd60e11b815260040160405180910390fd5b33612c627f9016d09d72d40fdae2fd8ceac6b6234c7706214fd39c1cd1e609a0528c199300546001600160a01b031690565b6001600160a01b031614611ad2576040517f118cdaa70000000000000000000000000000000000000000000000000000000081523360048201526024016105b6565b7f9016d09d72d40fdae2fd8ceac6b6234c7706214fd39c1cd1e609a0528c199300805473ffffffffffffffffffffffffffffffffffffffff1981166001600160a01b03848116918217845560405192169182907f8be0079c531659141344cd1fd0a4f28419497f9722a3daafe3b4186f6b6457e090600090a3505050565b7ff0c57e16840df040f15088dc2f81fe391c3923bec73e23a9662efc9c229c6a005468010000000000000000900460ff16611ad2576040517fd7e6bcf800000000000000000000000000000000000000000000000000000000815260040160405180910390fd5b612695612d22565b612d9a82612de7565b6040516001600160a01b038316907fbc7cd75a20ee27fd9adebab32041f755214dbc6bffa90cc0225b39da2e5c2d3b90600090a2805115612ddf57612be28282612e6b565b6109fd612ee3565b806001600160a01b03163b600003612e1d57604051634c9c8ce360e01b81526001600160a01b03821660048201526024016105b6565b7f360894a13ba1a3210667c828492db98dca3e2076cc3735a920a3ca505d382bbc805473ffffffffffffffffffffffffffffffffffffffff19166001600160a01b0392909216919091179055565b6060600080846001600160a01b031684604051612e889190613b10565b600060405180830381855af49150503d8060008114612ec3576040519150601f19603f3d011682016040523d82523d6000602084013e612ec8565b606091505b5091509150612ed8858383612f1b565b925050505b92915050565b3415611ad2576040517fb398979f00000000000000000000000000000000000000000000000000000000815260040160405180910390fd5b606082612f3057612f2b82612f93565b612f8c565b8151158015612f4757506001600160a01b0384163b155b15612f89576040517f9996b3150000000000000000000000000000000000000000000000000000000081526001600160a01b03851660048201526024016105b6565b50805b9392505050565b805115612fa35780518082602001fd5b6040517f1425ea4200000000000000000000000000000000000000000000000000000000815260040160405180910390fd5b508054612fe19061364b565b6000825580601f10612ff1575050565b601f0160209004906000526020600020908101906126e191905b8082111561301f576000815560010161300b565b5090565b80356001600160a01b038116811461303a57600080fd5b919050565b634e487b7160e01b600052604160045260246000fd5b604051601f8201601f1916810167ffffffffffffffff8111828210171561307e5761307e61303f565b604052919050565b600082601f83011261309757600080fd5b813567ffffffffffffffff8111156130b1576130b161303f565b6130c4601f8201601f1916602001613055565b8181528460208386010111156130d957600080fd5b816020850160208301376000918101602001919091529392505050565b6000806040838503121561310957600080fd5b61311283613023565b9150602083013567ffffffffffffffff81111561312e57600080fd5b61313a85828601613086565b9150509250929050565b60006020828403121561315657600080fd5b5035919050565b6000806040838503121561317057600080fd5b823591506020830135801515811461318757600080fd5b809150509250929050565b600080604083850312156131a557600080fd5b823567ffffffffffffffff808211156131bd57600080fd5b6131c986838701613086565b935060208501359150808211156131df57600080fd5b5061313a85828601613086565b6000602082840312156131fe57600080fd5b813560028110612f8c57600080fd5b60005b83811015613228578181015183820152602001613210565b50506000910152565b6000815180845261324981602086016020860161320d565b601f01601f19169290920160200192915050565b8051151582526000610160602083015161327b602086018215159052565b50604083015161329660408601826001600160a01b03169052565b5060608301518160608601526132ae82860182613231565b91505060808301516132cb60808601826001600160a01b03169052565b5060a08301516132e560a086018265ffffffffffff169052565b5060c08301516132ff60c086018265ffffffffffff169052565b5060e083015160e0850152610100808401518186015250610120808401518583038287015261332e8382613231565b61014095860151969095019590955250919392505050565b600081518084526020808501808196508360051b8101915082860160005b8581101561338e57828403895261337c84835161325d565b98850198935090840190600101613364565b5091979650505050505050565b602081526000612f8c6020830184613346565b600080604083850312156133c157600080fd5b50508035926020909101359150565b6040815260006133e36040830185613346565b90508260208301529392505050565b602081526000612f8c6020830184613231565b600067ffffffffffffffff82111561341f5761341f61303f565b5060051b60200190565b600082601f83011261343a57600080fd5b8135602061344f61344a83613405565b613055565b82815260059290921b8401810191818101908684111561346e57600080fd5b8286015b848110156134895780358352918301918301613472565b509695505050505050565b600082601f8301126134a557600080fd5b813560206134b561344a83613405565b82815260059290921b840181019181810190868411156134d457600080fd5b8286015b8481101561348957803567ffffffffffffffff8111156134f85760008081fd5b6135068986838b0101613086565b8452509183019183016134d8565b6000806000806080858703121561352a57600080fd5b843567ffffffffffffffff8082111561354257600080fd5b818701915087601f83011261355657600080fd5b8135602061356661344a83613405565b82815260059290921b8401810191818101908b84111561358557600080fd5b948201945b838610156135aa5761359b86613023565b8252948201949082019061358a565b985050880135925050808211156135c057600080fd5b6135cc88838901613429565b945060408701359150808211156135e257600080fd5b6135ee88838901613494565b9350606087013591508082111561360457600080fd5b5061361187828801613086565b91505092959194509250565b60006020828403121561362f57600080fd5b612f8c82613023565b602081526000612f8c602083018461325d565b600181811c9082168061365f57607f821691505b60208210810361249f57634e487b7160e01b600052602260045260246000fd5b601f821115612be257600081815260208120601f850160051c810160208610156136a65750805b601f850160051c820191505b818110156136c5578281556001016136b2565b505050505050565b815167ffffffffffffffff8111156136e7576136e761303f565b6136fb816136f5845461364b565b8461367f565b602080601f83116001811461373057600084156137185750858301515b600019600386901b1c1916600185901b1785556136c5565b600085815260208120601f198616915b8281101561375f57888601518255948401946001909101908401613740565b508582101561377d5787850151600019600388901b60f8161c191681555b5050505050600190811b01905550565b634e487b7160e01b600052601160045260246000fd5b81810381811115612edd57612edd61378d565b634e487b7160e01b600052602160045260246000fd5b60008083546137da8161364b565b600182811680156137f2576001811461380757613836565b60ff1984168752821515830287019450613836565b8760005260208060002060005b8581101561382d5781548a820152908401908201613814565b50505082870194505b50929695505050505050565b65ffffffffffff8181168382160190808211156138615761386161378d565b5092915050565b8481526000602060ff86168184015284604084015260806060840152600084546138918161364b565b80608087015260a06001808416600081146138b357600181146138cd576138fb565b60ff1985168984015283151560051b8901830195506138fb565b896000528660002060005b858110156138f35781548b82018601529083019088016138d8565b8a0184019650505b50939b9a5050505050505050505050565b60006001820161391e5761391e61378d565b5060010190565b634e487b7160e01b600052603260045260246000fd5b80820180821115612edd57612edd61378d565b600081518084526020808501945080840160005b8381101561397e57815187529582019590820190600101613962565b509495945050505050565b600081518084526020808501808196508360051b8101915082860160005b8581101561338e5782840389526139bf848351613231565b988501989350908401906001016139a7565b60006101208083018c845260206001600160a01b03808e16828701528360408701528293508c5180845261014087019450828e01935060005b81811015613a28578451831686529483019493830193600101613a0a565b50505050508281036060840152613a3f818a61394e565b90508281036080840152613a538189613989565b905082810360a0840152613a678188613989565b65ffffffffffff871660c0850152905065ffffffffffff851660e0840152828103610100840152613a988185613231565b9c9b505050505050505050505050565b634e487b7160e01b600052603160045260246000fd5b600081613acd57613acd61378d565b506000190190565b600082613af257634e487b7160e01b600052601260045260246000fd5b500490565b600060208284031215613b0957600080fd5b5051919050565b60008251613b2281846020870161320d565b919091019291505056fea264697066735822122067e1247be6954c40934971b91d693ba13ec1417f75013abf44fb4d947f1d8b7d64736f6c63430008140033",
  "linkReferences": {},
  "deployedLinkReferences": {}
}