{
  "_format": "hh-sol-artifact-1",
  "contractName": "FinCubeDAO",
  "sourceName": "contracts/FincubeDAO.sol",
  "abi": [
    {
      "inputs": [
        {
          "internalType": "address",
          "name": "target",
          "type": "address"
        }
      ],
      "name": "AddressEmptyCode",
      "type": "error"
    },
    {
      "inputs": [
        {
          "internalType": "address",
          "name": "implementation",
          "type": "address"
        }
      ],
      "name": "ERC1967InvalidImplementation",
      "type": "error"
    },
    {
      "inputs": [],
      "name": "ERC1967NonPayable",
      "type": "error"
    },
    {
      "inputs": [],
      "name": "FailedInnerCall",
      "type": "error"
    },
    {
      "inputs": [],
      "name": "InvalidInitialization",
      "type": "error"
    },
    {
      "inputs": [],
      "name": "NotInitializing",
      "type": "error"
    },
    {
      "inputs": [
        {
          "internalType": "address",
          "name": "owner",
          "type": "address"
        }
      ],
      "name": "OwnableInvalidOwner",
      "type": "error"
    },
    {
      "inputs": [
        {
          "internalType": "address",
          "name": "account",
          "type": "address"
        }
      ],
      "name": "OwnableUnauthorizedAccount",
      "type": "error"
    },
    {
      "inputs": [],
      "name": "UUPSUnauthorizedCallContext",
      "type": "error"
    },
    {
      "inputs": [
        {
          "internalType": "bytes32",
          "name": "slot",
          "type": "bytes32"
        }
      ],
      "name": "UUPSUnsupportedProxiableUUID",
      "type": "error"
    },
    {
      "anonymous": false,
      "inputs": [
        {
          "indexed": false,
          "internalType": "uint64",
          "name": "version",
          "type": "uint64"
        }
      ],
      "name": "Initialized",
      "type": "event"
    },
    {
      "anonymous": false,
      "inputs": [
        {
          "indexed": true,
          "internalType": "address",
          "name": "member",
          "type": "address"
        }
      ],
      "name": "MemberApproved",
      "type": "event"
    },
    {
      "anonymous": false,
      "inputs": [
        {
          "indexed": true,
          "internalType": "address",
          "name": "_newMember",
          "type": "address"
        },
        {
          "indexed": false,
          "internalType": "string",
          "name": "_memberURI",
          "type": "string"
        }
      ],
      "name": "MemberRegistered",
      "type": "event"
    },
    {
      "anonymous": false,
      "inputs": [
        {
          "indexed": true,
          "internalType": "address",
          "name": "previousOwner",
          "type": "address"
        },
        {
          "indexed": true,
          "internalType": "address",
          "name": "newOwner",
          "type": "address"
        }
      ],
      "name": "OwnershipTransferred",
      "type": "event"
    },
    {
      "anonymous": false,
      "inputs": [
        {
          "indexed": true,
          "internalType": "uint256",
          "name": "proposalId",
          "type": "uint256"
        }
      ],
      "name": "ProposalCanceled",
      "type": "event"
    },
    {
      "anonymous": false,
      "inputs": [
        {
          "indexed": true,
          "internalType": "uint256",
          "name": "proposalId",
          "type": "uint256"
        },
        {
          "indexed": true,
          "internalType": "enum FinCubeDAO.ProposalType",
          "name": "proposalType",
          "type": "uint8"
        },
        {
          "indexed": false,
          "internalType": "bytes",
          "name": "data",
          "type": "bytes"
        }
      ],
      "name": "ProposalCreated",
      "type": "event"
    },
    {
      "anonymous": false,
      "inputs": [
        {
          "indexed": true,
          "internalType": "uint256",
          "name": "proposalId",
          "type": "uint256"
        }
      ],
      "name": "ProposalExecuted",
      "type": "event"
    },
    {
      "anonymous": false,
      "inputs": [
        {
          "indexed": true,
          "internalType": "address",
          "name": "implementation",
          "type": "address"
        }
      ],
      "name": "Upgraded",
      "type": "event"
    },
    {
      "inputs": [],
      "name": "UPGRADE_INTERFACE_VERSION",
      "outputs": [
        {
          "internalType": "string",
          "name": "",
          "type": "string"
        }
      ],
      "stateMutability": "view",
      "type": "function"
    },
    {
      "inputs": [
        {
          "internalType": "uint256",
          "name": "proposalId",
          "type": "uint256"
        }
      ],
      "name": "cancelProposal",
      "outputs": [],
      "stateMutability": "nonpayable",
      "type": "function"
    },
    {
      "inputs": [
        {
          "internalType": "uint256",
          "name": "_proposalId",
          "type": "uint256"
        },
        {
          "internalType": "bool",
          "name": "_isYesVote",
          "type": "bool"
        }
      ],
      "name": "castVote",
      "outputs": [],
      "stateMutability": "nonpayable",
      "type": "function"
    },
    {
      "inputs": [
        {
          "internalType": "address",
          "name": "_member",
          "type": "address"
        }
      ],
      "name": "checkIsMemberApproved",
      "outputs": [
        {
          "internalType": "bool",
          "name": "",
          "type": "bool"
        }
      ],
      "stateMutability": "view",
      "type": "function"
    },
    {
      "inputs": [],
      "name": "daoURI",
      "outputs": [
        {
          "internalType": "string",
          "name": "",
          "type": "string"
        }
      ],
      "stateMutability": "view",
      "type": "function"
    },
    {
      "inputs": [
        {
          "internalType": "uint256",
          "name": "proposalId",
          "type": "uint256"
        }
      ],
      "name": "executeProposal",
      "outputs": [],
      "stateMutability": "nonpayable",
      "type": "function"
    },
    {
      "inputs": [],
      "name": "getOngoingProposals",
      "outputs": [
        {
          "components": [
            {
              "internalType": "bool",
              "name": "executed",
              "type": "bool"
            },
            {
              "internalType": "bool",
              "name": "canceled",
              "type": "bool"
            },
            {
              "internalType": "address",
              "name": "proposer",
              "type": "address"
            },
            {
              "internalType": "bytes",
              "name": "data",
              "type": "bytes"
            },
            {
              "internalType": "address",
              "name": "target",
              "type": "address"
            },
            {
              "internalType": "uint48",
              "name": "voteStart",
              "type": "uint48"
            },
            {
              "internalType": "uint48",
              "name": "voteDuration",
              "type": "uint48"
            },
            {
              "internalType": "uint256",
              "name": "yesvotes",
              "type": "uint256"
            },
            {
              "internalType": "uint256",
              "name": "novotes",
              "type": "uint256"
            }
          ],
          "internalType": "struct FinCubeDAO.Proposal[]",
          "name": "",
          "type": "tuple[]"
        }
      ],
      "stateMutability": "view",
      "type": "function"
    },
    {
      "inputs": [],
      "name": "getOngoingProposalsCount",
      "outputs": [
        {
          "internalType": "uint256",
          "name": "ongoingCount",
          "type": "uint256"
        }
      ],
      "stateMutability": "view",
      "type": "function"
    },
    {
      "inputs": [
        {
          "internalType": "string",
          "name": "_daoURI",
          "type": "string"
        },
        {
          "internalType": "string",
          "name": "_ownerURI",
          "type": "string"
        }
      ],
      "name": "initialize",
      "outputs": [],
      "stateMutability": "nonpayable",
      "type": "function"
    },
    {
      "inputs": [
        {
          "internalType": "address",
          "name": "_newMember",
          "type": "address"
        }
      ],
      "name": "newMemberApprovalProposal",
      "outputs": [],
      "stateMutability": "nonpayable",
      "type": "function"
    },
    {
      "inputs": [
        {
          "internalType": "bytes",
          "name": "_calldata",
          "type": "bytes"
        },
        {
          "internalType": "address",
          "name": "_target",
          "type": "address"
        }
      ],
      "name": "newProposal",
      "outputs": [],
      "stateMutability": "nonpayable",
      "type": "function"
    },
    {
      "inputs": [],
      "name": "owner",
      "outputs": [
        {
          "internalType": "address",
          "name": "",
          "type": "address"
        }
      ],
      "stateMutability": "view",
      "type": "function"
    },
    {
      "inputs": [],
      "name": "proposalThreshold",
      "outputs": [
        {
          "internalType": "uint256",
          "name": "threshold",
          "type": "uint256"
        }
      ],
      "stateMutability": "view",
      "type": "function"
    },
    {
      "inputs": [],
      "name": "proxiableUUID",
      "outputs": [
        {
          "internalType": "bytes32",
          "name": "",
          "type": "bytes32"
        }
      ],
      "stateMutability": "view",
      "type": "function"
    },
    {
      "inputs": [
        {
          "internalType": "address",
          "name": "_newMember",
          "type": "address"
        },
        {
          "internalType": "string",
          "name": "_memberURI",
          "type": "string"
        }
      ],
      "name": "registerMember",
      "outputs": [],
      "stateMutability": "nonpayable",
      "type": "function"
    },
    {
      "inputs": [],
      "name": "renounceOwnership",
      "outputs": [],
      "stateMutability": "nonpayable",
      "type": "function"
    },
    {
      "inputs": [
        {
          "internalType": "address",
          "name": "newOwner",
          "type": "address"
        }
      ],
      "name": "transferOwnership",
      "outputs": [],
      "stateMutability": "nonpayable",
      "type": "function"
    },
    {
      "inputs": [
        {
          "internalType": "address",
          "name": "newImplementation",
          "type": "address"
        },
        {
          "internalType": "bytes",
          "name": "data",
          "type": "bytes"
        }
      ],
      "name": "upgradeToAndCall",
      "outputs": [],
      "stateMutability": "payable",
      "type": "function"
    },
    {
      "inputs": [],
      "name": "votingDelay",
      "outputs": [
        {
          "internalType": "uint256",
          "name": "",
          "type": "uint256"
        }
      ],
      "stateMutability": "pure",
      "type": "function"
    },
    {
      "inputs": [],
      "name": "votingPeriod",
      "outputs": [
        {
          "internalType": "uint256",
          "name": "",
          "type": "uint256"
        }
      ],
      "stateMutability": "pure",
      "type": "function"
    }
  ],
  "bytecode": "0x60a06040523060805234801561001457600080fd5b5060805161268661003e60003960008181611aad01528181611ad60152611c5901526126866000f3fe60806040526004361061015f5760003560e01c80637034731b116100c0578063afe666f611610074578063cfbc02d411610059578063cfbc02d414610398578063e0a8f6f5146103c8578063f2fde38b146103e857600080fd5b8063afe666f614610361578063b58131b01461038357600080fd5b8063756a4ba3116100a5578063756a4ba3146102b15780638da5cb5b146102d1578063ad3cb1cc1461031857600080fd5b80637034731b1461027a578063715018a61461029c57600080fd5b806327f5884b116101175780634cd88b76116100fc5780634cd88b76146102325780634f1ef2861461025257806352d1902d1461026557600080fd5b806327f5884b146102095780633932abb11461021e57600080fd5b80630d61b519116101485780630d61b519146101a957806315373e3d146101c957806318a41aec146101e957600080fd5b806302a251a3146101645780630aa5adfc14610187575b600080fd5b34801561017057600080fd5b50603c5b6040519081526020015b60405180910390f35b34801561019357600080fd5b506101a76101a23660046120fb565b610408565b005b3480156101b557600080fd5b506101a76101c4366004612149565b61051f565b3480156101d557600080fd5b506101a76101e4366004612162565b6108ca565b3480156101f557600080fd5b506101a7610204366004612197565b610b29565b34801561021557600080fd5b50610174610e0c565b34801561022a57600080fd5b506005610174565b34801561023e57600080fd5b506101a761024d3660046121b2565b610ec0565b6101a76102603660046120fb565b611063565b34801561027157600080fd5b5061017461107e565b34801561028657600080fd5b5061028f6110ad565b60405161017e919061225c565b3480156102a857600080fd5b506101a761113b565b3480156102bd57600080fd5b506101a76102cc36600461226f565b61114f565b3480156102dd57600080fd5b507f9016d09d72d40fdae2fd8ceac6b6234c7706214fd39c1cd1e609a0528c199300546040516001600160a01b03909116815260200161017e565b34801561032457600080fd5b5061028f6040518060400160405280600581526020017f352e302e3000000000000000000000000000000000000000000000000000000081525081565b34801561036d57600080fd5b506103766113e6565b60405161017e91906122bd565b34801561038f57600080fd5b5061017461168f565b3480156103a457600080fd5b506103b86103b3366004612197565b6116b1565b604051901515815260200161017e565b3480156103d457600080fd5b506101a76103e3366004612149565b61179a565b3480156103f457600080fd5b506101a7610403366004612197565b611975565b6001600160a01b0382166000908152600360205260408120600101805484929190610432906123b3565b905011156104875760405162461bcd60e51b815260206004820152601060248201527f416c72656164792061206d656d6265720000000000000000000000000000000060448201526064015b60405180910390fd5b604080518082018252600080825260208083018681526001600160a01b038816835260039091529290208151815460ff191690151517815591519091829160018201906104d49082612435565b50905050836001600160a01b03167f3b09349069a59bcde8c2609afc86c80b77c81085ac8cd8662981621f7ea3574b84604051610511919061225c565b60405180910390a250505050565b60008181526004602052604090206002810154600160a01b900465ffffffffffff164211801561056157506002810154600160d01b900465ffffffffffff1642105b156105ae5760405162461bcd60e51b815260206004820152601560248201527f566f74696e67207374696c6c20676f696e67206f6e0000000000000000000000604482015260640161047e565b805460ff161580156105c757508054610100900460ff16155b6106215760405162461bcd60e51b815260206004820152602560248201527f50726f706f73616c20616c7265616479206578656375746564206f722063616e60448201526418d95b195960da1b606482015260840161047e565b600161062b61168f565b610635919061250b565b8160030154116106ad5760405162461bcd60e51b815260206004820152602360248201527f50726f706f73616c20646f65736e27742068617665206d616a6f72697479207660448201527f6f74650000000000000000000000000000000000000000000000000000000000606482015260840161047e565b60008281526006602052604081205460ff1660018111156106d0576106d061251e565b036107ae5761077461076f8260010180546106ea906123b3565b80601f0160208091040260200160405190810160405280929190818152602001828054610716906123b3565b80156107635780601f1061073857610100808354040283529160200191610763565b820191906000526020600020905b81548152906001019060200180831161074657829003601f168201915b50505050506014015190565b6119cc565b805460ff1916600117815560405182907f712ae1383f79ac853f8d882153778e0260ef8f03b504e2866e0593e04d2b291f90600090a25050565b600160008381526006602052604090205460ff1660018111156107d3576107d361251e565b036108c65760028101546040516000916001600160a01b0316906107fb906001850190612534565b6000604051808303816000865af19150503d8060008114610838576040519150601f19603f3d011682016040523d82523d6000602084013e61083d565b606091505b505090508061088e5760405162461bcd60e51b815260206004820152601960248201527f50726f706f73616c20657865637574696f6e206661696c656400000000000000604482015260640161047e565b815460ff1916600117825560405183907f712ae1383f79ac853f8d882153778e0260ef8f03b504e2866e0593e04d2b291f90600090a2505b5050565b33600081815260036020526040812060010180546108e7906123b3565b9050116109255760405162461bcd60e51b815260206004820152600c60248201526b2737ba10309036b2b6b132b960a11b604482015260640161047e565b6001600160a01b03811660009081526003602052604090205460ff1615156001146109885760405162461bcd60e51b815260206004820152601360248201527213595b58995c881b9bdd08185c1c1c9bdd9959606a1b604482015260640161047e565b600083815260056020908152604080832060049092529091206002810154600160a01b900465ffffffffffff16421180156109d557506002810154600160d01b900465ffffffffffff1642105b610a475760405162461bcd60e51b815260206004820152602260248201527f566f74696e67206973206e6f7420616c6c6f776564206174207468697320746960448201527f6d65000000000000000000000000000000000000000000000000000000000000606482015260840161047e565b3360009081526020839052604090205460ff16158015610a79575033600090815260018301602052604090205460ff16155b610ac55760405162461bcd60e51b815260206004820152601f60248201527f416c726561647920766f74656420666f7220746869732070726f706f73616c00604482015260640161047e565b8315610af8576003810180546001908101909155336000908152602084905260409020805460ff19169091179055610b22565b600481018054600190810190915533600090815283820160205260409020805460ff191690911790555b5050505050565b3360008181526003602052604081206001018054610b46906123b3565b905011610b845760405162461bcd60e51b815260206004820152600c60248201526b2737ba10309036b2b6b132b960a11b604482015260640161047e565b6001600160a01b03811660009081526003602052604090205460ff161515600114610be75760405162461bcd60e51b815260206004820152601360248201527213595b58995c881b9bdd08185c1c1c9bdd9959606a1b604482015260640161047e565b426000610bf56005836125aa565b90506000610c04603c836125aa565b60408051606088901b6bffffffffffffffffffffffff191660208083019190915282518083036014018152610154830184526000603484018181526054850182815233607487019081526094870185815261dead60b489015265ffffffffffff8c811660d48a01528a1660f4890152610114880185905261013490970184905260018054855260049096529690922081518154935197516001600160a01b0316620100000275ffffffffffffffffffffffffffffffffffffffff0000199815156101000261ff00199215159290921661ffff1990951694909417179690961691909117855592519495509391929190820190610d009082612435565b50608082015160028201805460a085015160c08601516001600160a01b039094167fffffffffffff000000000000000000000000000000000000000000000000000090921691909117600160a01b65ffffffffffff928316021779ffffffffffffffffffffffffffffffffffffffffffffffffffff16600160d01b919093160291909117905560e082015160038201556101009091015160049091015560018054600090815260066020526040812080549192909160ff19169083021790555060006001547f3cd05952bf89447515ba76534b26df87104c2ba104027f22a518d767243973c183604051610df4919061225c565b60405180910390a35050600180548101905550505050565b60015460009042825b82811015610eba5760008181526004602052604090205460ff16158015610e505750600081815260046020526040902054610100900460ff16155b8015610e7b5750600081815260046020526040902060020154600160a01b900465ffffffffffff1682115b8015610ea65750600081815260046020526040902060020154600160d01b900465ffffffffffff1682105b15610eb2576001909301925b600101610e15565b50505090565b7ff0c57e16840df040f15088dc2f81fe391c3923bec73e23a9662efc9c229c6a00805468010000000000000000810460ff16159067ffffffffffffffff16600081158015610f0b5750825b905060008267ffffffffffffffff166001148015610f285750303b155b905081158015610f36575080155b15610f6d576040517ff92ee8a900000000000000000000000000000000000000000000000000000000815260040160405180910390fd5b845467ffffffffffffffff191660011785558315610fa157845468ff00000000000000001916680100000000000000001785555b610faa33611a89565b610fb2611a9a565b604080518082018252602080820189815260018084523360009081526003909352939091208251815460ff191690151517815590519192839290820190610ff99082612435565b5050600160005550600261100d8982612435565b5050831561105a57845468ff000000000000000019168555604051600181527fc7f505b2f371ae2175ee4913f4499e1f2633a7b5936321eed1cdaeb6115181d29060200160405180910390a15b50505050505050565b61106b611aa2565b61107482611b59565b6108c68282611b61565b6000611088611c4e565b507f360894a13ba1a3210667c828492db98dca3e2076cc3735a920a3ca505d382bbc90565b600280546110ba906123b3565b80601f01602080910402602001604051908101604052809291908181526020018280546110e6906123b3565b80156111335780601f1061110857610100808354040283529160200191611133565b820191906000526020600020905b81548152906001019060200180831161111657829003601f168201915b505050505081565b611143611c97565b61114d6000611d0b565b565b336000818152600360205260408120600101805461116c906123b3565b9050116111aa5760405162461bcd60e51b815260206004820152600c60248201526b2737ba10309036b2b6b132b960a11b604482015260640161047e565b6001600160a01b03811660009081526003602052604090205460ff16151560011461120d5760405162461bcd60e51b815260206004820152601360248201527213595b58995c881b9bdd08185c1c1c9bdd9959606a1b604482015260640161047e565b42600061121b6005836125aa565b9050600061122a603c836125aa565b60408051610120810182526000808252602080830182815233848601908152606085018d81526001600160a01b038d8116608088015265ffffffffffff8b811660a0890152891660c088015260e08701869052610100808801879052600180548852600490965297909520865181549451935161ffff1990951690151561ff001916179215159097029190911775ffffffffffffffffffffffffffffffffffffffff0000191662010000929094169190910292909217845590519394509092908201906112f79082612435565b50608082015160028201805460a085015160c08601516001600160a01b039094167fffffffffffff000000000000000000000000000000000000000000000000000090921691909117600160a01b65ffffffffffff928316021779ffffffffffffffffffffffffffffffffffffffffffffffffffff16600160d01b919093160291909117905560e0820151600382015561010090910151600490910155600180546000908152600660205260409020805460ff191682800217905550600180547f3cd05952bf89447515ba76534b26df87104c2ba104027f22a518d767243973c188604051610df4919061225c565b606060006113f2610e0c565b905060008167ffffffffffffffff81111561140f5761140f612058565b60405190808252806020026020018201604052801561148557816020015b6040805161012081018252600080825260208083018290529282018190526060808301526080820181905260a0820181905260c0820181905260e08201819052610100820152825260001990920191018161142d5790505b509050426000805b6001548110156116855760008181526004602052604090205460ff161580156114ca5750600081815260046020526040902054610100900460ff16155b80156114f55750600081815260046020526040902060020154600160a01b900465ffffffffffff1683115b80156115205750600081815260046020526040902060020154600160d01b900465ffffffffffff1683105b1561167d57600081815260046020908152604091829020825161012081018452815460ff80821615158352610100820416151593820193909352620100009092046001600160a01b031692820192909252600182018054919291606084019190611589906123b3565b80601f01602080910402602001604051908101604052809291908181526020018280546115b5906123b3565b80156116025780601f106115d757610100808354040283529160200191611602565b820191906000526020600020905b8154815290600101906020018083116115e557829003601f168201915b505050918352505060028201546001600160a01b038116602083015265ffffffffffff600160a01b820481166040840152600160d01b9091041660608201526003820154608082015260049091015460a090910152845185908490811061166b5761166b6125d0565b60209081029190910101526001909101905b60010161148d565b5091949350505050565b6000600260005460016116a291906125e6565b6116ac91906125f9565b905090565b33600081815260036020526040812060010180549192918391906116d4906123b3565b9050116117125760405162461bcd60e51b815260206004820152600c60248201526b2737ba10309036b2b6b132b960a11b604482015260640161047e565b6001600160a01b03811660009081526003602052604090205460ff1615156001146117755760405162461bcd60e51b815260206004820152601360248201527213595b58995c881b9bdd08185c1c1c9bdd9959606a1b604482015260640161047e565b6001600160a01b03831660009081526003602052604090205460ff1691505b50919050565b33600081815260036020526040812060010180546117b7906123b3565b9050116117f55760405162461bcd60e51b815260206004820152600c60248201526b2737ba10309036b2b6b132b960a11b604482015260640161047e565b6001600160a01b03811660009081526003602052604090205460ff1615156001146118585760405162461bcd60e51b815260206004820152601360248201527213595b58995c881b9bdd08185c1c1c9bdd9959606a1b604482015260640161047e565b600082815260046020526040902080546201000090046001600160a01b031633146118c55760405162461bcd60e51b815260206004820181905260248201527f4e6f207065726d697373696f6e20746f2063616e63656c2070726f706f73616c604482015260640161047e565b805460ff161580156118de57508054610100900460ff16155b6119385760405162461bcd60e51b815260206004820152602560248201527f50726f706f73616c20616c7265616479206578656375746564206f722063616e60448201526418d95b195960da1b606482015260840161047e565b805461ff00191661010017815560405183907f789cf55be980739dad1d0699b93b58e806b51c9d96619bfa8fe0a28abaa7b30c90600090a2505050565b61197d611c97565b6001600160a01b0381166119c0576040517f1e4fbdf70000000000000000000000000000000000000000000000000000000081526000600482015260240161047e565b6119c981611d0b565b50565b6001600160a01b03811660009081526003602052604090205460ff1615611a355760405162461bcd60e51b815260206004820152601760248201527f4d656d62657220616c726561647920617070726f766564000000000000000000604482015260640161047e565b6001600160a01b038116600081815260036020526040808220805460ff191660019081179091558254018255517f3da74045128fff0396b39203f81bcedcbcf28586f0f97fb0f41ceb5521566a159190a250565b611a91611d89565b6119c981611df0565b61114d611d89565b306001600160a01b037f0000000000000000000000000000000000000000000000000000000000000000161480611b3b57507f00000000000000000000000000000000000000000000000000000000000000006001600160a01b0316611b2f7f360894a13ba1a3210667c828492db98dca3e2076cc3735a920a3ca505d382bbc546001600160a01b031690565b6001600160a01b031614155b1561114d5760405163703e46dd60e11b815260040160405180910390fd5b6119c9611c97565b816001600160a01b03166352d1902d6040518163ffffffff1660e01b8152600401602060405180830381865afa925050508015611bbb575060408051601f3d908101601f19168201909252611bb89181019061261b565b60015b611be357604051634c9c8ce360e01b81526001600160a01b038316600482015260240161047e565b7f360894a13ba1a3210667c828492db98dca3e2076cc3735a920a3ca505d382bbc8114611c3f576040517faa1d49a40000000000000000000000000000000000000000000000000000000081526004810182905260240161047e565b611c498383611df8565b505050565b306001600160a01b037f0000000000000000000000000000000000000000000000000000000000000000161461114d5760405163703e46dd60e11b815260040160405180910390fd5b33611cc97f9016d09d72d40fdae2fd8ceac6b6234c7706214fd39c1cd1e609a0528c199300546001600160a01b031690565b6001600160a01b03161461114d576040517f118cdaa700000000000000000000000000000000000000000000000000000000815233600482015260240161047e565b7f9016d09d72d40fdae2fd8ceac6b6234c7706214fd39c1cd1e609a0528c199300805473ffffffffffffffffffffffffffffffffffffffff1981166001600160a01b03848116918217845560405192169182907f8be0079c531659141344cd1fd0a4f28419497f9722a3daafe3b4186f6b6457e090600090a3505050565b7ff0c57e16840df040f15088dc2f81fe391c3923bec73e23a9662efc9c229c6a005468010000000000000000900460ff1661114d576040517fd7e6bcf800000000000000000000000000000000000000000000000000000000815260040160405180910390fd5b61197d611d89565b611e0182611e4e565b6040516001600160a01b038316907fbc7cd75a20ee27fd9adebab32041f755214dbc6bffa90cc0225b39da2e5c2d3b90600090a2805115611e4657611c498282611ed2565b6108c6611f4a565b806001600160a01b03163b600003611e8457604051634c9c8ce360e01b81526001600160a01b038216600482015260240161047e565b7f360894a13ba1a3210667c828492db98dca3e2076cc3735a920a3ca505d382bbc805473ffffffffffffffffffffffffffffffffffffffff19166001600160a01b0392909216919091179055565b6060600080846001600160a01b031684604051611eef9190612634565b600060405180830381855af49150503d8060008114611f2a576040519150601f19603f3d011682016040523d82523d6000602084013e611f2f565b606091505b5091509150611f3f858383611f82565b925050505b92915050565b341561114d576040517fb398979f00000000000000000000000000000000000000000000000000000000815260040160405180910390fd5b606082611f9757611f9282611ffa565b611ff3565b8151158015611fae57506001600160a01b0384163b155b15611ff0576040517f9996b3150000000000000000000000000000000000000000000000000000000081526001600160a01b038516600482015260240161047e565b50805b9392505050565b80511561200a5780518082602001fd5b6040517f1425ea4200000000000000000000000000000000000000000000000000000000815260040160405180910390fd5b80356001600160a01b038116811461205357600080fd5b919050565b634e487b7160e01b600052604160045260246000fd5b600082601f83011261207f57600080fd5b813567ffffffffffffffff8082111561209a5761209a612058565b604051601f8301601f19908116603f011681019082821181831017156120c2576120c2612058565b816040528381528660208588010111156120db57600080fd5b836020870160208301376000602085830101528094505050505092915050565b6000806040838503121561210e57600080fd5b6121178361203c565b9150602083013567ffffffffffffffff81111561213357600080fd5b61213f8582860161206e565b9150509250929050565b60006020828403121561215b57600080fd5b5035919050565b6000806040838503121561217557600080fd5b823591506020830135801515811461218c57600080fd5b809150509250929050565b6000602082840312156121a957600080fd5b611ff38261203c565b600080604083850312156121c557600080fd5b823567ffffffffffffffff808211156121dd57600080fd5b6121e98683870161206e565b935060208501359150808211156121ff57600080fd5b5061213f8582860161206e565b60005b8381101561222757818101518382015260200161220f565b50506000910152565b6000815180845261224881602086016020860161220c565b601f01601f19169290920160200192915050565b602081526000611ff36020830184612230565b6000806040838503121561228257600080fd5b823567ffffffffffffffff81111561229957600080fd5b6122a58582860161206e565b9250506122b46020840161203c565b90509250929050565b60006020808301818452808551808352604092508286019150828160051b87010184880160005b838110156123a557603f19898403018552815180511515845287810151151588850152868101516001600160a01b031687850152606080820151610120828701819052919061233583880182612230565b92505050608080830151612353828801826001600160a01b03169052565b505060a08281015165ffffffffffff811687830152505060c08281015165ffffffffffff811687830152505060e0828101519086015261010091820151919094015293860193908601906001016122e4565b509098975050505050505050565b600181811c908216806123c757607f821691505b60208210810361179457634e487b7160e01b600052602260045260246000fd5b601f821115611c4957600081815260208120601f850160051c8101602086101561240e5750805b601f850160051c820191505b8181101561242d5782815560010161241a565b505050505050565b815167ffffffffffffffff81111561244f5761244f612058565b6124638161245d84546123b3565b846123e7565b602080601f83116001811461249857600084156124805750858301515b600019600386901b1c1916600185901b17855561242d565b600085815260208120601f198616915b828110156124c7578886015182559484019460019091019084016124a8565b50858210156124e55787850151600019600388901b60f8161c191681555b5050505050600190811b01905550565b634e487b7160e01b600052601160045260246000fd5b81810381811115611f4457611f446124f5565b634e487b7160e01b600052602160045260246000fd5b6000808354612542816123b3565b6001828116801561255a576001811461256f5761259e565b60ff198416875282151583028701945061259e565b8760005260208060002060005b858110156125955781548a82015290840190820161257c565b50505082870194505b50929695505050505050565b65ffffffffffff8181168382160190808211156125c9576125c96124f5565b5092915050565b634e487b7160e01b600052603260045260246000fd5b80820180821115611f4457611f446124f5565b60008261261657634e487b7160e01b600052601260045260246000fd5b500490565b60006020828403121561262d57600080fd5b5051919050565b6000825161264681846020870161220c565b919091019291505056fea2646970667358221220a24044173bd7472e7c2ad8bd42a50935c8bc49a43cb5e3221a347251da62457764736f6c63430008140033",
  "linkReferences": {},
  "deployedLinkReferences": {}
}