{
  "contracts/FincubeDAO.sol": {
    "FinCubeDAO": {
      "abi": [
        {
          "inputs": [
            {
              "internalType": "string",
              "name": "_daoURI",
              "type": "string"
            },
            {
              "internalType": "string",
              "name": "_ownerURI",
              "type": "string"
            }
          ],
          "stateMutability": "nonpayable",
          "type": "constructor"
        },
        {
          "inputs": [
            {
              "internalType": "address",
              "name": "owner",
              "type": "address"
            }
          ],
          "name": "OwnableInvalidOwner",
          "type": "error"
        },
        {
          "inputs": [
            {
              "internalType": "address",
              "name": "account",
              "type": "address"
            }
          ],
          "name": "OwnableUnauthorizedAccount",
          "type": "error"
        },
        {
          "anonymous": false,
          "inputs": [
            {
              "indexed": true,
              "internalType": "address",
              "name": "member",
              "type": "address"
            }
          ],
          "name": "MemberApproved",
          "type": "event"
        },
        {
          "anonymous": false,
          "inputs": [
            {
              "indexed": true,
              "internalType": "address",
              "name": "_newMember",
              "type": "address"
            },
            {
              "indexed": false,
              "internalType": "string",
              "name": "_memberURI",
              "type": "string"
            }
          ],
          "name": "MemberRegistered",
          "type": "event"
        },
        {
          "anonymous": false,
          "inputs": [
            {
              "indexed": true,
              "internalType": "address",
              "name": "previousOwner",
              "type": "address"
            },
            {
              "indexed": true,
              "internalType": "address",
              "name": "newOwner",
              "type": "address"
            }
          ],
          "name": "OwnershipTransferred",
          "type": "event"
        },
        {
          "anonymous": false,
          "inputs": [
            {
              "indexed": true,
              "internalType": "uint256",
              "name": "proposalId",
              "type": "uint256"
            }
          ],
          "name": "ProposalCanceled",
          "type": "event"
        },
        {
          "anonymous": false,
          "inputs": [
            {
              "indexed": true,
              "internalType": "uint256",
              "name": "proposalId",
              "type": "uint256"
            },
            {
              "indexed": true,
              "internalType": "enum FinCubeDAO.ProposalType",
              "name": "proposalType",
              "type": "uint8"
            },
            {
              "indexed": false,
              "internalType": "bytes",
              "name": "data",
              "type": "bytes"
            }
          ],
          "name": "ProposalCreated",
          "type": "event"
        },
        {
          "anonymous": false,
          "inputs": [
            {
              "indexed": true,
              "internalType": "uint256",
              "name": "proposalId",
              "type": "uint256"
            }
          ],
          "name": "ProposalExecuted",
          "type": "event"
        },
        {
          "inputs": [
            {
              "internalType": "uint256",
              "name": "proposalId",
              "type": "uint256"
            }
          ],
          "name": "cancelProposal",
          "outputs": [],
          "stateMutability": "nonpayable",
          "type": "function"
        },
        {
          "inputs": [
            {
              "internalType": "uint256",
              "name": "_proposalId",
              "type": "uint256"
            },
            {
              "internalType": "bool",
              "name": "_isYesVote",
              "type": "bool"
            }
          ],
          "name": "castVote",
          "outputs": [],
          "stateMutability": "nonpayable",
          "type": "function"
        },
        {
          "inputs": [
            {
              "internalType": "address",
              "name": "_member",
              "type": "address"
            }
          ],
          "name": "checkIsMemberApproved",
          "outputs": [
            {
              "internalType": "bool",
              "name": "",
              "type": "bool"
            }
          ],
          "stateMutability": "view",
          "type": "function"
        },
        {
          "inputs": [],
          "name": "daoURI",
          "outputs": [
            {
              "internalType": "string",
              "name": "",
              "type": "string"
            }
          ],
          "stateMutability": "view",
          "type": "function"
        },
        {
          "inputs": [
            {
              "internalType": "uint256",
              "name": "proposalId",
              "type": "uint256"
            }
          ],
          "name": "executeProposal",
          "outputs": [],
          "stateMutability": "nonpayable",
          "type": "function"
        },
        {
          "inputs": [],
          "name": "getOngoingProposals",
          "outputs": [
            {
              "components": [
                {
                  "internalType": "bool",
                  "name": "executed",
                  "type": "bool"
                },
                {
                  "internalType": "bool",
                  "name": "canceled",
                  "type": "bool"
                },
                {
                  "internalType": "address",
                  "name": "proposer",
                  "type": "address"
                },
                {
                  "internalType": "bytes",
                  "name": "data",
                  "type": "bytes"
                },
                {
                  "internalType": "address",
                  "name": "target",
                  "type": "address"
                },
                {
                  "internalType": "uint48",
                  "name": "voteStart",
                  "type": "uint48"
                },
                {
                  "internalType": "uint48",
                  "name": "voteDuration",
                  "type": "uint48"
                },
                {
                  "internalType": "uint256",
                  "name": "yesvotes",
                  "type": "uint256"
                },
                {
                  "internalType": "uint256",
                  "name": "novotes",
                  "type": "uint256"
                }
              ],
              "internalType": "struct FinCubeDAO.Proposal[]",
              "name": "",
              "type": "tuple[]"
            }
          ],
          "stateMutability": "view",
          "type": "function"
        },
        {
          "inputs": [],
          "name": "getOngoingProposalsCount",
          "outputs": [
            {
              "internalType": "uint256",
              "name": "ongoingCount",
              "type": "uint256"
            }
          ],
          "stateMutability": "view",
          "type": "function"
        },
        {
          "inputs": [
            {
              "internalType": "address",
              "name": "_newMember",
              "type": "address"
            }
          ],
          "name": "newMemberApprovalProposal",
          "outputs": [],
          "stateMutability": "nonpayable",
          "type": "function"
        },
        {
          "inputs": [
            {
              "internalType": "bytes",
              "name": "_calldata",
              "type": "bytes"
            },
            {
              "internalType": "address",
              "name": "_target",
              "type": "address"
            }
          ],
          "name": "newProposal",
          "outputs": [],
          "stateMutability": "nonpayable",
          "type": "function"
        },
        {
          "inputs": [],
          "name": "owner",
          "outputs": [
            {
              "internalType": "address",
              "name": "",
              "type": "address"
            }
          ],
          "stateMutability": "view",
          "type": "function"
        },
        {
          "inputs": [],
          "name": "proposalThreshold",
          "outputs": [
            {
              "internalType": "uint256",
              "name": "threshold",
              "type": "uint256"
            }
          ],
          "stateMutability": "view",
          "type": "function"
        },
        {
          "inputs": [
            {
              "internalType": "address",
              "name": "_newMember",
              "type": "address"
            },
            {
              "internalType": "string",
              "name": "_memberURI",
              "type": "string"
            }
          ],
          "name": "registerMember",
          "outputs": [],
          "stateMutability": "nonpayable",
          "type": "function"
        },
        {
          "inputs": [],
          "name": "renounceOwnership",
          "outputs": [],
          "stateMutability": "nonpayable",
          "type": "function"
        },
        {
          "inputs": [
            {
              "internalType": "address",
              "name": "newOwner",
              "type": "address"
            }
          ],
          "name": "transferOwnership",
          "outputs": [],
          "stateMutability": "nonpayable",
          "type": "function"
        },
        {
          "inputs": [],
          "name": "votingDelay",
          "outputs": [
            {
              "internalType": "uint256",
              "name": "",
              "type": "uint256"
            }
          ],
          "stateMutability": "pure",
          "type": "function"
        },
        {
          "inputs": [],
          "name": "votingPeriod",
          "outputs": [
            {
              "internalType": "uint256",
              "name": "",
              "type": "uint256"
            }
          ],
          "stateMutability": "pure",
          "type": "function"
        }
      ],
      "evm": {
        "bytecode": {
          "linkReferences": {},
          "object": "60806040523480156200001157600080fd5b50604051620020ec380380620020ec8339810160408190526200003491620001e4565b33806200005b57604051631e4fbdf760e01b81526000600482015260240160405180910390fd5b6200006681620000cf565b50604080518082018252602080820184815260018084523360009081526004909352939091208251815460ff191690151517815590519192839290820190620000b09082620002dd565b505060018055506003620000c58482620002dd565b50505050620003a9565b600080546001600160a01b038381166001600160a01b0319831681178455604051919092169283917f8be0079c531659141344cd1fd0a4f28419497f9722a3daafe3b4186f6b6457e09190a35050565b634e487b7160e01b600052604160045260246000fd5b600082601f8301126200014757600080fd5b81516001600160401b03808211156200016457620001646200011f565b604051601f8301601f19908116603f011681019082821181831017156200018f576200018f6200011f565b81604052838152602092508683858801011115620001ac57600080fd5b600091505b83821015620001d05785820183015181830184015290820190620001b1565b600093810190920192909252949350505050565b60008060408385031215620001f857600080fd5b82516001600160401b03808211156200021057600080fd5b6200021e8683870162000135565b935060208501519150808211156200023557600080fd5b50620002448582860162000135565b9150509250929050565b600181811c908216806200026357607f821691505b6020821081036200028457634e487b7160e01b600052602260045260246000fd5b50919050565b601f821115620002d857600081815260208120601f850160051c81016020861015620002b35750805b601f850160051c820191505b81811015620002d457828155600101620002bf565b5050505b505050565b81516001600160401b03811115620002f957620002f96200011f565b62000311816200030a84546200024e565b846200028a565b602080601f831160018114620003495760008415620003305750858301515b600019600386901b1c1916600185901b178555620002d4565b600085815260208120601f198616915b828110156200037a5788860151825594840194600190910190840162000359565b5085821015620003995787850151600019600388901b60f8161c191681555b5050505050600190811b01905550565b611d3380620003b96000396000f3fe608060405234801561001057600080fd5b50600436106101005760003560e01c8063715018a611610097578063b58131b011610066578063b58131b0146101d8578063cfbc02d4146101e0578063e0a8f6f514610203578063f2fde38b1461021657600080fd5b8063715018a61461018d578063756a4ba3146101955780638da5cb5b146101a8578063afe666f6146101c357600080fd5b806318a41aec116100d357806318a41aec1461015657806327f5884b146101695780633932abb1146101715780637034731b1461017857600080fd5b806302a251a3146101055780630aa5adfc1461011b5780630d61b5191461013057806315373e3d14610143575b600080fd5b603c5b6040519081526020015b60405180910390f35b61012e61012936600461180b565b610229565b005b61012e61013e36600461186d565b610340565b61012e610151366004611886565b6106eb565b61012e6101643660046118bb565b61094a565b610108610c28565b6005610108565b610180610cdc565b6040516101129190611923565b61012e610d6a565b61012e6101a3366004611936565b610d7e565b6000546040516001600160a01b039091168152602001610112565b6101cb611011565b6040516101129190611998565b6101086112ba565b6101f36101ee3660046118bb565b6112dc565b6040519015158152602001610112565b61012e61021136600461186d565b6113c5565b61012e6102243660046118bb565b6115a0565b6001600160a01b038216600090815260046020526040812060010180548492919061025390611a8e565b905011156102a85760405162461bcd60e51b815260206004820152601060248201527f416c72656164792061206d656d6265720000000000000000000000000000000060448201526064015b60405180910390fd5b604080518082018252600080825260208083018681526001600160a01b038816835260049091529290208151815460ff191690151517815591519091829160018201906102f59082611b11565b50905050836001600160a01b03167f3b09349069a59bcde8c2609afc86c80b77c81085ac8cd8662981621f7ea3574b846040516103329190611923565b60405180910390a250505050565b60008181526005602052604090206002810154600160a01b900465ffffffffffff164211801561038257506002810154600160d01b900465ffffffffffff1642105b156103cf5760405162461bcd60e51b815260206004820152601560248201527f566f74696e67207374696c6c20676f696e67206f6e0000000000000000000000604482015260640161029f565b805460ff161580156103e857508054610100900460ff16155b6104425760405162461bcd60e51b815260206004820152602560248201527f50726f706f73616c20616c7265616479206578656375746564206f722063616e60448201526418d95b195960da1b606482015260840161029f565b600161044c6112ba565b6104569190611be7565b8160030154116104ce5760405162461bcd60e51b815260206004820152602360248201527f50726f706f73616c20646f65736e27742068617665206d616a6f72697479207660448201527f6f74650000000000000000000000000000000000000000000000000000000000606482015260840161029f565b60008281526007602052604081205460ff1660018111156104f1576104f1611c00565b036105cf5761059561059082600101805461050b90611a8e565b80601f016020809104026020016040519081016040528092919081815260200182805461053790611a8e565b80156105845780601f1061055957610100808354040283529160200191610584565b820191906000526020600020905b81548152906001019060200180831161056757829003601f168201915b50505050506014015190565b6115f7565b805460ff1916600117815560405182907f712ae1383f79ac853f8d882153778e0260ef8f03b504e2866e0593e04d2b291f90600090a25050565b600160008381526007602052604090205460ff1660018111156105f4576105f4611c00565b036106e75760028101546040516000916001600160a01b03169061061c906001850190611c16565b6000604051808303816000865af19150503d8060008114610659576040519150601f19603f3d011682016040523d82523d6000602084013e61065e565b606091505b50509050806106af5760405162461bcd60e51b815260206004820152601960248201527f50726f706f73616c20657865637574696f6e206661696c656400000000000000604482015260640161029f565b815460ff1916600117825560405183907f712ae1383f79ac853f8d882153778e0260ef8f03b504e2866e0593e04d2b291f90600090a2505b5050565b336000818152600460205260408120600101805461070890611a8e565b9050116107465760405162461bcd60e51b815260206004820152600c60248201526b2737ba10309036b2b6b132b960a11b604482015260640161029f565b6001600160a01b03811660009081526004602052604090205460ff1615156001146107a95760405162461bcd60e51b815260206004820152601360248201527213595b58995c881b9bdd08185c1c1c9bdd9959606a1b604482015260640161029f565b600083815260066020908152604080832060059092529091206002810154600160a01b900465ffffffffffff16421180156107f657506002810154600160d01b900465ffffffffffff1642105b6108685760405162461bcd60e51b815260206004820152602260248201527f566f74696e67206973206e6f7420616c6c6f776564206174207468697320746960448201527f6d65000000000000000000000000000000000000000000000000000000000000606482015260840161029f565b3360009081526020839052604090205460ff1615801561089a575033600090815260018301602052604090205460ff16155b6108e65760405162461bcd60e51b815260206004820152601f60248201527f416c726561647920766f74656420666f7220746869732070726f706f73616c00604482015260640161029f565b8315610919576003810180546001908101909155336000908152602084905260409020805460ff19169091179055610943565b600481018054600190810190915533600090815283820160205260409020805460ff191690911790555b5050505050565b336000818152600460205260408120600101805461096790611a8e565b9050116109a55760405162461bcd60e51b815260206004820152600c60248201526b2737ba10309036b2b6b132b960a11b604482015260640161029f565b6001600160a01b03811660009081526004602052604090205460ff161515600114610a085760405162461bcd60e51b815260206004820152601360248201527213595b58995c881b9bdd08185c1c1c9bdd9959606a1b604482015260640161029f565b426000610a16600583611c8c565b90506000610a25603c83611c8c565b60408051606088901b6bffffffffffffffffffffffff191660208083019190915282518083036014018152610154830184526000603484018181526054850182815233607487019081526094870185815261dead60b489015265ffffffffffff8c811660d48a01528a1660f48901526101148801859052610134909701849052600254845260059095529590912081518154965194516001600160a01b0316620100000275ffffffffffffffffffffffffffffffffffffffff0000199515156101000261ff00199215159290921661ffff19909816979097171793909316949094178255915193945090926001820190610b1f9082611b11565b5060808201516002828101805460a086015160c08701516001600160a01b039095167fffffffffffff000000000000000000000000000000000000000000000000000090921691909117600160a01b65ffffffffffff928316021779ffffffffffffffffffffffffffffffffffffffffffffffffffff16600160d01b91909416029290921790915560e0830151600383015561010090920151600490910155546000908152600760205260408120805460ff1916600183021790555060006002547f3cd05952bf89447515ba76534b26df87104c2ba104027f22a518d767243973c183604051610c0f9190611923565b60405180910390a3505060028054600101905550505050565b60025460009042825b82811015610cd65760008181526005602052604090205460ff16158015610c6c5750600081815260056020526040902054610100900460ff16155b8015610c975750600081815260056020526040902060020154600160a01b900465ffffffffffff1682115b8015610cc25750600081815260056020526040902060020154600160d01b900465ffffffffffff1682105b15610cce576001909301925b600101610c31565b50505090565b60038054610ce990611a8e565b80601f0160208091040260200160405190810160405280929190818152602001828054610d1590611a8e565b8015610d625780601f10610d3757610100808354040283529160200191610d62565b820191906000526020600020905b815481529060010190602001808311610d4557829003601f168201915b505050505081565b610d726116b5565b610d7c60006116fb565b565b3360008181526004602052604081206001018054610d9b90611a8e565b905011610dd95760405162461bcd60e51b815260206004820152600c60248201526b2737ba10309036b2b6b132b960a11b604482015260640161029f565b6001600160a01b03811660009081526004602052604090205460ff161515600114610e3c5760405162461bcd60e51b815260206004820152601360248201527213595b58995c881b9bdd08185c1c1c9bdd9959606a1b604482015260640161029f565b426000610e4a600583611c8c565b90506000610e59603c83611c8c565b60408051610120810182526000808252602080830182815233848601908152606085018d81526001600160a01b038d8116608088015265ffffffffffff8b811660a0890152891660c088015260e087018690526101008088018790526002548752600590955296909420855181549351925161ffff1990941690151561ff001916179115159093021775ffffffffffffffffffffffffffffffffffffffff0000191662010000919095160293909317835551929350916001820190610f1e9082611b11565b5060808201516002828101805460a086015160c08701516001600160a01b039095167fffffffffffff000000000000000000000000000000000000000000000000000090921691909117600160a01b65ffffffffffff928316021779ffffffffffffffffffffffffffffffffffffffffffffffffffff16600160d01b91909416029290921790915560e083015160038301556101009092015160049091015554600090815260076020526040902080546001919060ff19168280021790555060016002547f3cd05952bf89447515ba76534b26df87104c2ba104027f22a518d767243973c188604051610c0f9190611923565b6060600061101d610c28565b905060008167ffffffffffffffff81111561103a5761103a61177f565b6040519080825280602002602001820160405280156110b057816020015b6040805161012081018252600080825260208083018290529282018190526060808301526080820181905260a0820181905260c0820181905260e0820181905261010082015282526000199092019101816110585790505b509050426000805b6002548110156112b05760008181526005602052604090205460ff161580156110f55750600081815260056020526040902054610100900460ff16155b80156111205750600081815260056020526040902060020154600160a01b900465ffffffffffff1683115b801561114b5750600081815260056020526040902060020154600160d01b900465ffffffffffff1683105b156112a857600081815260056020908152604091829020825161012081018452815460ff80821615158352610100820416151593820193909352620100009092046001600160a01b0316928201929092526001820180549192916060840191906111b490611a8e565b80601f01602080910402602001604051908101604052809291908181526020018280546111e090611a8e565b801561122d5780601f106112025761010080835404028352916020019161122d565b820191906000526020600020905b81548152906001019060200180831161121057829003601f168201915b505050918352505060028201546001600160a01b038116602083015265ffffffffffff600160a01b820481166040840152600160d01b9091041660608201526003820154608082015260049091015460a090910152845185908490811061129657611296611cb2565b60209081029190910101526001909101905b6001016110b8565b5091949350505050565b6000600260015460016112cd9190611cc8565b6112d79190611cdb565b905090565b33600081815260046020526040812060010180549192918391906112ff90611a8e565b90501161133d5760405162461bcd60e51b815260206004820152600c60248201526b2737ba10309036b2b6b132b960a11b604482015260640161029f565b6001600160a01b03811660009081526004602052604090205460ff1615156001146113a05760405162461bcd60e51b815260206004820152601360248201527213595b58995c881b9bdd08185c1c1c9bdd9959606a1b604482015260640161029f565b6001600160a01b03831660009081526004602052604090205460ff1691505b50919050565b33600081815260046020526040812060010180546113e290611a8e565b9050116114205760405162461bcd60e51b815260206004820152600c60248201526b2737ba10309036b2b6b132b960a11b604482015260640161029f565b6001600160a01b03811660009081526004602052604090205460ff1615156001146114835760405162461bcd60e51b815260206004820152601360248201527213595b58995c881b9bdd08185c1c1c9bdd9959606a1b604482015260640161029f565b600082815260056020526040902080546201000090046001600160a01b031633146114f05760405162461bcd60e51b815260206004820181905260248201527f4e6f207065726d697373696f6e20746f2063616e63656c2070726f706f73616c604482015260640161029f565b805460ff1615801561150957508054610100900460ff16155b6115635760405162461bcd60e51b815260206004820152602560248201527f50726f706f73616c20616c7265616479206578656375746564206f722063616e60448201526418d95b195960da1b606482015260840161029f565b805461ff00191661010017815560405183907f789cf55be980739dad1d0699b93b58e806b51c9d96619bfa8fe0a28abaa7b30c90600090a2505050565b6115a86116b5565b6001600160a01b0381166115eb576040517f1e4fbdf70000000000000000000000000000000000000000000000000000000081526000600482015260240161029f565b6115f4816116fb565b50565b6001600160a01b03811660009081526004602052604090205460ff16156116605760405162461bcd60e51b815260206004820152601760248201527f4d656d62657220616c726561647920617070726f766564000000000000000000604482015260640161029f565b6001600160a01b038116600081815260046020526040808220805460ff19166001908117909155805481019055517f3da74045128fff0396b39203f81bcedcbcf28586f0f97fb0f41ceb5521566a159190a250565b6000546001600160a01b03163314610d7c576040517f118cdaa700000000000000000000000000000000000000000000000000000000815233600482015260240161029f565b600080546001600160a01b038381167fffffffffffffffffffffffff0000000000000000000000000000000000000000831681178455604051919092169283917f8be0079c531659141344cd1fd0a4f28419497f9722a3daafe3b4186f6b6457e09190a35050565b80356001600160a01b038116811461177a57600080fd5b919050565b634e487b7160e01b600052604160045260246000fd5b600067ffffffffffffffff808411156117b0576117b061177f565b604051601f8501601f19908116603f011681019082821181831017156117d8576117d861177f565b816040528093508581528686860111156117f157600080fd5b858560208301376000602087830101525050509392505050565b6000806040838503121561181e57600080fd5b61182783611763565b9150602083013567ffffffffffffffff81111561184357600080fd5b8301601f8101851361185457600080fd5b61186385823560208401611795565b9150509250929050565b60006020828403121561187f57600080fd5b5035919050565b6000806040838503121561189957600080fd5b82359150602083013580151581146118b057600080fd5b809150509250929050565b6000602082840312156118cd57600080fd5b6118d682611763565b9392505050565b6000815180845260005b81811015611903576020818501810151868301820152016118e7565b506000602082860101526020601f19601f83011685010191505092915050565b6020815260006118d660208301846118dd565b6000806040838503121561194957600080fd5b823567ffffffffffffffff81111561196057600080fd5b8301601f8101851361197157600080fd5b61198085823560208401611795565b92505061198f60208401611763565b90509250929050565b60006020808301818452808551808352604092508286019150828160051b87010184880160005b83811015611a8057603f19898403018552815180511515845287810151151588850152868101516001600160a01b0316878501526060808201516101208287018190529190611a10838801826118dd565b92505050608080830151611a2e828801826001600160a01b03169052565b505060a08281015165ffffffffffff811687830152505060c08281015165ffffffffffff811687830152505060e0828101519086015261010091820151919094015293860193908601906001016119bf565b509098975050505050505050565b600181811c90821680611aa257607f821691505b6020821081036113bf57634e487b7160e01b600052602260045260246000fd5b601f821115611b0c57600081815260208120601f850160051c81016020861015611ae95750805b601f850160051c820191505b81811015611b0857828155600101611af5565b5050505b505050565b815167ffffffffffffffff811115611b2b57611b2b61177f565b611b3f81611b398454611a8e565b84611ac2565b602080601f831160018114611b745760008415611b5c5750858301515b600019600386901b1c1916600185901b178555611b08565b600085815260208120601f198616915b82811015611ba357888601518255948401946001909101908401611b84565b5085821015611bc15787850151600019600388901b60f8161c191681555b5050505050600190811b01905550565b634e487b7160e01b600052601160045260246000fd5b81810381811115611bfa57611bfa611bd1565b92915050565b634e487b7160e01b600052602160045260246000fd5b6000808354611c2481611a8e565b60018281168015611c3c5760018114611c5157611c80565b60ff1984168752821515830287019450611c80565b8760005260208060002060005b85811015611c775781548a820152908401908201611c5e565b50505082870194505b50929695505050505050565b65ffffffffffff818116838216019080821115611cab57611cab611bd1565b5092915050565b634e487b7160e01b600052603260045260246000fd5b80820180821115611bfa57611bfa611bd1565b600082611cf857634e487b7160e01b600052601260045260246000fd5b50049056fea26469706673582212209004592562889f8f0fd95aa18cf065d58e6e32842c3f848033426240aa22194964736f6c63430008140033",
          "opcodes": "PUSH1 0x80 PUSH1 0x40 MSTORE CALLVALUE DUP1 ISZERO PUSH3 0x11 JUMPI PUSH1 0x0 DUP1 REVERT JUMPDEST POP PUSH1 0x40 MLOAD PUSH3 0x20EC CODESIZE SUB DUP1 PUSH3 0x20EC DUP4 CODECOPY DUP2 ADD PUSH1 0x40 DUP2 SWAP1 MSTORE PUSH3 0x34 SWAP2 PUSH3 0x1E4 JUMP JUMPDEST CALLER DUP1 PUSH3 0x5B JUMPI PUSH1 0x40 MLOAD PUSH4 0x1E4FBDF7 PUSH1 0xE0 SHL DUP2 MSTORE PUSH1 0x0 PUSH1 0x4 DUP3 ADD MSTORE PUSH1 0x24 ADD PUSH1 0x40 MLOAD DUP1 SWAP2 SUB SWAP1 REVERT JUMPDEST PUSH3 0x66 DUP2 PUSH3 0xCF JUMP JUMPDEST POP PUSH1 0x40 DUP1 MLOAD DUP1 DUP3 ADD DUP3 MSTORE PUSH1 0x20 DUP1 DUP3 ADD DUP5 DUP2 MSTORE PUSH1 0x1 DUP1 DUP5 MSTORE CALLER PUSH1 0x0 SWAP1 DUP2 MSTORE PUSH1 0x4 SWAP1 SWAP4 MSTORE SWAP4 SWAP1 SWAP2 KECCAK256 DUP3 MLOAD DUP2 SLOAD PUSH1 0xFF NOT AND SWAP1 ISZERO ISZERO OR DUP2 SSTORE SWAP1 MLOAD SWAP2 SWAP3 DUP4 SWAP3 SWAP1 DUP3 ADD SWAP1 PUSH3 0xB0 SWAP1 DUP3 PUSH3 0x2DD JUMP JUMPDEST POP POP PUSH1 0x1 DUP1 SSTORE POP PUSH1 0x3 PUSH3 0xC5 DUP5 DUP3 PUSH3 0x2DD JUMP JUMPDEST POP POP POP POP PUSH3 0x3A9 JUMP JUMPDEST PUSH1 0x0 DUP1 SLOAD PUSH1 0x1 PUSH1 0x1 PUSH1 0xA0 SHL SUB DUP4 DUP2 AND PUSH1 0x1 PUSH1 0x1 PUSH1 0xA0 SHL SUB NOT DUP4 AND DUP2 OR DUP5 SSTORE PUSH1 0x40 MLOAD SWAP2 SWAP1 SWAP3 AND SWAP3 DUP4 SWAP2 PUSH32 0x8BE0079C531659141344CD1FD0A4F28419497F9722A3DAAFE3B4186F6B6457E0 SWAP2 SWAP1 LOG3 POP POP JUMP JUMPDEST PUSH4 0x4E487B71 PUSH1 0xE0 SHL PUSH1 0x0 MSTORE PUSH1 0x41 PUSH1 0x4 MSTORE PUSH1 0x24 PUSH1 0x0 REVERT JUMPDEST PUSH1 0x0 DUP3 PUSH1 0x1F DUP4 ADD SLT PUSH3 0x147 JUMPI PUSH1 0x0 DUP1 REVERT JUMPDEST DUP2 MLOAD PUSH1 0x1 PUSH1 0x1 PUSH1 0x40 SHL SUB DUP1 DUP3 GT ISZERO PUSH3 0x164 JUMPI PUSH3 0x164 PUSH3 0x11F JUMP JUMPDEST PUSH1 0x40 MLOAD PUSH1 0x1F DUP4 ADD PUSH1 0x1F NOT SWAP1 DUP2 AND PUSH1 0x3F ADD AND DUP2 ADD SWAP1 DUP3 DUP3 GT DUP2 DUP4 LT OR ISZERO PUSH3 0x18F JUMPI PUSH3 0x18F PUSH3 0x11F JUMP JUMPDEST DUP2 PUSH1 0x40 MSTORE DUP4 DUP2 MSTORE PUSH1 0x20 SWAP3 POP DUP7 DUP4 DUP6 DUP9 ADD ADD GT ISZERO PUSH3 0x1AC JUMPI PUSH1 0x0 DUP1 REVERT JUMPDEST PUSH1 0x0 SWAP2 POP JUMPDEST DUP4 DUP3 LT ISZERO PUSH3 0x1D0 JUMPI DUP6 DUP3 ADD DUP4 ADD MLOAD DUP2 DUP4 ADD DUP5 ADD MSTORE SWAP1 DUP3 ADD SWAP1 PUSH3 0x1B1 JUMP JUMPDEST PUSH1 0x0 SWAP4 DUP2 ADD SWAP1 SWAP3 ADD SWAP3 SWAP1 SWAP3 MSTORE SWAP5 SWAP4 POP POP POP POP JUMP JUMPDEST PUSH1 0x0 DUP1 PUSH1 0x40 DUP4 DUP6 SUB SLT ISZERO PUSH3 0x1F8 JUMPI PUSH1 0x0 DUP1 REVERT JUMPDEST DUP3 MLOAD PUSH1 0x1 PUSH1 0x1 PUSH1 0x40 SHL SUB DUP1 DUP3 GT ISZERO PUSH3 0x210 JUMPI PUSH1 0x0 DUP1 REVERT JUMPDEST PUSH3 0x21E DUP7 DUP4 DUP8 ADD PUSH3 0x135 JUMP JUMPDEST SWAP4 POP PUSH1 0x20 DUP6 ADD MLOAD SWAP2 POP DUP1 DUP3 GT ISZERO PUSH3 0x235 JUMPI PUSH1 0x0 DUP1 REVERT JUMPDEST POP PUSH3 0x244 DUP6 DUP3 DUP7 ADD PUSH3 0x135 JUMP JUMPDEST SWAP2 POP POP SWAP3 POP SWAP3 SWAP1 POP JUMP JUMPDEST PUSH1 0x1 DUP2 DUP2 SHR SWAP1 DUP3 AND DUP1 PUSH3 0x263 JUMPI PUSH1 0x7F DUP3 AND SWAP2 POP JUMPDEST PUSH1 0x20 DUP3 LT DUP2 SUB PUSH3 0x284 JUMPI PUSH4 0x4E487B71 PUSH1 0xE0 SHL PUSH1 0x0 MSTORE PUSH1 0x22 PUSH1 0x4 MSTORE PUSH1 0x24 PUSH1 0x0 REVERT JUMPDEST POP SWAP2 SWAP1 POP JUMP JUMPDEST PUSH1 0x1F DUP3 GT ISZERO PUSH3 0x2D8 JUMPI PUSH1 0x0 DUP2 DUP2 MSTORE PUSH1 0x20 DUP2 KECCAK256 PUSH1 0x1F DUP6 ADD PUSH1 0x5 SHR DUP2 ADD PUSH1 0x20 DUP7 LT ISZERO PUSH3 0x2B3 JUMPI POP DUP1 JUMPDEST PUSH1 0x1F DUP6 ADD PUSH1 0x5 SHR DUP3 ADD SWAP2 POP JUMPDEST DUP2 DUP2 LT ISZERO PUSH3 0x2D4 JUMPI DUP3 DUP2 SSTORE PUSH1 0x1 ADD PUSH3 0x2BF JUMP JUMPDEST POP POP POP JUMPDEST POP POP POP JUMP JUMPDEST DUP2 MLOAD PUSH1 0x1 PUSH1 0x1 PUSH1 0x40 SHL SUB DUP2 GT ISZERO PUSH3 0x2F9 JUMPI PUSH3 0x2F9 PUSH3 0x11F JUMP JUMPDEST PUSH3 0x311 DUP2 PUSH3 0x30A DUP5 SLOAD PUSH3 0x24E JUMP JUMPDEST DUP5 PUSH3 0x28A JUMP JUMPDEST PUSH1 0x20 DUP1 PUSH1 0x1F DUP4 GT PUSH1 0x1 DUP2 EQ PUSH3 0x349 JUMPI PUSH1 0x0 DUP5 ISZERO PUSH3 0x330 JUMPI POP DUP6 DUP4 ADD MLOAD JUMPDEST PUSH1 0x0 NOT PUSH1 0x3 DUP7 SWAP1 SHL SHR NOT AND PUSH1 0x1 DUP6 SWAP1 SHL OR DUP6 SSTORE PUSH3 0x2D4 JUMP JUMPDEST PUSH1 0x0 DUP6 DUP2 MSTORE PUSH1 0x20 DUP2 KECCAK256 PUSH1 0x1F NOT DUP7 AND SWAP2 JUMPDEST DUP3 DUP2 LT ISZERO PUSH3 0x37A JUMPI DUP9 DUP7 ADD MLOAD DUP3 SSTORE SWAP5 DUP5 ADD SWAP5 PUSH1 0x1 SWAP1 SWAP2 ADD SWAP1 DUP5 ADD PUSH3 0x359 JUMP JUMPDEST POP DUP6 DUP3 LT ISZERO PUSH3 0x399 JUMPI DUP8 DUP6 ADD MLOAD PUSH1 0x0 NOT PUSH1 0x3 DUP9 SWAP1 SHL PUSH1 0xF8 AND SHR NOT AND DUP2 SSTORE JUMPDEST POP POP POP POP POP PUSH1 0x1 SWAP1 DUP2 SHL ADD SWAP1 SSTORE POP JUMP JUMPDEST PUSH2 0x1D33 DUP1 PUSH3 0x3B9 PUSH1 0x0 CODECOPY PUSH1 0x0 RETURN INVALID PUSH1 0x80 PUSH1 0x40 MSTORE CALLVALUE DUP1 ISZERO PUSH2 0x10 JUMPI PUSH1 0x0 DUP1 REVERT JUMPDEST POP PUSH1 0x4 CALLDATASIZE LT PUSH2 0x100 JUMPI PUSH1 0x0 CALLDATALOAD PUSH1 0xE0 SHR DUP1 PUSH4 0x715018A6 GT PUSH2 0x97 JUMPI DUP1 PUSH4 0xB58131B0 GT PUSH2 0x66 JUMPI DUP1 PUSH4 0xB58131B0 EQ PUSH2 0x1D8 JUMPI DUP1 PUSH4 0xCFBC02D4 EQ PUSH2 0x1E0 JUMPI DUP1 PUSH4 0xE0A8F6F5 EQ PUSH2 0x203 JUMPI DUP1 PUSH4 0xF2FDE38B EQ PUSH2 0x216 JUMPI PUSH1 0x0 DUP1 REVERT JUMPDEST DUP1 PUSH4 0x715018A6 EQ PUSH2 0x18D JUMPI DUP1 PUSH4 0x756A4BA3 EQ PUSH2 0x195 JUMPI DUP1 PUSH4 0x8DA5CB5B EQ PUSH2 0x1A8 JUMPI DUP1 PUSH4 0xAFE666F6 EQ PUSH2 0x1C3 JUMPI PUSH1 0x0 DUP1 REVERT JUMPDEST DUP1 PUSH4 0x18A41AEC GT PUSH2 0xD3 JUMPI DUP1 PUSH4 0x18A41AEC EQ PUSH2 0x156 JUMPI DUP1 PUSH4 0x27F5884B EQ PUSH2 0x169 JUMPI DUP1 PUSH4 0x3932ABB1 EQ PUSH2 0x171 JUMPI DUP1 PUSH4 0x7034731B EQ PUSH2 0x178 JUMPI PUSH1 0x0 DUP1 REVERT JUMPDEST DUP1 PUSH4 0x2A251A3 EQ PUSH2 0x105 JUMPI DUP1 PUSH4 0xAA5ADFC EQ PUSH2 0x11B JUMPI DUP1 PUSH4 0xD61B519 EQ PUSH2 0x130 JUMPI DUP1 PUSH4 0x15373E3D EQ PUSH2 0x143 JUMPI JUMPDEST PUSH1 0x0 DUP1 REVERT JUMPDEST PUSH1 0x3C JUMPDEST PUSH1 0x40 MLOAD SWAP1 DUP2 MSTORE PUSH1 0x20 ADD JUMPDEST PUSH1 0x40 MLOAD DUP1 SWAP2 SUB SWAP1 RETURN JUMPDEST PUSH2 0x12E PUSH2 0x129 CALLDATASIZE PUSH1 0x4 PUSH2 0x180B JUMP JUMPDEST PUSH2 0x229 JUMP JUMPDEST STOP JUMPDEST PUSH2 0x12E PUSH2 0x13E CALLDATASIZE PUSH1 0x4 PUSH2 0x186D JUMP JUMPDEST PUSH2 0x340 JUMP JUMPDEST PUSH2 0x12E PUSH2 0x151 CALLDATASIZE PUSH1 0x4 PUSH2 0x1886 JUMP JUMPDEST PUSH2 0x6EB JUMP JUMPDEST PUSH2 0x12E PUSH2 0x164 CALLDATASIZE PUSH1 0x4 PUSH2 0x18BB JUMP JUMPDEST PUSH2 0x94A JUMP JUMPDEST PUSH2 0x108 PUSH2 0xC28 JUMP JUMPDEST PUSH1 0x5 PUSH2 0x108 JUMP JUMPDEST PUSH2 0x180 PUSH2 0xCDC JUMP JUMPDEST PUSH1 0x40 MLOAD PUSH2 0x112 SWAP2 SWAP1 PUSH2 0x1923 JUMP JUMPDEST PUSH2 0x12E PUSH2 0xD6A JUMP JUMPDEST PUSH2 0x12E PUSH2 0x1A3 CALLDATASIZE PUSH1 0x4 PUSH2 0x1936 JUMP JUMPDEST PUSH2 0xD7E JUMP JUMPDEST PUSH1 0x0 SLOAD PUSH1 0x40 MLOAD PUSH1 0x1 PUSH1 0x1 PUSH1 0xA0 SHL SUB SWAP1 SWAP2 AND DUP2 MSTORE PUSH1 0x20 ADD PUSH2 0x112 JUMP JUMPDEST PUSH2 0x1CB PUSH2 0x1011 JUMP JUMPDEST PUSH1 0x40 MLOAD PUSH2 0x112 SWAP2 SWAP1 PUSH2 0x1998 JUMP JUMPDEST PUSH2 0x108 PUSH2 0x12BA JUMP JUMPDEST PUSH2 0x1F3 PUSH2 0x1EE CALLDATASIZE PUSH1 0x4 PUSH2 0x18BB JUMP JUMPDEST PUSH2 0x12DC JUMP JUMPDEST PUSH1 0x40 MLOAD SWAP1 ISZERO ISZERO DUP2 MSTORE PUSH1 0x20 ADD PUSH2 0x112 JUMP JUMPDEST PUSH2 0x12E PUSH2 0x211 CALLDATASIZE PUSH1 0x4 PUSH2 0x186D JUMP JUMPDEST PUSH2 0x13C5 JUMP JUMPDEST PUSH2 0x12E PUSH2 0x224 CALLDATASIZE PUSH1 0x4 PUSH2 0x18BB JUMP JUMPDEST PUSH2 0x15A0 JUMP JUMPDEST PUSH1 0x1 PUSH1 0x1 PUSH1 0xA0 SHL SUB DUP3 AND PUSH1 0x0 SWAP1 DUP2 MSTORE PUSH1 0x4 PUSH1 0x20 MSTORE PUSH1 0x40 DUP2 KECCAK256 PUSH1 0x1 ADD DUP1 SLOAD DUP5 SWAP3 SWAP2 SWAP1 PUSH2 0x253 SWAP1 PUSH2 0x1A8E JUMP JUMPDEST SWAP1 POP GT ISZERO PUSH2 0x2A8 JUMPI PUSH1 0x40 MLOAD PUSH3 0x461BCD PUSH1 0xE5 SHL DUP2 MSTORE PUSH1 0x20 PUSH1 0x4 DUP3 ADD MSTORE PUSH1 0x10 PUSH1 0x24 DUP3 ADD MSTORE PUSH32 0x416C72656164792061206D656D62657200000000000000000000000000000000 PUSH1 0x44 DUP3 ADD MSTORE PUSH1 0x64 ADD JUMPDEST PUSH1 0x40 MLOAD DUP1 SWAP2 SUB SWAP1 REVERT JUMPDEST PUSH1 0x40 DUP1 MLOAD DUP1 DUP3 ADD DUP3 MSTORE PUSH1 0x0 DUP1 DUP3 MSTORE PUSH1 0x20 DUP1 DUP4 ADD DUP7 DUP2 MSTORE PUSH1 0x1 PUSH1 0x1 PUSH1 0xA0 SHL SUB DUP9 AND DUP4 MSTORE PUSH1 0x4 SWAP1 SWAP2 MSTORE SWAP3 SWAP1 KECCAK256 DUP2 MLOAD DUP2 SLOAD PUSH1 0xFF NOT AND SWAP1 ISZERO ISZERO OR DUP2 SSTORE SWAP2 MLOAD SWAP1 SWAP2 DUP3 SWAP2 PUSH1 0x1 DUP3 ADD SWAP1 PUSH2 0x2F5 SWAP1 DUP3 PUSH2 0x1B11 JUMP JUMPDEST POP SWAP1 POP POP DUP4 PUSH1 0x1 PUSH1 0x1 PUSH1 0xA0 SHL SUB AND PUSH32 0x3B09349069A59BCDE8C2609AFC86C80B77C81085AC8CD8662981621F7EA3574B DUP5 PUSH1 0x40 MLOAD PUSH2 0x332 SWAP2 SWAP1 PUSH2 0x1923 JUMP JUMPDEST PUSH1 0x40 MLOAD DUP1 SWAP2 SUB SWAP1 LOG2 POP POP POP POP JUMP JUMPDEST PUSH1 0x0 DUP2 DUP2 MSTORE PUSH1 0x5 PUSH1 0x20 MSTORE PUSH1 0x40 SWAP1 KECCAK256 PUSH1 0x2 DUP2 ADD SLOAD PUSH1 0x1 PUSH1 0xA0 SHL SWAP1 DIV PUSH6 0xFFFFFFFFFFFF AND TIMESTAMP GT DUP1 ISZERO PUSH2 0x382 JUMPI POP PUSH1 0x2 DUP2 ADD SLOAD PUSH1 0x1 PUSH1 0xD0 SHL SWAP1 DIV PUSH6 0xFFFFFFFFFFFF AND TIMESTAMP LT JUMPDEST ISZERO PUSH2 0x3CF JUMPI PUSH1 0x40 MLOAD PUSH3 0x461BCD PUSH1 0xE5 SHL DUP2 MSTORE PUSH1 0x20 PUSH1 0x4 DUP3 ADD MSTORE PUSH1 0x15 PUSH1 0x24 DUP3 ADD MSTORE PUSH32 0x566F74696E67207374696C6C20676F696E67206F6E0000000000000000000000 PUSH1 0x44 DUP3 ADD MSTORE PUSH1 0x64 ADD PUSH2 0x29F JUMP JUMPDEST DUP1 SLOAD PUSH1 0xFF AND ISZERO DUP1 ISZERO PUSH2 0x3E8 JUMPI POP DUP1 SLOAD PUSH2 0x100 SWAP1 DIV PUSH1 0xFF AND ISZERO JUMPDEST PUSH2 0x442 JUMPI PUSH1 0x40 MLOAD PUSH3 0x461BCD PUSH1 0xE5 SHL DUP2 MSTORE PUSH1 0x20 PUSH1 0x4 DUP3 ADD MSTORE PUSH1 0x25 PUSH1 0x24 DUP3 ADD MSTORE PUSH32 0x50726F706F73616C20616C7265616479206578656375746564206F722063616E PUSH1 0x44 DUP3 ADD MSTORE PUSH5 0x18D95B1959 PUSH1 0xDA SHL PUSH1 0x64 DUP3 ADD MSTORE PUSH1 0x84 ADD PUSH2 0x29F JUMP JUMPDEST PUSH1 0x1 PUSH2 0x44C PUSH2 0x12BA JUMP JUMPDEST PUSH2 0x456 SWAP2 SWAP1 PUSH2 0x1BE7 JUMP JUMPDEST DUP2 PUSH1 0x3 ADD SLOAD GT PUSH2 0x4CE JUMPI PUSH1 0x40 MLOAD PUSH3 0x461BCD PUSH1 0xE5 SHL DUP2 MSTORE PUSH1 0x20 PUSH1 0x4 DUP3 ADD MSTORE PUSH1 0x23 PUSH1 0x24 DUP3 ADD MSTORE PUSH32 0x50726F706F73616C20646F65736E27742068617665206D616A6F726974792076 PUSH1 0x44 DUP3 ADD MSTORE PUSH32 0x6F74650000000000000000000000000000000000000000000000000000000000 PUSH1 0x64 DUP3 ADD MSTORE PUSH1 0x84 ADD PUSH2 0x29F JUMP JUMPDEST PUSH1 0x0 DUP3 DUP2 MSTORE PUSH1 0x7 PUSH1 0x20 MSTORE PUSH1 0x40 DUP2 KECCAK256 SLOAD PUSH1 0xFF AND PUSH1 0x1 DUP2 GT ISZERO PUSH2 0x4F1 JUMPI PUSH2 0x4F1 PUSH2 0x1C00 JUMP JUMPDEST SUB PUSH2 0x5CF JUMPI PUSH2 0x595 PUSH2 0x590 DUP3 PUSH1 0x1 ADD DUP1 SLOAD PUSH2 0x50B SWAP1 PUSH2 0x1A8E JUMP JUMPDEST DUP1 PUSH1 0x1F ADD PUSH1 0x20 DUP1 SWAP2 DIV MUL PUSH1 0x20 ADD PUSH1 0x40 MLOAD SWAP1 DUP2 ADD PUSH1 0x40 MSTORE DUP1 SWAP3 SWAP2 SWAP1 DUP2 DUP2 MSTORE PUSH1 0x20 ADD DUP3 DUP1 SLOAD PUSH2 0x537 SWAP1 PUSH2 0x1A8E JUMP JUMPDEST DUP1 ISZERO PUSH2 0x584 JUMPI DUP1 PUSH1 0x1F LT PUSH2 0x559 JUMPI PUSH2 0x100 DUP1 DUP4 SLOAD DIV MUL DUP4 MSTORE SWAP2 PUSH1 0x20 ADD SWAP2 PUSH2 0x584 JUMP JUMPDEST DUP3 ADD SWAP2 SWAP1 PUSH1 0x0 MSTORE PUSH1 0x20 PUSH1 0x0 KECCAK256 SWAP1 JUMPDEST DUP2 SLOAD DUP2 MSTORE SWAP1 PUSH1 0x1 ADD SWAP1 PUSH1 0x20 ADD DUP1 DUP4 GT PUSH2 0x567 JUMPI DUP3 SWAP1 SUB PUSH1 0x1F AND DUP3 ADD SWAP2 JUMPDEST POP POP POP POP POP PUSH1 0x14 ADD MLOAD SWAP1 JUMP JUMPDEST PUSH2 0x15F7 JUMP JUMPDEST DUP1 SLOAD PUSH1 0xFF NOT AND PUSH1 0x1 OR DUP2 SSTORE PUSH1 0x40 MLOAD DUP3 SWAP1 PUSH32 0x712AE1383F79AC853F8D882153778E0260EF8F03B504E2866E0593E04D2B291F SWAP1 PUSH1 0x0 SWAP1 LOG2 POP POP JUMP JUMPDEST PUSH1 0x1 PUSH1 0x0 DUP4 DUP2 MSTORE PUSH1 0x7 PUSH1 0x20 MSTORE PUSH1 0x40 SWAP1 KECCAK256 SLOAD PUSH1 0xFF AND PUSH1 0x1 DUP2 GT ISZERO PUSH2 0x5F4 JUMPI PUSH2 0x5F4 PUSH2 0x1C00 JUMP JUMPDEST SUB PUSH2 0x6E7 JUMPI PUSH1 0x2 DUP2 ADD SLOAD PUSH1 0x40 MLOAD PUSH1 0x0 SWAP2 PUSH1 0x1 PUSH1 0x1 PUSH1 0xA0 SHL SUB AND SWAP1 PUSH2 0x61C SWAP1 PUSH1 0x1 DUP6 ADD SWAP1 PUSH2 0x1C16 JUMP JUMPDEST PUSH1 0x0 PUSH1 0x40 MLOAD DUP1 DUP4 SUB DUP2 PUSH1 0x0 DUP7 GAS CALL SWAP2 POP POP RETURNDATASIZE DUP1 PUSH1 0x0 DUP2 EQ PUSH2 0x659 JUMPI PUSH1 0x40 MLOAD SWAP2 POP PUSH1 0x1F NOT PUSH1 0x3F RETURNDATASIZE ADD AND DUP3 ADD PUSH1 0x40 MSTORE RETURNDATASIZE DUP3 MSTORE RETURNDATASIZE PUSH1 0x0 PUSH1 0x20 DUP5 ADD RETURNDATACOPY PUSH2 0x65E JUMP JUMPDEST PUSH1 0x60 SWAP2 POP JUMPDEST POP POP SWAP1 POP DUP1 PUSH2 0x6AF JUMPI PUSH1 0x40 MLOAD PUSH3 0x461BCD PUSH1 0xE5 SHL DUP2 MSTORE PUSH1 0x20 PUSH1 0x4 DUP3 ADD MSTORE PUSH1 0x19 PUSH1 0x24 DUP3 ADD MSTORE PUSH32 0x50726F706F73616C20657865637574696F6E206661696C656400000000000000 PUSH1 0x44 DUP3 ADD MSTORE PUSH1 0x64 ADD PUSH2 0x29F JUMP JUMPDEST DUP2 SLOAD PUSH1 0xFF NOT AND PUSH1 0x1 OR DUP3 SSTORE PUSH1 0x40 MLOAD DUP4 SWAP1 PUSH32 0x712AE1383F79AC853F8D882153778E0260EF8F03B504E2866E0593E04D2B291F SWAP1 PUSH1 0x0 SWAP1 LOG2 POP JUMPDEST POP POP JUMP JUMPDEST CALLER PUSH1 0x0 DUP2 DUP2 MSTORE PUSH1 0x4 PUSH1 0x20 MSTORE PUSH1 0x40 DUP2 KECCAK256 PUSH1 0x1 ADD DUP1 SLOAD PUSH2 0x708 SWAP1 PUSH2 0x1A8E JUMP JUMPDEST SWAP1 POP GT PUSH2 0x746 JUMPI PUSH1 0x40 MLOAD PUSH3 0x461BCD PUSH1 0xE5 SHL DUP2 MSTORE PUSH1 0x20 PUSH1 0x4 DUP3 ADD MSTORE PUSH1 0xC PUSH1 0x24 DUP3 ADD MSTORE PUSH12 0x2737BA10309036B2B6B132B9 PUSH1 0xA1 SHL PUSH1 0x44 DUP3 ADD MSTORE PUSH1 0x64 ADD PUSH2 0x29F JUMP JUMPDEST PUSH1 0x1 PUSH1 0x1 PUSH1 0xA0 SHL SUB DUP2 AND PUSH1 0x0 SWAP1 DUP2 MSTORE PUSH1 0x4 PUSH1 0x20 MSTORE PUSH1 0x40 SWAP1 KECCAK256 SLOAD PUSH1 0xFF AND ISZERO ISZERO PUSH1 0x1 EQ PUSH2 0x7A9 JUMPI PUSH1 0x40 MLOAD PUSH3 0x461BCD PUSH1 0xE5 SHL DUP2 MSTORE PUSH1 0x20 PUSH1 0x4 DUP3 ADD MSTORE PUSH1 0x13 PUSH1 0x24 DUP3 ADD MSTORE PUSH19 0x13595B58995C881B9BDD08185C1C1C9BDD9959 PUSH1 0x6A SHL PUSH1 0x44 DUP3 ADD MSTORE PUSH1 0x64 ADD PUSH2 0x29F JUMP JUMPDEST PUSH1 0x0 DUP4 DUP2 MSTORE PUSH1 0x6 PUSH1 0x20 SWAP1 DUP2 MSTORE PUSH1 0x40 DUP1 DUP4 KECCAK256 PUSH1 0x5 SWAP1 SWAP3 MSTORE SWAP1 SWAP2 KECCAK256 PUSH1 0x2 DUP2 ADD SLOAD PUSH1 0x1 PUSH1 0xA0 SHL SWAP1 DIV PUSH6 0xFFFFFFFFFFFF AND TIMESTAMP GT DUP1 ISZERO PUSH2 0x7F6 JUMPI POP PUSH1 0x2 DUP2 ADD SLOAD PUSH1 0x1 PUSH1 0xD0 SHL SWAP1 DIV PUSH6 0xFFFFFFFFFFFF AND TIMESTAMP LT JUMPDEST PUSH2 0x868 JUMPI PUSH1 0x40 MLOAD PUSH3 0x461BCD PUSH1 0xE5 SHL DUP2 MSTORE PUSH1 0x20 PUSH1 0x4 DUP3 ADD MSTORE PUSH1 0x22 PUSH1 0x24 DUP3 ADD MSTORE PUSH32 0x566F74696E67206973206E6F7420616C6C6F7765642061742074686973207469 PUSH1 0x44 DUP3 ADD MSTORE PUSH32 0x6D65000000000000000000000000000000000000000000000000000000000000 PUSH1 0x64 DUP3 ADD MSTORE PUSH1 0x84 ADD PUSH2 0x29F JUMP JUMPDEST CALLER PUSH1 0x0 SWAP1 DUP2 MSTORE PUSH1 0x20 DUP4 SWAP1 MSTORE PUSH1 0x40 SWAP1 KECCAK256 SLOAD PUSH1 0xFF AND ISZERO DUP1 ISZERO PUSH2 0x89A JUMPI POP CALLER PUSH1 0x0 SWAP1 DUP2 MSTORE PUSH1 0x1 DUP4 ADD PUSH1 0x20 MSTORE PUSH1 0x40 SWAP1 KECCAK256 SLOAD PUSH1 0xFF AND ISZERO JUMPDEST PUSH2 0x8E6 JUMPI PUSH1 0x40 MLOAD PUSH3 0x461BCD PUSH1 0xE5 SHL DUP2 MSTORE PUSH1 0x20 PUSH1 0x4 DUP3 ADD MSTORE PUSH1 0x1F PUSH1 0x24 DUP3 ADD MSTORE PUSH32 0x416C726561647920766F74656420666F7220746869732070726F706F73616C00 PUSH1 0x44 DUP3 ADD MSTORE PUSH1 0x64 ADD PUSH2 0x29F JUMP JUMPDEST DUP4 ISZERO PUSH2 0x919 JUMPI PUSH1 0x3 DUP2 ADD DUP1 SLOAD PUSH1 0x1 SWAP1 DUP2 ADD SWAP1 SWAP2 SSTORE CALLER PUSH1 0x0 SWAP1 DUP2 MSTORE PUSH1 0x20 DUP5 SWAP1 MSTORE PUSH1 0x40 SWAP1 KECCAK256 DUP1 SLOAD PUSH1 0xFF NOT AND SWAP1 SWAP2 OR SWAP1 SSTORE PUSH2 0x943 JUMP JUMPDEST PUSH1 0x4 DUP2 ADD DUP1 SLOAD PUSH1 0x1 SWAP1 DUP2 ADD SWAP1 SWAP2 SSTORE CALLER PUSH1 0x0 SWAP1 DUP2 MSTORE DUP4 DUP3 ADD PUSH1 0x20 MSTORE PUSH1 0x40 SWAP1 KECCAK256 DUP1 SLOAD PUSH1 0xFF NOT AND SWAP1 SWAP2 OR SWAP1 SSTORE JUMPDEST POP POP POP POP POP JUMP JUMPDEST CALLER PUSH1 0x0 DUP2 DUP2 MSTORE PUSH1 0x4 PUSH1 0x20 MSTORE PUSH1 0x40 DUP2 KECCAK256 PUSH1 0x1 ADD DUP1 SLOAD PUSH2 0x967 SWAP1 PUSH2 0x1A8E JUMP JUMPDEST SWAP1 POP GT PUSH2 0x9A5 JUMPI PUSH1 0x40 MLOAD PUSH3 0x461BCD PUSH1 0xE5 SHL DUP2 MSTORE PUSH1 0x20 PUSH1 0x4 DUP3 ADD MSTORE PUSH1 0xC PUSH1 0x24 DUP3 ADD MSTORE PUSH12 0x2737BA10309036B2B6B132B9 PUSH1 0xA1 SHL PUSH1 0x44 DUP3 ADD MSTORE PUSH1 0x64 ADD PUSH2 0x29F JUMP JUMPDEST PUSH1 0x1 PUSH1 0x1 PUSH1 0xA0 SHL SUB DUP2 AND PUSH1 0x0 SWAP1 DUP2 MSTORE PUSH1 0x4 PUSH1 0x20 MSTORE PUSH1 0x40 SWAP1 KECCAK256 SLOAD PUSH1 0xFF AND ISZERO ISZERO PUSH1 0x1 EQ PUSH2 0xA08 JUMPI PUSH1 0x40 MLOAD PUSH3 0x461BCD PUSH1 0xE5 SHL DUP2 MSTORE PUSH1 0x20 PUSH1 0x4 DUP3 ADD MSTORE PUSH1 0x13 PUSH1 0x24 DUP3 ADD MSTORE PUSH19 0x13595B58995C881B9BDD08185C1C1C9BDD9959 PUSH1 0x6A SHL PUSH1 0x44 DUP3 ADD MSTORE PUSH1 0x64 ADD PUSH2 0x29F JUMP JUMPDEST TIMESTAMP PUSH1 0x0 PUSH2 0xA16 PUSH1 0x5 DUP4 PUSH2 0x1C8C JUMP JUMPDEST SWAP1 POP PUSH1 0x0 PUSH2 0xA25 PUSH1 0x3C DUP4 PUSH2 0x1C8C JUMP JUMPDEST PUSH1 0x40 DUP1 MLOAD PUSH1 0x60 DUP9 SWAP1 SHL PUSH12 0xFFFFFFFFFFFFFFFFFFFFFFFF NOT AND PUSH1 0x20 DUP1 DUP4 ADD SWAP2 SWAP1 SWAP2 MSTORE DUP3 MLOAD DUP1 DUP4 SUB PUSH1 0x14 ADD DUP2 MSTORE PUSH2 0x154 DUP4 ADD DUP5 MSTORE PUSH1 0x0 PUSH1 0x34 DUP5 ADD DUP2 DUP2 MSTORE PUSH1 0x54 DUP6 ADD DUP3 DUP2 MSTORE CALLER PUSH1 0x74 DUP8 ADD SWAP1 DUP2 MSTORE PUSH1 0x94 DUP8 ADD DUP6 DUP2 MSTORE PUSH2 0xDEAD PUSH1 0xB4 DUP10 ADD MSTORE PUSH6 0xFFFFFFFFFFFF DUP13 DUP2 AND PUSH1 0xD4 DUP11 ADD MSTORE DUP11 AND PUSH1 0xF4 DUP10 ADD MSTORE PUSH2 0x114 DUP9 ADD DUP6 SWAP1 MSTORE PUSH2 0x134 SWAP1 SWAP8 ADD DUP5 SWAP1 MSTORE PUSH1 0x2 SLOAD DUP5 MSTORE PUSH1 0x5 SWAP1 SWAP6 MSTORE SWAP6 SWAP1 SWAP2 KECCAK256 DUP2 MLOAD DUP2 SLOAD SWAP7 MLOAD SWAP5 MLOAD PUSH1 0x1 PUSH1 0x1 PUSH1 0xA0 SHL SUB AND PUSH3 0x10000 MUL PUSH22 0xFFFFFFFFFFFFFFFFFFFFFFFFFFFFFFFFFFFFFFFF0000 NOT SWAP6 ISZERO ISZERO PUSH2 0x100 MUL PUSH2 0xFF00 NOT SWAP3 ISZERO ISZERO SWAP3 SWAP1 SWAP3 AND PUSH2 0xFFFF NOT SWAP1 SWAP9 AND SWAP8 SWAP1 SWAP8 OR OR SWAP4 SWAP1 SWAP4 AND SWAP5 SWAP1 SWAP5 OR DUP3 SSTORE SWAP2 MLOAD SWAP4 SWAP5 POP SWAP1 SWAP3 PUSH1 0x1 DUP3 ADD SWAP1 PUSH2 0xB1F SWAP1 DUP3 PUSH2 0x1B11 JUMP JUMPDEST POP PUSH1 0x80 DUP3 ADD MLOAD PUSH1 0x2 DUP3 DUP2 ADD DUP1 SLOAD PUSH1 0xA0 DUP7 ADD MLOAD PUSH1 0xC0 DUP8 ADD MLOAD PUSH1 0x1 PUSH1 0x1 PUSH1 0xA0 SHL SUB SWAP1 SWAP6 AND PUSH32 0xFFFFFFFFFFFF0000000000000000000000000000000000000000000000000000 SWAP1 SWAP3 AND SWAP2 SWAP1 SWAP2 OR PUSH1 0x1 PUSH1 0xA0 SHL PUSH6 0xFFFFFFFFFFFF SWAP3 DUP4 AND MUL OR PUSH26 0xFFFFFFFFFFFFFFFFFFFFFFFFFFFFFFFFFFFFFFFFFFFFFFFFFFFF AND PUSH1 0x1 PUSH1 0xD0 SHL SWAP2 SWAP1 SWAP5 AND MUL SWAP3 SWAP1 SWAP3 OR SWAP1 SWAP2 SSTORE PUSH1 0xE0 DUP4 ADD MLOAD PUSH1 0x3 DUP4 ADD SSTORE PUSH2 0x100 SWAP1 SWAP3 ADD MLOAD PUSH1 0x4 SWAP1 SWAP2 ADD SSTORE SLOAD PUSH1 0x0 SWAP1 DUP2 MSTORE PUSH1 0x7 PUSH1 0x20 MSTORE PUSH1 0x40 DUP2 KECCAK256 DUP1 SLOAD PUSH1 0xFF NOT AND PUSH1 0x1 DUP4 MUL OR SWAP1 SSTORE POP PUSH1 0x0 PUSH1 0x2 SLOAD PUSH32 0x3CD05952BF89447515BA76534B26DF87104C2BA104027F22A518D767243973C1 DUP4 PUSH1 0x40 MLOAD PUSH2 0xC0F SWAP2 SWAP1 PUSH2 0x1923 JUMP JUMPDEST PUSH1 0x40 MLOAD DUP1 SWAP2 SUB SWAP1 LOG3 POP POP PUSH1 0x2 DUP1 SLOAD PUSH1 0x1 ADD SWAP1 SSTORE POP POP POP POP JUMP JUMPDEST PUSH1 0x2 SLOAD PUSH1 0x0 SWAP1 TIMESTAMP DUP3 JUMPDEST DUP3 DUP2 LT ISZERO PUSH2 0xCD6 JUMPI PUSH1 0x0 DUP2 DUP2 MSTORE PUSH1 0x5 PUSH1 0x20 MSTORE PUSH1 0x40 SWAP1 KECCAK256 SLOAD PUSH1 0xFF AND ISZERO DUP1 ISZERO PUSH2 0xC6C JUMPI POP PUSH1 0x0 DUP2 DUP2 MSTORE PUSH1 0x5 PUSH1 0x20 MSTORE PUSH1 0x40 SWAP1 KECCAK256 SLOAD PUSH2 0x100 SWAP1 DIV PUSH1 0xFF AND ISZERO JUMPDEST DUP1 ISZERO PUSH2 0xC97 JUMPI POP PUSH1 0x0 DUP2 DUP2 MSTORE PUSH1 0x5 PUSH1 0x20 MSTORE PUSH1 0x40 SWAP1 KECCAK256 PUSH1 0x2 ADD SLOAD PUSH1 0x1 PUSH1 0xA0 SHL SWAP1 DIV PUSH6 0xFFFFFFFFFFFF AND DUP3 GT JUMPDEST DUP1 ISZERO PUSH2 0xCC2 JUMPI POP PUSH1 0x0 DUP2 DUP2 MSTORE PUSH1 0x5 PUSH1 0x20 MSTORE PUSH1 0x40 SWAP1 KECCAK256 PUSH1 0x2 ADD SLOAD PUSH1 0x1 PUSH1 0xD0 SHL SWAP1 DIV PUSH6 0xFFFFFFFFFFFF AND DUP3 LT JUMPDEST ISZERO PUSH2 0xCCE JUMPI PUSH1 0x1 SWAP1 SWAP4 ADD SWAP3 JUMPDEST PUSH1 0x1 ADD PUSH2 0xC31 JUMP JUMPDEST POP POP POP SWAP1 JUMP JUMPDEST PUSH1 0x3 DUP1 SLOAD PUSH2 0xCE9 SWAP1 PUSH2 0x1A8E JUMP JUMPDEST DUP1 PUSH1 0x1F ADD PUSH1 0x20 DUP1 SWAP2 DIV MUL PUSH1 0x20 ADD PUSH1 0x40 MLOAD SWAP1 DUP2 ADD PUSH1 0x40 MSTORE DUP1 SWAP3 SWAP2 SWAP1 DUP2 DUP2 MSTORE PUSH1 0x20 ADD DUP3 DUP1 SLOAD PUSH2 0xD15 SWAP1 PUSH2 0x1A8E JUMP JUMPDEST DUP1 ISZERO PUSH2 0xD62 JUMPI DUP1 PUSH1 0x1F LT PUSH2 0xD37 JUMPI PUSH2 0x100 DUP1 DUP4 SLOAD DIV MUL DUP4 MSTORE SWAP2 PUSH1 0x20 ADD SWAP2 PUSH2 0xD62 JUMP JUMPDEST DUP3 ADD SWAP2 SWAP1 PUSH1 0x0 MSTORE PUSH1 0x20 PUSH1 0x0 KECCAK256 SWAP1 JUMPDEST DUP2 SLOAD DUP2 MSTORE SWAP1 PUSH1 0x1 ADD SWAP1 PUSH1 0x20 ADD DUP1 DUP4 GT PUSH2 0xD45 JUMPI DUP3 SWAP1 SUB PUSH1 0x1F AND DUP3 ADD SWAP2 JUMPDEST POP POP POP POP POP DUP2 JUMP JUMPDEST PUSH2 0xD72 PUSH2 0x16B5 JUMP JUMPDEST PUSH2 0xD7C PUSH1 0x0 PUSH2 0x16FB JUMP JUMPDEST JUMP JUMPDEST CALLER PUSH1 0x0 DUP2 DUP2 MSTORE PUSH1 0x4 PUSH1 0x20 MSTORE PUSH1 0x40 DUP2 KECCAK256 PUSH1 0x1 ADD DUP1 SLOAD PUSH2 0xD9B SWAP1 PUSH2 0x1A8E JUMP JUMPDEST SWAP1 POP GT PUSH2 0xDD9 JUMPI PUSH1 0x40 MLOAD PUSH3 0x461BCD PUSH1 0xE5 SHL DUP2 MSTORE PUSH1 0x20 PUSH1 0x4 DUP3 ADD MSTORE PUSH1 0xC PUSH1 0x24 DUP3 ADD MSTORE PUSH12 0x2737BA10309036B2B6B132B9 PUSH1 0xA1 SHL PUSH1 0x44 DUP3 ADD MSTORE PUSH1 0x64 ADD PUSH2 0x29F JUMP JUMPDEST PUSH1 0x1 PUSH1 0x1 PUSH1 0xA0 SHL SUB DUP2 AND PUSH1 0x0 SWAP1 DUP2 MSTORE PUSH1 0x4 PUSH1 0x20 MSTORE PUSH1 0x40 SWAP1 KECCAK256 SLOAD PUSH1 0xFF AND ISZERO ISZERO PUSH1 0x1 EQ PUSH2 0xE3C JUMPI PUSH1 0x40 MLOAD PUSH3 0x461BCD PUSH1 0xE5 SHL DUP2 MSTORE PUSH1 0x20 PUSH1 0x4 DUP3 ADD MSTORE PUSH1 0x13 PUSH1 0x24 DUP3 ADD MSTORE PUSH19 0x13595B58995C881B9BDD08185C1C1C9BDD9959 PUSH1 0x6A SHL PUSH1 0x44 DUP3 ADD MSTORE PUSH1 0x64 ADD PUSH2 0x29F JUMP JUMPDEST TIMESTAMP PUSH1 0x0 PUSH2 0xE4A PUSH1 0x5 DUP4 PUSH2 0x1C8C JUMP JUMPDEST SWAP1 POP PUSH1 0x0 PUSH2 0xE59 PUSH1 0x3C DUP4 PUSH2 0x1C8C JUMP JUMPDEST PUSH1 0x40 DUP1 MLOAD PUSH2 0x120 DUP2 ADD DUP3 MSTORE PUSH1 0x0 DUP1 DUP3 MSTORE PUSH1 0x20 DUP1 DUP4 ADD DUP3 DUP2 MSTORE CALLER DUP5 DUP7 ADD SWAP1 DUP2 MSTORE PUSH1 0x60 DUP6 ADD DUP14 DUP2 MSTORE PUSH1 0x1 PUSH1 0x1 PUSH1 0xA0 SHL SUB DUP14 DUP2 AND PUSH1 0x80 DUP9 ADD MSTORE PUSH6 0xFFFFFFFFFFFF DUP12 DUP2 AND PUSH1 0xA0 DUP10 ADD MSTORE DUP10 AND PUSH1 0xC0 DUP9 ADD MSTORE PUSH1 0xE0 DUP8 ADD DUP7 SWAP1 MSTORE PUSH2 0x100 DUP1 DUP9 ADD DUP8 SWAP1 MSTORE PUSH1 0x2 SLOAD DUP8 MSTORE PUSH1 0x5 SWAP1 SWAP6 MSTORE SWAP7 SWAP1 SWAP5 KECCAK256 DUP6 MLOAD DUP2 SLOAD SWAP4 MLOAD SWAP3 MLOAD PUSH2 0xFFFF NOT SWAP1 SWAP5 AND SWAP1 ISZERO ISZERO PUSH2 0xFF00 NOT AND OR SWAP2 ISZERO ISZERO SWAP1 SWAP4 MUL OR PUSH22 0xFFFFFFFFFFFFFFFFFFFFFFFFFFFFFFFFFFFFFFFF0000 NOT AND PUSH3 0x10000 SWAP2 SWAP1 SWAP6 AND MUL SWAP4 SWAP1 SWAP4 OR DUP4 SSTORE MLOAD SWAP3 SWAP4 POP SWAP2 PUSH1 0x1 DUP3 ADD SWAP1 PUSH2 0xF1E SWAP1 DUP3 PUSH2 0x1B11 JUMP JUMPDEST POP PUSH1 0x80 DUP3 ADD MLOAD PUSH1 0x2 DUP3 DUP2 ADD DUP1 SLOAD PUSH1 0xA0 DUP7 ADD MLOAD PUSH1 0xC0 DUP8 ADD MLOAD PUSH1 0x1 PUSH1 0x1 PUSH1 0xA0 SHL SUB SWAP1 SWAP6 AND PUSH32 0xFFFFFFFFFFFF0000000000000000000000000000000000000000000000000000 SWAP1 SWAP3 AND SWAP2 SWAP1 SWAP2 OR PUSH1 0x1 PUSH1 0xA0 SHL PUSH6 0xFFFFFFFFFFFF SWAP3 DUP4 AND MUL OR PUSH26 0xFFFFFFFFFFFFFFFFFFFFFFFFFFFFFFFFFFFFFFFFFFFFFFFFFFFF AND PUSH1 0x1 PUSH1 0xD0 SHL SWAP2 SWAP1 SWAP5 AND MUL SWAP3 SWAP1 SWAP3 OR SWAP1 SWAP2 SSTORE PUSH1 0xE0 DUP4 ADD MLOAD PUSH1 0x3 DUP4 ADD SSTORE PUSH2 0x100 SWAP1 SWAP3 ADD MLOAD PUSH1 0x4 SWAP1 SWAP2 ADD SSTORE SLOAD PUSH1 0x0 SWAP1 DUP2 MSTORE PUSH1 0x7 PUSH1 0x20 MSTORE PUSH1 0x40 SWAP1 KECCAK256 DUP1 SLOAD PUSH1 0x1 SWAP2 SWAP1 PUSH1 0xFF NOT AND DUP3 DUP1 MUL OR SWAP1 SSTORE POP PUSH1 0x1 PUSH1 0x2 SLOAD PUSH32 0x3CD05952BF89447515BA76534B26DF87104C2BA104027F22A518D767243973C1 DUP9 PUSH1 0x40 MLOAD PUSH2 0xC0F SWAP2 SWAP1 PUSH2 0x1923 JUMP JUMPDEST PUSH1 0x60 PUSH1 0x0 PUSH2 0x101D PUSH2 0xC28 JUMP JUMPDEST SWAP1 POP PUSH1 0x0 DUP2 PUSH8 0xFFFFFFFFFFFFFFFF DUP2 GT ISZERO PUSH2 0x103A JUMPI PUSH2 0x103A PUSH2 0x177F JUMP JUMPDEST PUSH1 0x40 MLOAD SWAP1 DUP1 DUP3 MSTORE DUP1 PUSH1 0x20 MUL PUSH1 0x20 ADD DUP3 ADD PUSH1 0x40 MSTORE DUP1 ISZERO PUSH2 0x10B0 JUMPI DUP2 PUSH1 0x20 ADD JUMPDEST PUSH1 0x40 DUP1 MLOAD PUSH2 0x120 DUP2 ADD DUP3 MSTORE PUSH1 0x0 DUP1 DUP3 MSTORE PUSH1 0x20 DUP1 DUP4 ADD DUP3 SWAP1 MSTORE SWAP3 DUP3 ADD DUP2 SWAP1 MSTORE PUSH1 0x60 DUP1 DUP4 ADD MSTORE PUSH1 0x80 DUP3 ADD DUP2 SWAP1 MSTORE PUSH1 0xA0 DUP3 ADD DUP2 SWAP1 MSTORE PUSH1 0xC0 DUP3 ADD DUP2 SWAP1 MSTORE PUSH1 0xE0 DUP3 ADD DUP2 SWAP1 MSTORE PUSH2 0x100 DUP3 ADD MSTORE DUP3 MSTORE PUSH1 0x0 NOT SWAP1 SWAP3 ADD SWAP2 ADD DUP2 PUSH2 0x1058 JUMPI SWAP1 POP JUMPDEST POP SWAP1 POP TIMESTAMP PUSH1 0x0 DUP1 JUMPDEST PUSH1 0x2 SLOAD DUP2 LT ISZERO PUSH2 0x12B0 JUMPI PUSH1 0x0 DUP2 DUP2 MSTORE PUSH1 0x5 PUSH1 0x20 MSTORE PUSH1 0x40 SWAP1 KECCAK256 SLOAD PUSH1 0xFF AND ISZERO DUP1 ISZERO PUSH2 0x10F5 JUMPI POP PUSH1 0x0 DUP2 DUP2 MSTORE PUSH1 0x5 PUSH1 0x20 MSTORE PUSH1 0x40 SWAP1 KECCAK256 SLOAD PUSH2 0x100 SWAP1 DIV PUSH1 0xFF AND ISZERO JUMPDEST DUP1 ISZERO PUSH2 0x1120 JUMPI POP PUSH1 0x0 DUP2 DUP2 MSTORE PUSH1 0x5 PUSH1 0x20 MSTORE PUSH1 0x40 SWAP1 KECCAK256 PUSH1 0x2 ADD SLOAD PUSH1 0x1 PUSH1 0xA0 SHL SWAP1 DIV PUSH6 0xFFFFFFFFFFFF AND DUP4 GT JUMPDEST DUP1 ISZERO PUSH2 0x114B JUMPI POP PUSH1 0x0 DUP2 DUP2 MSTORE PUSH1 0x5 PUSH1 0x20 MSTORE PUSH1 0x40 SWAP1 KECCAK256 PUSH1 0x2 ADD SLOAD PUSH1 0x1 PUSH1 0xD0 SHL SWAP1 DIV PUSH6 0xFFFFFFFFFFFF AND DUP4 LT JUMPDEST ISZERO PUSH2 0x12A8 JUMPI PUSH1 0x0 DUP2 DUP2 MSTORE PUSH1 0x5 PUSH1 0x20 SWAP1 DUP2 MSTORE PUSH1 0x40 SWAP2 DUP3 SWAP1 KECCAK256 DUP3 MLOAD PUSH2 0x120 DUP2 ADD DUP5 MSTORE DUP2 SLOAD PUSH1 0xFF DUP1 DUP3 AND ISZERO ISZERO DUP4 MSTORE PUSH2 0x100 DUP3 DIV AND ISZERO ISZERO SWAP4 DUP3 ADD SWAP4 SWAP1 SWAP4 MSTORE PUSH3 0x10000 SWAP1 SWAP3 DIV PUSH1 0x1 PUSH1 0x1 PUSH1 0xA0 SHL SUB AND SWAP3 DUP3 ADD SWAP3 SWAP1 SWAP3 MSTORE PUSH1 0x1 DUP3 ADD DUP1 SLOAD SWAP2 SWAP3 SWAP2 PUSH1 0x60 DUP5 ADD SWAP2 SWAP1 PUSH2 0x11B4 SWAP1 PUSH2 0x1A8E JUMP JUMPDEST DUP1 PUSH1 0x1F ADD PUSH1 0x20 DUP1 SWAP2 DIV MUL PUSH1 0x20 ADD PUSH1 0x40 MLOAD SWAP1 DUP2 ADD PUSH1 0x40 MSTORE DUP1 SWAP3 SWAP2 SWAP1 DUP2 DUP2 MSTORE PUSH1 0x20 ADD DUP3 DUP1 SLOAD PUSH2 0x11E0 SWAP1 PUSH2 0x1A8E JUMP JUMPDEST DUP1 ISZERO PUSH2 0x122D JUMPI DUP1 PUSH1 0x1F LT PUSH2 0x1202 JUMPI PUSH2 0x100 DUP1 DUP4 SLOAD DIV MUL DUP4 MSTORE SWAP2 PUSH1 0x20 ADD SWAP2 PUSH2 0x122D JUMP JUMPDEST DUP3 ADD SWAP2 SWAP1 PUSH1 0x0 MSTORE PUSH1 0x20 PUSH1 0x0 KECCAK256 SWAP1 JUMPDEST DUP2 SLOAD DUP2 MSTORE SWAP1 PUSH1 0x1 ADD SWAP1 PUSH1 0x20 ADD DUP1 DUP4 GT PUSH2 0x1210 JUMPI DUP3 SWAP1 SUB PUSH1 0x1F AND DUP3 ADD SWAP2 JUMPDEST POP POP POP SWAP2 DUP4 MSTORE POP POP PUSH1 0x2 DUP3 ADD SLOAD PUSH1 0x1 PUSH1 0x1 PUSH1 0xA0 SHL SUB DUP2 AND PUSH1 0x20 DUP4 ADD MSTORE PUSH6 0xFFFFFFFFFFFF PUSH1 0x1 PUSH1 0xA0 SHL DUP3 DIV DUP2 AND PUSH1 0x40 DUP5 ADD MSTORE PUSH1 0x1 PUSH1 0xD0 SHL SWAP1 SWAP2 DIV AND PUSH1 0x60 DUP3 ADD MSTORE PUSH1 0x3 DUP3 ADD SLOAD PUSH1 0x80 DUP3 ADD MSTORE PUSH1 0x4 SWAP1 SWAP2 ADD SLOAD PUSH1 0xA0 SWAP1 SWAP2 ADD MSTORE DUP5 MLOAD DUP6 SWAP1 DUP5 SWAP1 DUP2 LT PUSH2 0x1296 JUMPI PUSH2 0x1296 PUSH2 0x1CB2 JUMP JUMPDEST PUSH1 0x20 SWAP1 DUP2 MUL SWAP2 SWAP1 SWAP2 ADD ADD MSTORE PUSH1 0x1 SWAP1 SWAP2 ADD SWAP1 JUMPDEST PUSH1 0x1 ADD PUSH2 0x10B8 JUMP JUMPDEST POP SWAP2 SWAP5 SWAP4 POP POP POP POP JUMP JUMPDEST PUSH1 0x0 PUSH1 0x2 PUSH1 0x1 SLOAD PUSH1 0x1 PUSH2 0x12CD SWAP2 SWAP1 PUSH2 0x1CC8 JUMP JUMPDEST PUSH2 0x12D7 SWAP2 SWAP1 PUSH2 0x1CDB JUMP JUMPDEST SWAP1 POP SWAP1 JUMP JUMPDEST CALLER PUSH1 0x0 DUP2 DUP2 MSTORE PUSH1 0x4 PUSH1 0x20 MSTORE PUSH1 0x40 DUP2 KECCAK256 PUSH1 0x1 ADD DUP1 SLOAD SWAP2 SWAP3 SWAP2 DUP4 SWAP2 SWAP1 PUSH2 0x12FF SWAP1 PUSH2 0x1A8E JUMP JUMPDEST SWAP1 POP GT PUSH2 0x133D JUMPI PUSH1 0x40 MLOAD PUSH3 0x461BCD PUSH1 0xE5 SHL DUP2 MSTORE PUSH1 0x20 PUSH1 0x4 DUP3 ADD MSTORE PUSH1 0xC PUSH1 0x24 DUP3 ADD MSTORE PUSH12 0x2737BA10309036B2B6B132B9 PUSH1 0xA1 SHL PUSH1 0x44 DUP3 ADD MSTORE PUSH1 0x64 ADD PUSH2 0x29F JUMP JUMPDEST PUSH1 0x1 PUSH1 0x1 PUSH1 0xA0 SHL SUB DUP2 AND PUSH1 0x0 SWAP1 DUP2 MSTORE PUSH1 0x4 PUSH1 0x20 MSTORE PUSH1 0x40 SWAP1 KECCAK256 SLOAD PUSH1 0xFF AND ISZERO ISZERO PUSH1 0x1 EQ PUSH2 0x13A0 JUMPI PUSH1 0x40 MLOAD PUSH3 0x461BCD PUSH1 0xE5 SHL DUP2 MSTORE PUSH1 0x20 PUSH1 0x4 DUP3 ADD MSTORE PUSH1 0x13 PUSH1 0x24 DUP3 ADD MSTORE PUSH19 0x13595B58995C881B9BDD08185C1C1C9BDD9959 PUSH1 0x6A SHL PUSH1 0x44 DUP3 ADD MSTORE PUSH1 0x64 ADD PUSH2 0x29F JUMP JUMPDEST PUSH1 0x1 PUSH1 0x1 PUSH1 0xA0 SHL SUB DUP4 AND PUSH1 0x0 SWAP1 DUP2 MSTORE PUSH1 0x4 PUSH1 0x20 MSTORE PUSH1 0x40 SWAP1 KECCAK256 SLOAD PUSH1 0xFF AND SWAP2 POP JUMPDEST POP SWAP2 SWAP1 POP JUMP JUMPDEST CALLER PUSH1 0x0 DUP2 DUP2 MSTORE PUSH1 0x4 PUSH1 0x20 MSTORE PUSH1 0x40 DUP2 KECCAK256 PUSH1 0x1 ADD DUP1 SLOAD PUSH2 0x13E2 SWAP1 PUSH2 0x1A8E JUMP JUMPDEST SWAP1 POP GT PUSH2 0x1420 JUMPI PUSH1 0x40 MLOAD PUSH3 0x461BCD PUSH1 0xE5 SHL DUP2 MSTORE PUSH1 0x20 PUSH1 0x4 DUP3 ADD MSTORE PUSH1 0xC PUSH1 0x24 DUP3 ADD MSTORE PUSH12 0x2737BA10309036B2B6B132B9 PUSH1 0xA1 SHL PUSH1 0x44 DUP3 ADD MSTORE PUSH1 0x64 ADD PUSH2 0x29F JUMP JUMPDEST PUSH1 0x1 PUSH1 0x1 PUSH1 0xA0 SHL SUB DUP2 AND PUSH1 0x0 SWAP1 DUP2 MSTORE PUSH1 0x4 PUSH1 0x20 MSTORE PUSH1 0x40 SWAP1 KECCAK256 SLOAD PUSH1 0xFF AND ISZERO ISZERO PUSH1 0x1 EQ PUSH2 0x1483 JUMPI PUSH1 0x40 MLOAD PUSH3 0x461BCD PUSH1 0xE5 SHL DUP2 MSTORE PUSH1 0x20 PUSH1 0x4 DUP3 ADD MSTORE PUSH1 0x13 PUSH1 0x24 DUP3 ADD MSTORE PUSH19 0x13595B58995C881B9BDD08185C1C1C9BDD9959 PUSH1 0x6A SHL PUSH1 0x44 DUP3 ADD MSTORE PUSH1 0x64 ADD PUSH2 0x29F JUMP JUMPDEST PUSH1 0x0 DUP3 DUP2 MSTORE PUSH1 0x5 PUSH1 0x20 MSTORE PUSH1 0x40 SWAP1 KECCAK256 DUP1 SLOAD PUSH3 0x10000 SWAP1 DIV PUSH1 0x1 PUSH1 0x1 PUSH1 0xA0 SHL SUB AND CALLER EQ PUSH2 0x14F0 JUMPI PUSH1 0x40 MLOAD PUSH3 0x461BCD PUSH1 0xE5 SHL DUP2 MSTORE PUSH1 0x20 PUSH1 0x4 DUP3 ADD DUP2 SWAP1 MSTORE PUSH1 0x24 DUP3 ADD MSTORE PUSH32 0x4E6F207065726D697373696F6E20746F2063616E63656C2070726F706F73616C PUSH1 0x44 DUP3 ADD MSTORE PUSH1 0x64 ADD PUSH2 0x29F JUMP JUMPDEST DUP1 SLOAD PUSH1 0xFF AND ISZERO DUP1 ISZERO PUSH2 0x1509 JUMPI POP DUP1 SLOAD PUSH2 0x100 SWAP1 DIV PUSH1 0xFF AND ISZERO JUMPDEST PUSH2 0x1563 JUMPI PUSH1 0x40 MLOAD PUSH3 0x461BCD PUSH1 0xE5 SHL DUP2 MSTORE PUSH1 0x20 PUSH1 0x4 DUP3 ADD MSTORE PUSH1 0x25 PUSH1 0x24 DUP3 ADD MSTORE PUSH32 0x50726F706F73616C20616C7265616479206578656375746564206F722063616E PUSH1 0x44 DUP3 ADD MSTORE PUSH5 0x18D95B1959 PUSH1 0xDA SHL PUSH1 0x64 DUP3 ADD MSTORE PUSH1 0x84 ADD PUSH2 0x29F JUMP JUMPDEST DUP1 SLOAD PUSH2 0xFF00 NOT AND PUSH2 0x100 OR DUP2 SSTORE PUSH1 0x40 MLOAD DUP4 SWAP1 PUSH32 0x789CF55BE980739DAD1D0699B93B58E806B51C9D96619BFA8FE0A28ABAA7B30C SWAP1 PUSH1 0x0 SWAP1 LOG2 POP POP POP JUMP JUMPDEST PUSH2 0x15A8 PUSH2 0x16B5 JUMP JUMPDEST PUSH1 0x1 PUSH1 0x1 PUSH1 0xA0 SHL SUB DUP2 AND PUSH2 0x15EB JUMPI PUSH1 0x40 MLOAD PUSH32 0x1E4FBDF700000000000000000000000000000000000000000000000000000000 DUP2 MSTORE PUSH1 0x0 PUSH1 0x4 DUP3 ADD MSTORE PUSH1 0x24 ADD PUSH2 0x29F JUMP JUMPDEST PUSH2 0x15F4 DUP2 PUSH2 0x16FB JUMP JUMPDEST POP JUMP JUMPDEST PUSH1 0x1 PUSH1 0x1 PUSH1 0xA0 SHL SUB DUP2 AND PUSH1 0x0 SWAP1 DUP2 MSTORE PUSH1 0x4 PUSH1 0x20 MSTORE PUSH1 0x40 SWAP1 KECCAK256 SLOAD PUSH1 0xFF AND ISZERO PUSH2 0x1660 JUMPI PUSH1 0x40 MLOAD PUSH3 0x461BCD PUSH1 0xE5 SHL DUP2 MSTORE PUSH1 0x20 PUSH1 0x4 DUP3 ADD MSTORE PUSH1 0x17 PUSH1 0x24 DUP3 ADD MSTORE PUSH32 0x4D656D62657220616C726561647920617070726F766564000000000000000000 PUSH1 0x44 DUP3 ADD MSTORE PUSH1 0x64 ADD PUSH2 0x29F JUMP JUMPDEST PUSH1 0x1 PUSH1 0x1 PUSH1 0xA0 SHL SUB DUP2 AND PUSH1 0x0 DUP2 DUP2 MSTORE PUSH1 0x4 PUSH1 0x20 MSTORE PUSH1 0x40 DUP1 DUP3 KECCAK256 DUP1 SLOAD PUSH1 0xFF NOT AND PUSH1 0x1 SWAP1 DUP2 OR SWAP1 SWAP2 SSTORE DUP1 SLOAD DUP2 ADD SWAP1 SSTORE MLOAD PUSH32 0x3DA74045128FFF0396B39203F81BCEDCBCF28586F0F97FB0F41CEB5521566A15 SWAP2 SWAP1 LOG2 POP JUMP JUMPDEST PUSH1 0x0 SLOAD PUSH1 0x1 PUSH1 0x1 PUSH1 0xA0 SHL SUB AND CALLER EQ PUSH2 0xD7C JUMPI PUSH1 0x40 MLOAD PUSH32 0x118CDAA700000000000000000000000000000000000000000000000000000000 DUP2 MSTORE CALLER PUSH1 0x4 DUP3 ADD MSTORE PUSH1 0x24 ADD PUSH2 0x29F JUMP JUMPDEST PUSH1 0x0 DUP1 SLOAD PUSH1 0x1 PUSH1 0x1 PUSH1 0xA0 SHL SUB DUP4 DUP2 AND PUSH32 0xFFFFFFFFFFFFFFFFFFFFFFFF0000000000000000000000000000000000000000 DUP4 AND DUP2 OR DUP5 SSTORE PUSH1 0x40 MLOAD SWAP2 SWAP1 SWAP3 AND SWAP3 DUP4 SWAP2 PUSH32 0x8BE0079C531659141344CD1FD0A4F28419497F9722A3DAAFE3B4186F6B6457E0 SWAP2 SWAP1 LOG3 POP POP JUMP JUMPDEST DUP1 CALLDATALOAD PUSH1 0x1 PUSH1 0x1 PUSH1 0xA0 SHL SUB DUP2 AND DUP2 EQ PUSH2 0x177A JUMPI PUSH1 0x0 DUP1 REVERT JUMPDEST SWAP2 SWAP1 POP JUMP JUMPDEST PUSH4 0x4E487B71 PUSH1 0xE0 SHL PUSH1 0x0 MSTORE PUSH1 0x41 PUSH1 0x4 MSTORE PUSH1 0x24 PUSH1 0x0 REVERT JUMPDEST PUSH1 0x0 PUSH8 0xFFFFFFFFFFFFFFFF DUP1 DUP5 GT ISZERO PUSH2 0x17B0 JUMPI PUSH2 0x17B0 PUSH2 0x177F JUMP JUMPDEST PUSH1 0x40 MLOAD PUSH1 0x1F DUP6 ADD PUSH1 0x1F NOT SWAP1 DUP2 AND PUSH1 0x3F ADD AND DUP2 ADD SWAP1 DUP3 DUP3 GT DUP2 DUP4 LT OR ISZERO PUSH2 0x17D8 JUMPI PUSH2 0x17D8 PUSH2 0x177F JUMP JUMPDEST DUP2 PUSH1 0x40 MSTORE DUP1 SWAP4 POP DUP6 DUP2 MSTORE DUP7 DUP7 DUP7 ADD GT ISZERO PUSH2 0x17F1 JUMPI PUSH1 0x0 DUP1 REVERT JUMPDEST DUP6 DUP6 PUSH1 0x20 DUP4 ADD CALLDATACOPY PUSH1 0x0 PUSH1 0x20 DUP8 DUP4 ADD ADD MSTORE POP POP POP SWAP4 SWAP3 POP POP POP JUMP JUMPDEST PUSH1 0x0 DUP1 PUSH1 0x40 DUP4 DUP6 SUB SLT ISZERO PUSH2 0x181E JUMPI PUSH1 0x0 DUP1 REVERT JUMPDEST PUSH2 0x1827 DUP4 PUSH2 0x1763 JUMP JUMPDEST SWAP2 POP PUSH1 0x20 DUP4 ADD CALLDATALOAD PUSH8 0xFFFFFFFFFFFFFFFF DUP2 GT ISZERO PUSH2 0x1843 JUMPI PUSH1 0x0 DUP1 REVERT JUMPDEST DUP4 ADD PUSH1 0x1F DUP2 ADD DUP6 SGT PUSH2 0x1854 JUMPI PUSH1 0x0 DUP1 REVERT JUMPDEST PUSH2 0x1863 DUP6 DUP3 CALLDATALOAD PUSH1 0x20 DUP5 ADD PUSH2 0x1795 JUMP JUMPDEST SWAP2 POP POP SWAP3 POP SWAP3 SWAP1 POP JUMP JUMPDEST PUSH1 0x0 PUSH1 0x20 DUP3 DUP5 SUB SLT ISZERO PUSH2 0x187F JUMPI PUSH1 0x0 DUP1 REVERT JUMPDEST POP CALLDATALOAD SWAP2 SWAP1 POP JUMP JUMPDEST PUSH1 0x0 DUP1 PUSH1 0x40 DUP4 DUP6 SUB SLT ISZERO PUSH2 0x1899 JUMPI PUSH1 0x0 DUP1 REVERT JUMPDEST DUP3 CALLDATALOAD SWAP2 POP PUSH1 0x20 DUP4 ADD CALLDATALOAD DUP1 ISZERO ISZERO DUP2 EQ PUSH2 0x18B0 JUMPI PUSH1 0x0 DUP1 REVERT JUMPDEST DUP1 SWAP2 POP POP SWAP3 POP SWAP3 SWAP1 POP JUMP JUMPDEST PUSH1 0x0 PUSH1 0x20 DUP3 DUP5 SUB SLT ISZERO PUSH2 0x18CD JUMPI PUSH1 0x0 DUP1 REVERT JUMPDEST PUSH2 0x18D6 DUP3 PUSH2 0x1763 JUMP JUMPDEST SWAP4 SWAP3 POP POP POP JUMP JUMPDEST PUSH1 0x0 DUP2 MLOAD DUP1 DUP5 MSTORE PUSH1 0x0 JUMPDEST DUP2 DUP2 LT ISZERO PUSH2 0x1903 JUMPI PUSH1 0x20 DUP2 DUP6 ADD DUP2 ADD MLOAD DUP7 DUP4 ADD DUP3 ADD MSTORE ADD PUSH2 0x18E7 JUMP JUMPDEST POP PUSH1 0x0 PUSH1 0x20 DUP3 DUP7 ADD ADD MSTORE PUSH1 0x20 PUSH1 0x1F NOT PUSH1 0x1F DUP4 ADD AND DUP6 ADD ADD SWAP2 POP POP SWAP3 SWAP2 POP POP JUMP JUMPDEST PUSH1 0x20 DUP2 MSTORE PUSH1 0x0 PUSH2 0x18D6 PUSH1 0x20 DUP4 ADD DUP5 PUSH2 0x18DD JUMP JUMPDEST PUSH1 0x0 DUP1 PUSH1 0x40 DUP4 DUP6 SUB SLT ISZERO PUSH2 0x1949 JUMPI PUSH1 0x0 DUP1 REVERT JUMPDEST DUP3 CALLDATALOAD PUSH8 0xFFFFFFFFFFFFFFFF DUP2 GT ISZERO PUSH2 0x1960 JUMPI PUSH1 0x0 DUP1 REVERT JUMPDEST DUP4 ADD PUSH1 0x1F DUP2 ADD DUP6 SGT PUSH2 0x1971 JUMPI PUSH1 0x0 DUP1 REVERT JUMPDEST PUSH2 0x1980 DUP6 DUP3 CALLDATALOAD PUSH1 0x20 DUP5 ADD PUSH2 0x1795 JUMP JUMPDEST SWAP3 POP POP PUSH2 0x198F PUSH1 0x20 DUP5 ADD PUSH2 0x1763 JUMP JUMPDEST SWAP1 POP SWAP3 POP SWAP3 SWAP1 POP JUMP JUMPDEST PUSH1 0x0 PUSH1 0x20 DUP1 DUP4 ADD DUP2 DUP5 MSTORE DUP1 DUP6 MLOAD DUP1 DUP4 MSTORE PUSH1 0x40 SWAP3 POP DUP3 DUP7 ADD SWAP2 POP DUP3 DUP2 PUSH1 0x5 SHL DUP8 ADD ADD DUP5 DUP9 ADD PUSH1 0x0 JUMPDEST DUP4 DUP2 LT ISZERO PUSH2 0x1A80 JUMPI PUSH1 0x3F NOT DUP10 DUP5 SUB ADD DUP6 MSTORE DUP2 MLOAD DUP1 MLOAD ISZERO ISZERO DUP5 MSTORE DUP8 DUP2 ADD MLOAD ISZERO ISZERO DUP9 DUP6 ADD MSTORE DUP7 DUP2 ADD MLOAD PUSH1 0x1 PUSH1 0x1 PUSH1 0xA0 SHL SUB AND DUP8 DUP6 ADD MSTORE PUSH1 0x60 DUP1 DUP3 ADD MLOAD PUSH2 0x120 DUP3 DUP8 ADD DUP2 SWAP1 MSTORE SWAP2 SWAP1 PUSH2 0x1A10 DUP4 DUP9 ADD DUP3 PUSH2 0x18DD JUMP JUMPDEST SWAP3 POP POP POP PUSH1 0x80 DUP1 DUP4 ADD MLOAD PUSH2 0x1A2E DUP3 DUP9 ADD DUP3 PUSH1 0x1 PUSH1 0x1 PUSH1 0xA0 SHL SUB AND SWAP1 MSTORE JUMP JUMPDEST POP POP PUSH1 0xA0 DUP3 DUP2 ADD MLOAD PUSH6 0xFFFFFFFFFFFF DUP2 AND DUP8 DUP4 ADD MSTORE POP POP PUSH1 0xC0 DUP3 DUP2 ADD MLOAD PUSH6 0xFFFFFFFFFFFF DUP2 AND DUP8 DUP4 ADD MSTORE POP POP PUSH1 0xE0 DUP3 DUP2 ADD MLOAD SWAP1 DUP7 ADD MSTORE PUSH2 0x100 SWAP2 DUP3 ADD MLOAD SWAP2 SWAP1 SWAP5 ADD MSTORE SWAP4 DUP7 ADD SWAP4 SWAP1 DUP7 ADD SWAP1 PUSH1 0x1 ADD PUSH2 0x19BF JUMP JUMPDEST POP SWAP1 SWAP9 SWAP8 POP POP POP POP POP POP POP POP JUMP JUMPDEST PUSH1 0x1 DUP2 DUP2 SHR SWAP1 DUP3 AND DUP1 PUSH2 0x1AA2 JUMPI PUSH1 0x7F DUP3 AND SWAP2 POP JUMPDEST PUSH1 0x20 DUP3 LT DUP2 SUB PUSH2 0x13BF JUMPI PUSH4 0x4E487B71 PUSH1 0xE0 SHL PUSH1 0x0 MSTORE PUSH1 0x22 PUSH1 0x4 MSTORE PUSH1 0x24 PUSH1 0x0 REVERT JUMPDEST PUSH1 0x1F DUP3 GT ISZERO PUSH2 0x1B0C JUMPI PUSH1 0x0 DUP2 DUP2 MSTORE PUSH1 0x20 DUP2 KECCAK256 PUSH1 0x1F DUP6 ADD PUSH1 0x5 SHR DUP2 ADD PUSH1 0x20 DUP7 LT ISZERO PUSH2 0x1AE9 JUMPI POP DUP1 JUMPDEST PUSH1 0x1F DUP6 ADD PUSH1 0x5 SHR DUP3 ADD SWAP2 POP JUMPDEST DUP2 DUP2 LT ISZERO PUSH2 0x1B08 JUMPI DUP3 DUP2 SSTORE PUSH1 0x1 ADD PUSH2 0x1AF5 JUMP JUMPDEST POP POP POP JUMPDEST POP POP POP JUMP JUMPDEST DUP2 MLOAD PUSH8 0xFFFFFFFFFFFFFFFF DUP2 GT ISZERO PUSH2 0x1B2B JUMPI PUSH2 0x1B2B PUSH2 0x177F JUMP JUMPDEST PUSH2 0x1B3F DUP2 PUSH2 0x1B39 DUP5 SLOAD PUSH2 0x1A8E JUMP JUMPDEST DUP5 PUSH2 0x1AC2 JUMP JUMPDEST PUSH1 0x20 DUP1 PUSH1 0x1F DUP4 GT PUSH1 0x1 DUP2 EQ PUSH2 0x1B74 JUMPI PUSH1 0x0 DUP5 ISZERO PUSH2 0x1B5C JUMPI POP DUP6 DUP4 ADD MLOAD JUMPDEST PUSH1 0x0 NOT PUSH1 0x3 DUP7 SWAP1 SHL SHR NOT AND PUSH1 0x1 DUP6 SWAP1 SHL OR DUP6 SSTORE PUSH2 0x1B08 JUMP JUMPDEST PUSH1 0x0 DUP6 DUP2 MSTORE PUSH1 0x20 DUP2 KECCAK256 PUSH1 0x1F NOT DUP7 AND SWAP2 JUMPDEST DUP3 DUP2 LT ISZERO PUSH2 0x1BA3 JUMPI DUP9 DUP7 ADD MLOAD DUP3 SSTORE SWAP5 DUP5 ADD SWAP5 PUSH1 0x1 SWAP1 SWAP2 ADD SWAP1 DUP5 ADD PUSH2 0x1B84 JUMP JUMPDEST POP DUP6 DUP3 LT ISZERO PUSH2 0x1BC1 JUMPI DUP8 DUP6 ADD MLOAD PUSH1 0x0 NOT PUSH1 0x3 DUP9 SWAP1 SHL PUSH1 0xF8 AND SHR NOT AND DUP2 SSTORE JUMPDEST POP POP POP POP POP PUSH1 0x1 SWAP1 DUP2 SHL ADD SWAP1 SSTORE POP JUMP JUMPDEST PUSH4 0x4E487B71 PUSH1 0xE0 SHL PUSH1 0x0 MSTORE PUSH1 0x11 PUSH1 0x4 MSTORE PUSH1 0x24 PUSH1 0x0 REVERT JUMPDEST DUP2 DUP2 SUB DUP2 DUP2 GT ISZERO PUSH2 0x1BFA JUMPI PUSH2 0x1BFA PUSH2 0x1BD1 JUMP JUMPDEST SWAP3 SWAP2 POP POP JUMP JUMPDEST PUSH4 0x4E487B71 PUSH1 0xE0 SHL PUSH1 0x0 MSTORE PUSH1 0x21 PUSH1 0x4 MSTORE PUSH1 0x24 PUSH1 0x0 REVERT JUMPDEST PUSH1 0x0 DUP1 DUP4 SLOAD PUSH2 0x1C24 DUP2 PUSH2 0x1A8E JUMP JUMPDEST PUSH1 0x1 DUP3 DUP2 AND DUP1 ISZERO PUSH2 0x1C3C JUMPI PUSH1 0x1 DUP2 EQ PUSH2 0x1C51 JUMPI PUSH2 0x1C80 JUMP JUMPDEST PUSH1 0xFF NOT DUP5 AND DUP8 MSTORE DUP3 ISZERO ISZERO DUP4 MUL DUP8 ADD SWAP5 POP PUSH2 0x1C80 JUMP JUMPDEST DUP8 PUSH1 0x0 MSTORE PUSH1 0x20 DUP1 PUSH1 0x0 KECCAK256 PUSH1 0x0 JUMPDEST DUP6 DUP2 LT ISZERO PUSH2 0x1C77 JUMPI DUP2 SLOAD DUP11 DUP3 ADD MSTORE SWAP1 DUP5 ADD SWAP1 DUP3 ADD PUSH2 0x1C5E JUMP JUMPDEST POP POP POP DUP3 DUP8 ADD SWAP5 POP JUMPDEST POP SWAP3 SWAP7 SWAP6 POP POP POP POP POP POP JUMP JUMPDEST PUSH6 0xFFFFFFFFFFFF DUP2 DUP2 AND DUP4 DUP3 AND ADD SWAP1 DUP1 DUP3 GT ISZERO PUSH2 0x1CAB JUMPI PUSH2 0x1CAB PUSH2 0x1BD1 JUMP JUMPDEST POP SWAP3 SWAP2 POP POP JUMP JUMPDEST PUSH4 0x4E487B71 PUSH1 0xE0 SHL PUSH1 0x0 MSTORE PUSH1 0x32 PUSH1 0x4 MSTORE PUSH1 0x24 PUSH1 0x0 REVERT JUMPDEST DUP1 DUP3 ADD DUP1 DUP3 GT ISZERO PUSH2 0x1BFA JUMPI PUSH2 0x1BFA PUSH2 0x1BD1 JUMP JUMPDEST PUSH1 0x0 DUP3 PUSH2 0x1CF8 JUMPI PUSH4 0x4E487B71 PUSH1 0xE0 SHL PUSH1 0x0 MSTORE PUSH1 0x12 PUSH1 0x4 MSTORE PUSH1 0x24 PUSH1 0x0 REVERT JUMPDEST POP DIV SWAP1 JUMP INVALID LOG2 PUSH5 0x6970667358 0x22 SLT KECCAK256 SWAP1 DIV MSIZE 0x25 PUSH3 0x889F8F 0xF 0xD9 GAS LOG1 DUP13 CREATE PUSH6 0xD58E6E32842C EXTCODEHASH DUP5 DUP1 CALLER TIMESTAMP PUSH3 0x40AA22 NOT 0x49 PUSH5 0x736F6C6343 STOP ADDMOD EQ STOP CALLER "
        },
        "methodIdentifiers": {
          "cancelProposal(uint256)": "e0a8f6f5",
          "castVote(uint256,bool)": "15373e3d",
          "checkIsMemberApproved(address)": "cfbc02d4",
          "daoURI()": "7034731b",
          "executeProposal(uint256)": "0d61b519",
          "getOngoingProposals()": "afe666f6",
          "getOngoingProposalsCount()": "27f5884b",
          "newMemberApprovalProposal(address)": "18a41aec",
          "newProposal(bytes,address)": "756a4ba3",
          "owner()": "8da5cb5b",
          "proposalThreshold()": "b58131b0",
          "registerMember(address,string)": "0aa5adfc",
          "renounceOwnership()": "715018a6",
          "transferOwnership(address)": "f2fde38b",
          "votingDelay()": "3932abb1",
          "votingPeriod()": "02a251a3"
        }
      },
      "storageLayout": {
        "storage": [
          {
            "astId": 8,
            "contract": "contracts/FincubeDAO.sol:FinCubeDAO",
            "label": "_owner",
            "offset": 0,
            "slot": "0",
            "type": "t_address"
          },
          {
            "astId": 212,
            "contract": "contracts/FincubeDAO.sol:FinCubeDAO",
            "label": "memberCount",
            "offset": 0,
            "slot": "1",
            "type": "t_uint256"
          },
          {
            "astId": 214,
            "contract": "contracts/FincubeDAO.sol:FinCubeDAO",
            "label": "proposalCount",
            "offset": 0,
            "slot": "2",
            "type": "t_uint256"
          },
          {
            "astId": 216,
            "contract": "contracts/FincubeDAO.sol:FinCubeDAO",
            "label": "daoURI",
            "offset": 0,
            "slot": "3",
            "type": "t_string_storage"
          },
          {
            "astId": 261,
            "contract": "contracts/FincubeDAO.sol:FinCubeDAO",
            "label": "members",
            "offset": 0,
            "slot": "4",
            "type": "t_mapping(t_address,t_struct(Member)222_storage)"
          },
          {
            "astId": 266,
            "contract": "contracts/FincubeDAO.sol:FinCubeDAO",
            "label": "proposals",
            "offset": 0,
            "slot": "5",
            "type": "t_mapping(t_uint256,t_struct(Proposal)246_storage)"
          },
          {
            "astId": 271,
            "contract": "contracts/FincubeDAO.sol:FinCubeDAO",
            "label": "proposalVotes",
            "offset": 0,
            "slot": "6",
            "type": "t_mapping(t_uint256,t_struct(ProposalVotes)256_storage)"
          },
          {
            "astId": 276,
            "contract": "contracts/FincubeDAO.sol:FinCubeDAO",
            "label": "proposalType",
            "offset": 0,
            "slot": "7",
            "type": "t_mapping(t_uint256,t_enum(ProposalType)226)"
          }
        ],
        "types": {
          "t_address": {
            "encoding": "inplace",
            "label": "address",
            "numberOfBytes": "20"
          },
          "t_bool": {
            "encoding": "inplace",
            "label": "bool",
            "numberOfBytes": "1"
          },
          "t_bytes_storage": {
            "encoding": "bytes",
            "label": "bytes",
            "numberOfBytes": "32"
          },
          "t_enum(ProposalType)226": {
            "encoding": "inplace",
            "label": "enum FinCubeDAO.ProposalType",
            "numberOfBytes": "1"
          },
          "t_mapping(t_address,t_bool)": {
            "encoding": "mapping",
            "key": "t_address",
            "label": "mapping(address => bool)",
            "numberOfBytes": "32",
            "value": "t_bool"
          },
          "t_mapping(t_address,t_struct(Member)222_storage)": {
            "encoding": "mapping",
            "key": "t_address",
            "label": "mapping(address => struct FinCubeDAO.Member)",
            "numberOfBytes": "32",
            "value": "t_struct(Member)222_storage"
          },
          "t_mapping(t_uint256,t_enum(ProposalType)226)": {
            "encoding": "mapping",
            "key": "t_uint256",
            "label": "mapping(uint256 => enum FinCubeDAO.ProposalType)",
            "numberOfBytes": "32",
            "value": "t_enum(ProposalType)226"
          },
          "t_mapping(t_uint256,t_struct(Proposal)246_storage)": {
            "encoding": "mapping",
            "key": "t_uint256",
            "label": "mapping(uint256 => struct FinCubeDAO.Proposal)",
            "numberOfBytes": "32",
            "value": "t_struct(Proposal)246_storage"
          },
          "t_mapping(t_uint256,t_struct(ProposalVotes)256_storage)": {
            "encoding": "mapping",
            "key": "t_uint256",
            "label": "mapping(uint256 => struct FinCubeDAO.ProposalVotes)",
            "numberOfBytes": "32",
            "value": "t_struct(ProposalVotes)256_storage"
          },
          "t_string_storage": {
            "encoding": "bytes",
            "label": "string",
            "numberOfBytes": "32"
          },
          "t_struct(Member)222_storage": {
            "encoding": "inplace",
            "label": "struct FinCubeDAO.Member",
            "members": [
              {
                "astId": 219,
                "contract": "contracts/FincubeDAO.sol:FinCubeDAO",
                "label": "status",
                "offset": 0,
                "slot": "0",
                "type": "t_bool"
              },
              {
                "astId": 221,
                "contract": "contracts/FincubeDAO.sol:FinCubeDAO",
                "label": "memberURI",
                "offset": 0,
                "slot": "1",
                "type": "t_string_storage"
              }
            ],
            "numberOfBytes": "64"
          },
          "t_struct(Proposal)246_storage": {
            "encoding": "inplace",
            "label": "struct FinCubeDAO.Proposal",
            "members": [
              {
                "astId": 229,
                "contract": "contracts/FincubeDAO.sol:FinCubeDAO",
                "label": "executed",
                "offset": 0,
                "slot": "0",
                "type": "t_bool"
              },
              {
                "astId": 231,
                "contract": "contracts/FincubeDAO.sol:FinCubeDAO",
                "label": "canceled",
                "offset": 1,
                "slot": "0",
                "type": "t_bool"
              },
              {
                "astId": 233,
                "contract": "contracts/FincubeDAO.sol:FinCubeDAO",
                "label": "proposer",
                "offset": 2,
                "slot": "0",
                "type": "t_address"
              },
              {
                "astId": 235,
                "contract": "contracts/FincubeDAO.sol:FinCubeDAO",
                "label": "data",
                "offset": 0,
                "slot": "1",
                "type": "t_bytes_storage"
              },
              {
                "astId": 237,
                "contract": "contracts/FincubeDAO.sol:FinCubeDAO",
                "label": "target",
                "offset": 0,
                "slot": "2",
                "type": "t_address"
              },
              {
                "astId": 239,
                "contract": "contracts/FincubeDAO.sol:FinCubeDAO",
                "label": "voteStart",
                "offset": 20,
                "slot": "2",
                "type": "t_uint48"
              },
              {
                "astId": 241,
                "contract": "contracts/FincubeDAO.sol:FinCubeDAO",
                "label": "voteDuration",
                "offset": 26,
                "slot": "2",
                "type": "t_uint48"
              },
              {
                "astId": 243,
                "contract": "contracts/FincubeDAO.sol:FinCubeDAO",
                "label": "yesvotes",
                "offset": 0,
                "slot": "3",
                "type": "t_uint256"
              },
              {
                "astId": 245,
                "contract": "contracts/FincubeDAO.sol:FinCubeDAO",
                "label": "novotes",
                "offset": 0,
                "slot": "4",
                "type": "t_uint256"
              }
            ],
            "numberOfBytes": "160"
          },
          "t_struct(ProposalVotes)256_storage": {
            "encoding": "inplace",
            "label": "struct FinCubeDAO.ProposalVotes",
            "members": [
              {
                "astId": 251,
                "contract": "contracts/FincubeDAO.sol:FinCubeDAO",
                "label": "isYesVote",
                "offset": 0,
                "slot": "0",
                "type": "t_mapping(t_address,t_bool)"
              },
              {
                "astId": 255,
                "contract": "contracts/FincubeDAO.sol:FinCubeDAO",
                "label": "isNoVote",
                "offset": 0,
                "slot": "1",
                "type": "t_mapping(t_address,t_bool)"
              }
            ],
            "numberOfBytes": "64"
          },
          "t_uint256": {
            "encoding": "inplace",
            "label": "uint256",
            "numberOfBytes": "32"
          },
          "t_uint48": {
            "encoding": "inplace",
            "label": "uint48",
            "numberOfBytes": "6"
          }
        }
      }
    }
  }
}